:03000000020BF3FD
:0C0BF300787FE4F6D8FD758123020C3AEF
:0C15D000759D27E4F5BDF5BE75BCA0229A
:10129100E4FDFCEF1444A842BCE5BC30E4FB53BCC4
:1012A100EFAFBEAD07AFBDEF75F004A4FFE5F0FCF5
:0512B100ED4FAE04FF4B
:0112B6002215
:10133D00D3EF9400EE9400401600000075080B7575
:0F134D0009BED509FDD508FAEF1F70E41E80E137
:01135C00226E
:10157E00D3EF9400EE9400400A000000EF1F70F0CD
:04158E001E80ED22AC
:0D000E00E4F5C7F5C5F5C675C380F5C4223D
:1013DA0075C78375C5018FC4EEF5C375C65A75C640
:0D13EA00A57F0A7E0012133DAFC202000E67
:10137D0075C78375C5028FC4EEF5C3AF058FC275F2
:0F138D00C65A75C6A57F0A7E0012133D02000ED8
:1013F70075C78375C5038FC4EEF5C375C65A75C621
:0B140700A57F0A7E0012133D02000EBC
:1012FB00E49000F5F0A3F0FFFE1213F79000F5E079
:10130B00FEA3E0FF900145E0FD12137DC202C2CCAB
:01131B0022AF
:100D860090013CE0900140F0A219E433A3F09001F9
:100D960047E0900142F0900146E0900143F0900157
:100DA60048E0900144F0900145E075F002A47F0010
:100DB600FE9000F7F0A3EFF01213F7E49000F6F0C0
:100DC6009000F6E0FDC39405502BA3E0FEA3E0FFE0
:100DD60074402DF582E43401F583E0FD12137D9015
:100DE60000F8E004F070069000F7E004F09000F6DA
:090DF600E004F080CBC202C2CC83
:010DFF0022D1
:10102700E4FFFE1213DA900145EFF0120EE8A20377
:10103700920E12142DD20E1214B4A219920E12147B
:1010470048900146E0FF1206D990013CE0FF120AE2
:0C10570080900147E0FF120026020FE924
:100EE800EF75F002A49000F6F0A3E4F09000F5F09E
:100EF8009000F6E0FEA3E0FF1213DA9000F5E0247C
:100F080040F582E43401F583EFF09000F7E004F057
:100F180070069000F6E004F09000F5E004F0E0C3FD
:100F2800940540CC900140E090013CF0900141E0F4
:100F380024FF9219A3E0900147F0900143E090014B
:0A0F480046F0900144E0900148F0EB
:010F5200227C
:10139C00759420E4F593759280F59175967FF5958B
:0F13AC00F5B2F5B175B41CF5B375CA10F5C922C9
:1004030060F20000011A0123012C0135013E01476E
:100413000151015A0164016E01770181018B01943D
:10042300019E01A801B201BC01C601CF01D901E3BC
:1004330001ED01F60200020A0213021D0226022F39
:1004430002380242024B0254025C0265026E0276DB
:10045300027F0287028F0297029F02A702AF02B6B2
:1004630002BE02C502CC02D302DA02E102E702EEC7
:1004730002F402FB03010307030D03120318031D18
:1004830003230328032D03320337033C03410345AE
:10049300034A034E03520356035A035E0362036681
:1004A300036A036D037103740378037B037E038183
:1004B30003840387038A038D038F039203950397B2
:1004C3000399039C039E03A003A303A503A703A906
:1004D30003AB03AD03AF03B103B203B403B603B875
:1004E30003B903BB03BC03BE03BF03C103C203C4FD
:0604F30003C503C603C7A8
:0E0D05009000FAEBF0A3EAF0A3E9F0A3EDF002
:100D1300E4900101F0900100F09000FDE014FF90D9
:100D23000100E0FEC39F50559000FAE0FBA3E0FAF8
:100D3300A3E0F975F002EEA4F58285F08312061C98
:100D4300FF9000FEE0FCA3E0FDC39FEC95F040257F
:100D5300A3E02401FFE433FEEF25E0FFEE33FE8F33
:100D6300828E8312061CFFC3ED9FEC95F050069014
:100D73000100E0A3F0900100E004F0809C900101E9
:020D8300E0FF8F
:010D8500224B
:050E76009000F5EFF013
:100E7B009000F7740AF0E4A3F0A3F09000F6F09062
:100E8B0000F7E0FF9000F6E0C39F501C9000F5E0E8
:100E9B00FF1212919000F9E02FF09000F8E03EF075
:100EAB009000F6E004F080D79000F8E0FEA3E0FF9E
:100EBB009000F7E0FD7C001205B1A3EEF0A3EFF07C
:100ECB007B017A0079009000F8E0FFA3E09000FE30
:0C0EDB00CFF0A3EFF07D79120D057E0032
:010EE70022E8
:1012B70075F10890FFF2740BF090FFF07410F0A333
:1012C700E4F090FF30F0A3F0A3F0A3740AF0A3E4D6
:0212D700F02203
:101412009000F5EEF0A3EFF012001E9000F5E0FF51
:0B142200A3E090FF32CFF0A3EFF02218
:04001E0075F58822CA
:06160900E4F5F5D2A32276
:100F530030044AEFB407005044900F63F828287315
:100F6300020F78020F7B020F81020F87020F8D029F
:100F73000F93020F990216097FD07E07801C7F60B2
:100F83007E0980167FF07E0A80107F807E0C800AA7
:0E0F93007F107E0E80047FA07E0F12141222AB
:1004F900C10CC10DC106C182C18BC105C10AC1832D
:10050900C100C184C101C107C108C10941013C0140
:1005190042013EE42041013D0041013300410134E3
:1005290000410135004101360041013700410138E0
:0A053900004101390042013A0000C0
:10159200538E7F5389F0758AF4758CFFC28DD28C7D
:0315A200D2A922A9
:0A15E700538EBF53890F4389102271
:1015A50053D1FDE4F5D575D4DC43D10843AF2022F2
:03000300021138AF
:10113800C0E0C083C082C0D075D000C006D2A2D2A1
:10114800A1D29790013EE0FEA3E0F58BEEF58DD29B
:1011580006D28ED2ABD006D0D0D082D083D0E032A7
:03000B0002116877
:10116800C0E0C083C082C0D020960E90013DE0044C
:10117800F0E0B46404C200C2CC30960990013DE4AA
:0E118800F0D200D2CCD0D0D082D083D0E032D2
:03001B00020C7F55
:100C7F00C0E0C0F0C083C082C0D0300664300361D2
:100C8F0090013CE014B40700504D900CA775F00391
:100C9F00A4C58325F0C58373020CBC020CC4020CDF
:100CAF00C8020CCC020CD4020CD8020CE0C297D2B2
:100CBF00A1D2A28022D2978006D297800EC297C26D
:100CCF00A1D2A28012D297800AC297D2A1C2A280CB
:100CDF0006C297C2A1C2A2C206758BF7758DFF809F
:100CEF000AD2A2D2A1D297C28EC2ABD0D0D082D01C
:060CFF0083D0F0D0E032CA
:03009B000209A1B6
:0809A100C0E0C083C082C0D099
:1009A90030072A30082790013BE004F070069001D7
:1009B9003AE004F090013AE0B40512A3E0B4DC0D8A
:1009C90090013AE4F0A3F0C207C208D209A2088252
:1009D90007400790013AE4F0A3F0900138E004F0F1
:1009E900E0D3940F4004B20CE4F0900139E004F034
:1009F900E0D394324004B20DE4F0900135E004F004
:100A0900E0D39405400AE4F0E580540F900149F0E1
:100A1900301810900136E004F0E0D394964004C2F7
:100A290018E4F0301710900137E004F0E0D3949601
:100A39004004C217E4F0200212900133E004F0E010
:100A4900D3940A4006E4F0D202D2CC300B129001C2
:100A590034E004F0E0D3940A4006D205C20BE4F076
:0E0A6900208704D20AD201308704C20AC201DB
:090A7700D0D0D082D083D0E0324F
:10135D00300307300004D2AB8002C2ABEF75F04012
:10136D00A42420FEE5F034E490013EF0A3CEF0225B
:10155400759850438E01438E0475D7E875D6FF43C2
:051564008E10D2AC2244
:030023000215C300
:0D15C300309904C299C21B309802C29832C0
:0815F100201BFDD21B8F992283
:1011050090014AEBF0A3EAF0A3E9F090014AE0FB75
:10111500A3E0FAA3E0F9120598601790014AA3E449
:1011250075F001120606A9F0FA120598FF1215F1DD
:0311350080D9223C
:0815F9008F993099FDC299227F
:1005430041012200410123004101240041012F0008
:1005530041013000410131004101320047011BC319
:10056300C6C7CACBCECF4A0125F505D39727B6F622
:0305730015F7B7C2
:10152000D2B6D2C1D2B7E4FF1211C4D2B67F4412F0
:0A15300011C4D2B612119602160182
:10119600E49000F5F09000F5E0FFC39407501E744C
:1011A6001B2FF582E43401F583E0FF1211C4E4FF3E
:0D11B6001211C4D2B69000F5E004F080D80C
:0111C3002209
:081601007F931211C4D2B6223E
:07153A0090011FE0FFE4FD3A
:101541009000F7EDF01211C49000F7E0FF1211C402
:03155100D2B622ED
:0511C4009000F8EFF0BF
:1011C9007F327E0012157EC2B6E4FFC2C19000F8DC
:1011D900E0FE1392B7D2C1EEC313F00FEFB408EBE0
:0711E9007F327E0002157E3B
:0606D9009000F6EFF0F9BD
:1006DF00E0FF75F06484FDEF75F00A8475F00A840D
:1006EF00AFF0E975F00A84AEF0900130E4F09001BC
:1006FF002FE4F0900124E4F0900123E4F090013016
:10070F00E0FC74252DF582E43401F583E0FBC4543D
:10071F000FFAEC4A900130F090012FE04BF090016E
:10072F0024E0FD74252FF582E43401F583E0FFED1D
:10073F004F900124F0900123E0FF74252EF582E401
:10074F003401F583E0FEEF4E900123F0E9C3940AE4
:10075F00501A9000F6E0C39400401112153A900120
:10076F001E12153D90011DE0FFE480479000F6E05A
:10077F00FFC39464501AEFC3940A401412153A90B1
:10078F00011E12153D90011DE0FF900124E0802312
:10079F0090011FE0FF900130E0FD12154190011E06
:1007AF00E0FF90012FE0FD12154190011DE0FF9039
:1007BF000124E0FD12154190011CE0FF900123E0A0
:0407CF00FD121541C1
:0107D3002203
:10002600AD07900132E05430F0EFB407005057901E
:10003600003CF828287302005102005802006102B1
:10004600006A02007302007C020085900132E0F033
:100056008034900132E04440F0802B900132E0443D
:10006600C0F08022900132E044C8F080199001323D
:10007600E044CCF08010900132E044CEF08007904E
:100086000132E044CFF0900121E0FF900132E0FD23
:030096000215410F
:100A8000AD07900131E05480F0900130E4F0ED14B6
:100A9000B407004003020B29900AA675F003A4C511
:100AA0008325F0C58373020ABB020ACB020ADB026C
:100AB0000AEB020AFB020B0B020B1B900131E04414
:100AC00004F0900130E04440F0805E900131E04459
:100AD00002F0900130E04420F0804E900131E0447B
:100AE00001F0900130E04410F0803E900131E0448C
:100AF00006F0900130E04460F0802E900131E04437
:100B000003F0900130E04430F0801E900131E04469
:100B100005F0900130E04450F0800E900131E04447
:100B200007F0900130E04470F0900120E0FF900168
:100B300031E0FD12154190011FE0FF900130E0FD12
:030B40000215415A
:10142D00900131E054F7F0300E04E04408F09001E3
:0B143D0020E0FF900131E0FD021541AE
:10144800900122E054EFF0300E04E04410F09001D7
:0B1458001BE0FF900122E0FD021541A7
:10146300900122E054DFF0300E04E04420F09001BC
:0B1473001BE0FF900122E0FD0215418C
:10147E00900122E054BFF0300E04E04440F09001A1
:0B148E001BE0FF900122E0FD02154171
:10149900900122E0547FF0300E04E04480F0900186
:0B14A9001BE0FF900122E0FD02154156
:1014B400900123E054F7F0300E04E04408F090016A
:0B14C4001CE0FF900123E0FD02154139
:1014CF00900132E054DFF0300E04E04420F0900140
:0B14DF0021E0FF900132E0FD0215410A
:1014EA00900131E054EFF0300E04E04410F0900126
:0B14FA0020E0FF900131E0FD021541F1
:10150500900132E054EFF0300E04E04410F0900109
:0B15150021E0FF900132E0FD021541D3
:10057600C19AC119410147004101460041014500A8
:0C0586004101485041014900C118C11753
:100B4300200503020BF2900149E024FE601B24FE02
:100B5300604A14607A24FC607B24FC607C240C6073
:100B630003020BE612109D80739000F37464F090FF
:100B73000149E0B402159000F3E0D39400400CE087
:100B830014F07F0A7E0012133D80E49000F3E070BE
:100B9300031208BD20170312121A80409000F47448
:100BA30064F0900149E0B404159000F4E0D394009C
:100BB300400CE014F07F0A7E0012133D80E49000A5
:100BC300F4E07003121569201803120E00800D1251
:100BD30010D18008121243800312126A7F327E0002
:0F0BE30012133D300305D20E12142DD20BC20592
:010BF20022E0
:10124300900147E0FFC202C2CC0FD3EF64809486C3
:1012530040027F06900147EFF0120F53900147E0E1
:07126300FF120026020D86B8
:10126A00900147E0FFC202C2CC1FC3EF64809480A2
:10127A005002E4FF900147EFF0120F53900147E04C
:07128A00FF120026020D8691
:10109D00900146E0C202C2CC2405FFD3648094E4E3
:1010AD0040027F64900146EFF012135D900146E01F
:1010BD00FF1206D990013CE0FF120A80D20E1214E5
:0410CD00B4020D86D6
:1010D100900146E0C202C2CC24FBFFC3648094802D
:1010E1005002E4FF900146EFF012135D900146E0DB
:1010F100FF1206D990013CE0FF120A80D20E1214B1
:04110100B4020D86A1
:10121A00C202C2CC90013CE0B407057401F080061A
:10122A0090013CE004F090013CE0FF120A80300398
:09123A0005D20E12142D020D86DE
:1008BD00E49000F5F0900148E09000F5F0C202C21E
:1008CD00CC7FF47E01020974900149E0640270034B
:1008DD0002097A300D0D900148E0FF1206D9D20EB3
:1008ED0012147EA20DB3502D90011FE0FFE4FD12F6
:1008FD00154190011EE0FFE4FD12154190011DE030
:10090D00FFE4FD12154190011CE0FFE4FD121541BD
:10091D00D20E12147E900149E0B40123C202C2CC62
:10092D009000F5E02405F0E0D394C8400374C8F0BE
:10093D009000F5E0900148F07F647E0012133D9029
:10094D000149E064057081C202C2CC9000F5E0243B
:10095D00FBF0E0C3943250037432F09000F5E09058
:10096D000148F07F647E0012133D0208D5D2179026
:10097D000146E0FF1206D990013CE0FF120A80C249
:10098D000E12147ED20E1214B4300305D20E1214B0
:04099D002D020D8694
:100E0000C202C2CC900145E004F0E0B406037401D4
:100E1000F0121196C20E1214B4D20E12149990014F
:100E200045E0FF1206D9900145E0FF120EE87FF47D
:100E30007E0112133D121196C20E121499A219B31B
:100E4000920E12142DA219920E121448900146E02F
:100E5000FF1206D990013CE0FF120A80D20E121454
:100E6000B4900147E0FF120026C207C208120FE942
:060E7000120FA10212FBAB
:10156900C202C2CCD218B219A219920E1214481290
:051579000FE9020D86E0
:1011F000D20E1214CF300417900147E0D394004070
:101200000EA20C920E1214EAA20CB3920E8007D218
:0A1210000E1214EAC20E1215052298
:0E15B500300508900149E07002FF227F0122FC
:101063003005369000F37464F0900149E0701590F8
:1010730000F3E0D39400400CE014F07F0A7E0012EA
:10108300133D80E59000F3E0700F121196C203C286
:091093000E12142D121609D21AD6
:01109C002231
:05000600686572650051
:0505920042014D0000D4
:100FE900301922300A0FD203D20E12142DD204D294
:100FF90007C2088019D208C203C20E12142DC204F6
:101009001216098009D203D20E12142DD2049001AE
:0E10190046E0FF12135D900147E0FF020F5307
:1012D90030070D30080AD204900147E0FF120F537E
:1012E90030090E7BFF7A007906120109121609C22C
:0212F9000922C8
:0B15DC00C2A6C2A5C2A4C2C4C2C322A2
:10131C00A201E433FF90014DE07003A3E06F601075
:10132C00120FE9A201E4FF3390014DCFF0A3EFF0CF
:01133C00228E
:100FA1007F06120E7690014FEFF0900148E0FEEFC0
:100FB100C39E400BD20E121463D285A20D92CC9027
:100FC1000148E0FF90014FE0C39F501B201909C267
:100FD1000E121463C285D2CC30190C300A09C20E2C
:070FE100121463C285D2CC9B
:010FE80022E6
:1013BB003D3D3D3D3D3D3D3D20636F646520737478
:0F13CB00617274203D3D3D3D3D3D3D3D0D0A00AD
:1007D40043BA8012139C1215D0121554121592129A
:1007E40015E71215A5D288D2A8D2AFC2C2C2A3D22D
:1007F400CC1212B7C2851216097BFF7A1379BB1289
:100804000109E4FFFE1213DAEF64016055EF64029C
:100814006050EF6403604BEF64046046EF6405606E
:10082400419001457401F090013CF0D219900147C8
:100834007403F09001467432F09001487464F0122D
:1008440012FB9000F27401F09000F2E0FFC39406F2
:100854005010900145EFF0120D869000F2E004F084
:1008640080E67FE87E0312133D301A0A1215B5EFB5
:1008740024FF921A80F3C2A01215DC121520121064
:1008840027D20E1214B4300305D20E12142DC20254
:10089400C2CC120B431211F012131C120FA112102E
:1008A400631212D9301AEBC202C2CCD2A6D2A5D29C
:0908B400A4D2C4D2C3D2A080A9D1
:100BFF000207D4E493A3F8E493A34003F68001F231
:100C0F0008DFF48029E493A3F85407240CC8C333F6
:100C1F00C4540F4420C8834004F456800146F6DFC5
:100C2F00E4800B0102040810204080900403E47E4E
:100C3F00019360BCA3FF543F30E509541FFEE493BA
:100C4F00A360010ECF54C025E060A840B8E493A381
:100C5F00FAE493A3F8E493A3C8C582C8CAC583CAAC
:100C6F00F0A3C8C582C8CAC583CADFE9DEE780BE64
:010597000063
:10059800BB010689828A83E0225002E722BBFE0261
:0905A800E32289828A83E4932294
:1005B100BC000BBE0029EF8DF084FFADF022E4CC2E
:1005C100F875F008EF2FFFEE33FEEC33FCEE9DECF7
:1005D100984005FCEE9DFE0FD5F0E9E4CEFD22ED3D
:1005E100F8F5F0EE8420D21CFEADF075F008EF2F87
:1005F100FFED33FD4007985006D5F0F222C398FD78
:050601000FD5F0EA2214
:10060600A3F8E0C5F025F0F0E582158270021583A7
:06061600E0C838F0E82204
:10061C00BB0110E58229F582E5833AF583E0F5F01C
:10062C00A3E0225009E92582F886F008E622BBFEF9
:10063C000AE92582F8E2F5F008E222E5832AF5833F
:08064C00E993F5F0A3E9932204
:10009E00E50824F6F582E43400F583E005082290A5
:1000AE0000F33015039000F6E475F001120693028A
:1000BE000598200EE97F2ED20E8018EF540F249053
:1000CE00D43440D4FF30120BEF24BFB41A005003C7
:1000DE002461FFE50960021509050CE50C700205A7
:1000EE000B30150E9000F3E475F001120693EF023B
:1000FE0006810215F97403D2158003E4C215F508C2
:10010E009000F31206AAE4F509F50BF50CE509606B
:10011E00077F201200E180F5750AFFC20FC20EC2E2
:10012E0010C211C213C214C2161200ADFF700D30F0
:10013E0015057F001200F2AF0CAE0B22B4255FC284
:10014E00D5C2121200ADFF24D0B40A00501A75F0B9
:10015E000A780930D50508B6FF0106C6A426F62092
:10016E00D5047002D21180D924CFB41A00EF5004F6
:10017E00C2E5D2120202F3D20F80C6D20E80C0D2D6
:10018E001080BCD2D580BAD21380B47F201200E189
:10019E002010077401B5090040F112009EFF1200F5
:1001AE00E102011BD216D214809512009EFB1200A2
:1001BE009EFA12009EF94A4B700679C47A037BFFB1
:1001CE0020102EE509602A7E008E827583001206AD
:1001DE005460060EEE650A70F0C2D5EBC0E0EAC0C0
:1001EE00E0E9C0E0EE12033AD0E0F9D0E0FAD0E058
:1001FE00FB120598FF60AAEBC0E0EAC0E0E9C0E0A0
:10020E001200E1D0E02401F9D0E03400FAD0E0FB96
:10021E00E50A0460DCD50AD980877BFF7A0379363C
:10022E00D210809C791080027908C214C216800800
:10023E00D2D5790A8004790AC2D5E50A047002F58E
:10024E000AE4FAFDFEFF12009EFC7B08200F13123B
:10025E00009EFD7B10300E0A12009EFE12009EFFC5
:10026E007B20EC3382D592D55013C3E4300E069F1B
:10027E00FFE49EFEE4200F039DFDE49CFCE4CBF81E
:10028E00C20FEC700CCFCECDCCE824F8F870F38012
:10029E0017C3EF33FFEE33FEED33FDEC33FCEB33E0
:1002AE00FB994002FB0FD8E9EB300F05F8D0E0C404
:1002BE0048B20FC0E00AEC4D4E4F78207B0070C262
:1002CE00EAB50A0040BCC0E012033CD0F0D0E020FA
:1002DE000F04C4C0E0C4B20FC0F01200CAD0F0D5F3
:1002EE00F0EB02011B1206B301B85302325801891A
:1002FE004C01854202364F023E44023E49019E4366
:08030E000244550228460228B2
:100316004502284703E450018D2D01912E01B42B8F
:1003260001952301B22003CD2A014D48000001ACFE
:100336003F3F3F00790AA2D5201114301309B910A6
:10034600020404B9080104A2D520140250010420B5
:1003560010689210B509005034C0E07F20301119A2
:100366007F30A21072147213500F120393C210C280
:1003760014C213C2167F30800F301303E9C0E01297
:1003860000E1301303D0E0F9D0E0B509CC30131703
:100396007F30B9100C1200E17F583012077F788049
:1003A60003B908031200E13010057F2D0200E17F3A
:1003B600202016F87F2B2014F322921080CF286E6F
:1003C600756C6C2900D20F12009E300FF8C20F78A0
:1003D6000930D50108F602014D2D50434958120047
:1003E6009E2403B405004001E49003DF931200D27B
:0D03F600743A1200D2D211750904020232CD
:10065400BB010CE58229F582E5833AF583E022505B
:1006640006E92582F8E622BBFE06E92582F8E222A5
:0D067400E58229F582E5833AF583E49322BF
:10068100BB010689828A83F0225002F722BBFE0158
:02069100F32252
:10069300F8E0FBA3A3E0F925F0F0E58215827002F0
:0706A3001583E0FA38F02294
:0906AA00EBF0A3EAF0A3E9F02251
:1006B300D083D082F8E4937012740193700DA3A3D6
:1006C30093F8740193F5828883E4737402936860EA
:0606D300EFA3A3A380DFEA
:00000001FF
