:030000000207B73D
:0C07B700787FE4F6D8FD7581210207FE72
:0C0D5F00759D27E4F5BDF5BE75BCA02213
:100A5E00E4FDFCEF44A842BCE5BC30E4FB53BCEF24
:100A6E00AFBEAD07AFBDEF75F004A4FFE5F0FCED32
:040A7E004FAE04FF74
:010A82002251
:100AA400D3EF9400EE94004016000000750D0B7512
:0F0AB4000EBED50EFDD50DFAEF1F70E41E80E1CA
:010AC3002210
:100CE100D3EF9400EE9400400A000000EF1F70F073
:040CF1001E80ED2252
:0D000E00E4F5C7F5C5F5C675C380F5C4223D
:100AE30075C78375C5018FC4EEF5C375C65A75C640
:0D0AF300A57F0A7E00120AA4AFC202000E09
:100AC40075C78375C5028FC4EEF5C3AF058FC275B4
:0F0AD400C65A75C6A57F0A7E00120AA402000E3C
:100B1D0075C78375C5038FC4EEF5C375C65A75C603
:0B0B2D00A57F0A7E00120AA402000E41
:100CF500E4F592F591759609F595F5B2F5B175CAD4
:040D050010F5C922FA
:1005440060F20000011A0123012C0135013E01472C
:100554000151015A0164016E01770181018B0194FB
:10056400019E01A801B201BC01C601CF01D901E37A
:1005740001ED01F60200020A0213021D0226022FF7
:1005840002380242024B0254025C0265026E027699
:10059400027F0287028F0297029F02A702AF02B670
:1005A40002BE02C502CC02D302DA02E102E702EE85
:1005B40002F402FB03010307030D03120318031DD6
:1005C40003230328032D03320337033C034103456C
:1005D400034A034E03520356035A035E036203663F
:1005E400036A036D037103740378037B037E038141
:1005F40003840387038A038D038F03920395039770
:100604000399039C039E03A003A303A503A703A9C3
:1006140003AB03AD03AF03B103B203B403B603B832
:1006240003B903BB03BC03BE03BF03C103C203C4BA
:0606340003C503C603C765
:0E084300900132EBF0A3EAF0A3E9F0A3EDF090
:10085100E4900139F0900138F0900135E014FF90F7
:100861000138E0FEC39F5055900132E0FBA3E0FA4E
:10087100A3E0F975F002EEA4F58285F083120487F6
:10088100FF900136E0FCA3E0FDC39FEC95F040250D
:10089100A3E02401FFE433FEEF25E0FFEE33FE8FFA
:1008A100828E83120487FFC3ED9FEC95F050069072
:1008B1000138E0A3F0900138E004F0809C90013908
:0208C100E0FF56
:0108C3002212
:0509370090013AEFF011
:10093C0090013C740AF0E4A3F0A3F090013BF0901A
:10094C00013CE0FF90013BE0C39F501C90013AE05A
:10095C00FF120A5E90013EE02FF090013DE03EF068
:10096C0090013BE004F080D790013DE0FEA3E0FF56
:10097C0090013CE0FD7C0012041CA3EEF0A3EFF010
:10098C007B017A00790090013DE0FFA3E0900136F5
:0C099C00CFF0A3EFF07D791208437E003D
:0109A800222C
:100A360043BA8075F10890FFF2740BF090FFF074E2
:100A460010F0A3E4F090FF30F0A3F0A3F0A3740A33
:080A5600F0A3E4F075F7302273
:090D6B0090FF32EEF0A3EFF0223C
:04001E0075F58822CA
:040D8400E4F5F5227B
:06063A00C109410142006C
:100D0900438E805389F0758CCD758AD4C28DD28C6F
:030D1900D2A9223A
:100D1C00538EBF53890FE4F58B758DDCC28FD28E49
:030D2C00D2AB2225
:100D420053D1FDE4F5D575D4DC43D10843AF20225D
:03000B00020022CE
:0100220032AB
:03001B00020A8353
:080A8300C0E0C083C082C0D0B6
:100A8B00900142E004F0E0D3940F4004B209E4F08B
:090A9B00D0D0D082D083D0E0322B
:03009B00020D88CB
:010D88003238
:100CCC00759850438E01438E0475D7E875D6FF4353
:050CDC008E10D2AC22D5
:03002300020D5279
:0D0D5200309904C299C20A309802C298324A
:08000300200AFDD20A8F9922A8
:1009A90090013FEBF0A3EAF0A3E9F090013FE0FBEF
:1009B900A3E0FAA3E0F9120403601790013FA3E44E
:1009C90075F001120471A9F0FA120403FF12000371
:0309D90080D922A0
:080D74008F993099FDC299220C
:1006400041012100410122004101230041012E000E
:1006500041012F00410130004101310047011AC31F
:10066000C6C7CACBCECF4A0124F505D39727B6F625
:0306700015F7B7C4
:100CB200D2B6D2C1D2B7E4FF120A0AD2B67F441228
:0A0CC2000A0AD2B61209DC020D7C0A
:1009DC00E49000F2F09000F2E0FFC39407501E7414
:1009EC001A2FF582E43401F583E0FF120A0AE4FFC2
:0D09FC00120A0AD2B69000F2E004F080D892
:010A090022CA
:080D7C007F93120A0AD2B6228D
:100D2F009000F2EDF0120A0A9000F2E0FF120A0AA8
:030D3F00D2B62207
:050A0A009000F3EFF085
:100A0F007F327E00120CE1C2B6E4FFC2C19000F348
:100A1F00E0FE1392B7D2C1EEC313F00FEFB408EBA1
:070A2F007F327E00020CE1A2
:10067800EF75F06484FDEF75F00A8475F00A84ABB9
:10068800F0EF75F00A84ACF090012FE05470F9F0A7
:1006980090012EE4F0900123E4F0900122E0540848
:1006A800F074242DF582E43401F583E0FFC4540F7F
:1006B80049F990012FF090012EE04FF0900123E0CE
:1006C800FFAE0374242EF582E43401F583E0FEEFD7
:1006D8004E900123F0900122E0FFAE0474242EF521
:1006E80082E43401F583E0FEEF4E900122F09001A0
:1006F8001EE0FFAD01120D2F90011DE0FF90012EAD
:10070800E0FD120D2F90011CE0FF900123E0FD1287
:0F0718000D2F90011BE0FF900122E0FD020D2F3D
:1008C400AD07900131E05430F0EFB4070050579079
:1008D40008DAF82828730208EF0208F60208FF0273
:1008E400090802091102091A020923900131E0F0F2
:1008F4008034900131E04440F0802B900131E04499
:10090400C0F08022900131E044C8F0801990013198
:10091400E044CCF08010900131E044CEF0800790A8
:100924000131E044CFF0900120E0FF900131E0FD7F
:03093400020D2F82
:10002600AD07900130E054F8F0EFB4070050599056
:10003600003CF828287302005102005A02006302AD
:10004600006C02007502007E020087900130E044D9
:1000560001F08034900130E04402F0802B900130B2
:10006600E04403F08022900130E04404F0801990CF
:100076000130E04405F08010900130E04406F08045
:1000860007900130E04407F090011FE0FF90013037
:05009600E0FD020D2F4A
:100B3800900130E054F7F0300004E04408F09001F0
:0B0B48001FE0FF900130E0FD020D2FC8
:100B5300900121E054EFF0300004E04410F09001E4
:0B0B63001AE0FF900121E0FD020D2FC1
:100B6E00900121E054DFF0300004E04420F09001C9
:0B0B7E001AE0FF900121E0FD020D2FA6
:100B8900900130E0547FF0300004E04480F090019F
:0B0B99001FE0FF900130E0FD020D2F77
:100BA400900130E054BFF0300004E04440F0900184
:0B0BB4001FE0FF900130E0FD020D2F5C
:100BBF00900130E054DFF0300004E04420F0900169
:0B0BCF001FE0FF900130E0FD020D2F41
:100BDA00900121E054BFF0300004E04440F090015D
:0B0BEA001AE0FF900121E0FD020D2F3A
:100BF500900121E0547FF0300004E04480F0900142
:0B0C05001AE0FF900121E0FD020D2F1E
:100C1000900122E054F7F0300004E04408F0900125
:0B0C20001BE0FF900122E0FD020D2F01
:100C2B00900121E054F7F0300004E04408F090010B
:0B0C3B001AE0FF900121E0FD020D2FE8
:100C4600900121E054FBF0300004E04404F09001F0
:0B0C56001AE0FF900121E0FD020D2FCD
:100C6100900131E054DFF0300004E04420F09001C5
:0B0C710020E0FF900131E0FD020D2F9C
:100C7C00900130E054EFF0300004E04410F09001AB
:0B0C8C001FE0FF900130E0FD020D2F83
:100C9700900131E054EFF0300004E04410F090018F
:0B0CA70020E0FF900131E0FD020D2F66
:100B00003D3D3D3D3D3D3D3D636F646520737461FA
:0D0B100072743D3D3D3D3D3D3D3D0D0A00F3
:0406730041014300FE
:1007270043BA80120CF5120D5F120CCC120D091290
:100737000D1C120D42D2AFC2A0C2A3120A3612007C
:100747001E120CB27F061208C47F7B1206787F0642
:10075700120026D200120B38D200120B53D200120D
:100767000B6ED200120B89D200120BA4D200120B0F
:10077700BFD200120BDAD200120BF5D200120C1006
:10078700D200120C2BD200120C46D200120C617F41
:10079700147E00120D6B7BFF7A0B7900120109A200
:1007A700099200120C7CA209B39200120C9780EFF9
:1007C300020727E493A3F8E493A34003F68001F21E
:1007D30008DFF48029E493A3F85407240CC8C33337
:1007E300C4540F4420C8834004F456800146F6DF06
:1007F300E4800B0102040810204080900544E47E4D
:10080300019360BCA3FF543F30E509541FFEE493FA
:10081300A360010ECF54C025E060A840B8E493A3C1
:10082300FAE493A3F8E493A3C8C582C8CAC583CAEC
:10083300F0A3C8C582C8CAC583CADFE9DEE780BEA4
:010677000082
:10040300BB010689828A83E0225002E722BBFE02F7
:09041300E32289828A83E493222A
:10041C00BC000BBE0029EF8DF084FFADF022E4CCC4
:10042C00F875F008EF2FFFEE33FEEC33FCEE9DEC8D
:10043C00984005FCEE9DFE0FD5F0E9E4CEFD22EDD3
:10044C00F8F5F0EE8420D21CFEADF075F008EF2F1D
:10045C00FFED33FD4007985006D5F0F222C398FD0E
:05046C000FD5F0EA22AB
:10047100A3F8E0C5F025F0F0E5821582700215833E
:06048100E0C838F0E8229B
:10048700BB0110E58229F582E5833AF583E0F5F0B3
:10049700A3E0225009E92582F886F008E622BBFE90
:1004A7000AE92582F8E2F5F008E222E5832AF583D6
:0804B700E993F5F0A3E993229B
:10009E00E50824F5F582E43400F583E005082290A6
:1000AE0000F23007039000F5E475F0011204FE0231
:1000BE0004032000E97F2ED2008018EF540F249005
:1000CE00D43440D4FF30040BEF24BFB41A005003D5
:1000DE002461FFE50960021509050CE50C700205A7
:1000EE000B30070E9000F2E475F0011204FEEF02E1
:1000FE0004EC020D747403D2078003E4C207F50802
:10010E009000F2120515E4F509F50BF50CE5096002
:10011E00077F201200E180F5750AFFC201C200C2FE
:10012E0002C203C205C206C2081200ADFF700D3036
:10013E0007057F001200F2AF0CAE0B22B4255FC292
:10014E00D5C2041200ADFF24D0B40A00501A75F0C7
:10015E000A780930D50508B6FF0106C6A426F62092
:10016E00D5047002D20380D924CFB41A00EF500404
:10017E00C2E5D2040202F3D20180C6D20080C0D200
:10018E000280BCD2D580BAD20580B47F201200E1A5
:10019E002002077401B5090040F112009EFF120003
:1001AE00E102011BD208D206809512009EFB1200BE
:1001BE009EFA12009EF94A4B700679C47A037BFFB1
:1001CE0020022EE509602A7E008E827583001204BD
:1001DE00BF60060EEE650A70F0C2D5EBC0E0EAC055
:1001EE00E0E9C0E0EE12033AD0E0F9D0E0FAD0E058
:1001FE00FB120403FF60AAEBC0E0EAC0E0E9C0E036
:10020E001200E1D0E02401F9D0E03400FAD0E0FB96
:10021E00E50A0460DCD50AD980877BFF7A0379363C
:10022E00D202809C791080027908C206C20880082A
:10023E00D2D5790A8004790AC2D5E50A047002F58E
:10024E000AE4FAFDFEFF12009EFC7B082001131249
:10025E00009EFD7B1030000A12009EFE12009EFFD3
:10026E007B20EC3382D592D55013C3E43000069F29
:10027E00FFE49EFEE42001039DFDE49CFCE4CBF82C
:10028E00C201EC700CCFCECDCCE824F8F870F38020
:10029E0017C3EF33FFEE33FEED33FDEC33FCEB33E0
:1002AE00FB994002FB0FD8E9EB300105F8D0E0C412
:1002BE0048B201C0E00AEC4D4E4F78207B0070C270
:1002CE00EAB50A0040BCC0E012033CD0F0D0E020FA
:1002DE000104C4C0E0C4B201C0F01200CAD0F0D50F
:1002EE00F0EB02011B12051E01B8530232580189B0
:1002FE004C01854202364F023E44023E49019E4366
:08030E000244550228460228B2
:100316004502284703E450018D2D01912E01B42B8F
:1003260001952301B22003CD2A014D48000001ACFE
:100336003F3F3F00790AA2D5200314300509B910C2
:10034600020404B9080104A2D520060250010420C3
:1003560002689202B509005034C0E07F20300319CC
:100366007F30A20272067205500F120393C202C2B8
:1003760006C205C2087F30800F300503E9C0E012CF
:1003860000E1300503D0E0F9D0E0B509CC3005171F
:100396007F30B9100C1200E17F583004077F788057
:1003A60003B908031200E13002057F2D0200E17F48
:1003B600202008F87F2B2006F322920280CF286E99
:1003C600756C6C2900D20112009E3001F8C20178CA
:1003D6000930D50108F602014D2D50434958120047
:1003E6009E2403B405004001E49003DF931200D27B
:0D03F600743A1200D2D203750904020232DB
:1004BF00BB010CE58229F582E5833AF583E02250F2
:1004CF0006E92582F8E622BBFE06E92582F8E2223C
:0D04DF00E58229F582E5833AF583E4932256
:1004EC00BB010689828A83F0225002F722BBFE01EF
:0204FC00F322E9
:1004FE00F8E0FBA3A3E0F925F0F0E5821582700287
:07050E001583E0FA38F0222A
:09051500EBF0A3EAF0A3E9F022E7
:10051E00D083D082F8E4937012740193700DA3A36C
:10052E0093F8740193F5828883E473740293686080
:06053E00EFA3A3A380DF80
:00000001FF
