:03000000020B04EC
:0C0B0400787FE4F6D8FD758123020B4BCE
:0C153900759D27E4F5BDF5BE75BCA02231
:1011FD00E4FDFCEF1444A842BCE5BC30E4FB53BC59
:10120D00EFAFBEAD07AFBDEF75F004A4FFE5F0FC89
:05121D00ED4FAE04FFDF
:0112220022A9
:1012A900D3EF9400EE9400401600000075080B750A
:0F12B90009BED509FDD508FAEF1F70E41E80E1CC
:0112C8002203
:1014E700D3EF9400EE9400400A000000EF1F70F065
:0414F7001E80ED2244
:0D000E00E4F5C7F5C5F5C675C380F5C4223D
:1013260075C78375C5018FC4EEF5C375C65A75C6F4
:0D133600A57F0A7E001212A9AFC202000EB0
:1012C90075C78375C5028FC4EEF5C3AF058FC275A7
:0F12D900C65A75C6A57F0A7E001212A902000E22
:1013600075C78375C5038FC4EEF5C375C65A75C6B8
:0B137000A57F0A7E001212A902000EE9
:10126700E49000F4F0A3F0FFFE1213609000F4E0A6
:10127700FEA3E0FF900143E0FD1212C9C201C2CCF8
:011287002244
:100D200090013BE090013EF0A218E433A3F0900163
:100D300045E0900140F0900144E0900141F09001C5
:100D400046E0900142F0900143E075F002A47F007C
:100D5000FE9000F6F0A3EFF0121360E49000F5F0BF
:100D60009000F5E0FDC39405502BA3E0FEA3E0FF47
:100D7000743E2DF582E43401F583E0FD1212C99032
:100D800000F7E004F070069000F6E004F09000F543
:090D9000E004F080CBC201C2CCEA
:010D99002237
:100FC100E4FFFE121326900143EFF0120E82A202FB
:100FD100920D121396D20D12141DA218920D121316
:100FE100B1900144E0FF1206D390013BE0FF1209EA
:0C0FF10091900145E0FF120026020F83E2
:100E8200EF75F002A49000F5F0A3E4F09000F4F006
:100E92009000F5E0FEA3E0FF1213269000F4E02498
:100EA2003EF582E43401F583EFF09000F6E004F0C1
:100EB20070069000F5E004F09000F4E004F0E0C366
:100EC200940540CC90013EE090013BF090013FE060
:100ED20024FF9218A3E0900145F0900141E09001B7
:0A0EE20044F0900142E0900146F058
:010EEC0022E3
:1012E800759420E4F593759280F59175967FF59540
:0F12F800F5B2F5B175B41CF5B375CA10F5C9227E
:1004030060F20000011A0123012C0135013E01476E
:100413000151015A0164016E01770181018B01943D
:10042300019E01A801B201BC01C601CF01D901E3BC
:1004330001ED01F60200020A0213021D0226022F39
:1004430002380242024B0254025C0265026E0276DB
:10045300027F0287028F0297029F02A702AF02B6B2
:1004630002BE02C502CC02D302DA02E102E702EEC7
:1004730002F402FB03010307030D03120318031D18
:1004830003230328032D03320337033C03410345AE
:10049300034A034E03520356035A035E0362036681
:1004A300036A036D037103740378037B037E038183
:1004B30003840387038A038D038F039203950397B2
:1004C3000399039C039E03A003A303A503A703A906
:1004D30003AB03AD03AF03B103B203B403B603B875
:1004E30003B903BB03BC03BE03BF03C103C203C4FD
:0604F30003C503C603C7A8
:0E0C9F009000F9EBF0A3EAF0A3E9F0A3EDF06A
:100CAD00E4900100F09000FFF09000FCE014FF9044
:100CBD0000FFE0FEC39F50559000F9E0FBA3E0FA62
:100CCD00A3E0F975F002EEA4F58285F08312061605
:100CDD00FF9000FDE0FCA3E0FDC39FEC95F04025E7
:100CED00A3E02401FFE433FEEF25E0FFEE33FE8F9A
:100CFD00828E83120616FFC3ED9FEC95F050069081
:100D0D0000FFE0A3F09000FFE004F0809C90010054
:020D1D00E0FFF5
:010D1F0022B1
:050E10009000F4EFF07A
:100E15009000F6740AF0E4A3F0A3F09000F5F090CA
:100E250000F6E0FF9000F5E0C39F501C9000F4E051
:100E3500FF1211FD9000F8E02FF09000F7E03EF072
:100E45009000F5E004F080D79000F7E0FEA3E0FF06
:100E55009000F6E0FD7C001205ABA3EEF0A3EFF0E9
:100E65007B017A0079009000F7E0FFA3E09000FD98
:0C0E7500CFF0A3EFF07D79120C9F7E00FF
:010E8100224E
:1012230075F10890FFF2740BF090FFF07410F0A3C7
:10123300E4F090FF30F0A3F0A3F0A3740AF0A3E46A
:02124300F02297
:10137B009000F4EEF0A3EFF012001E9000F4E0FFEB
:0B138B00A3E090FF32CFF0A3EFF022B0
:04001E0075F58822CA
:06157200E4F5F5D2A3220E
:100EED0030034AEFB407005044900EFDF8282873E4
:100EFD00020F12020F15020F1B020F21020F270204
:100F0D000F2D020F330215727FD07E07801C7F607C
:100F1D007E0980167FF07E0A80107F807E0C800A0D
:0E0F2D007F107E0E80047FA07E0F12137B22A9
:1004F900C10BC10CC105C181C18AC104C109C18235
:10050900C183C100C106C107C10841013B014201C4
:100519003CE42041013200410133004101340041F2
:1005290001350041013600410137004101380042DF
:040539000139000084
:1014FB00438E805389F0758CCD758AD4C28DD28C76
:03150B00D2A92240
:0A155000538EBF53890F4389102208
:10150E0053D1FDE4F5D575D4DC43D10843AF202289
:030003000210D216
:1010D200C0E0C083C082C0D075D000C006D2A2D208
:1010E200A1D29790013CE0FEA3E0F58BEEF58DD204
:1010F20005D28ED2ABD006D0D0D082D083D0E0320F
:03000B00020022CE
:0100220032AB
:03001B00020C19BB
:100C1900C0E0C0F0C083C082C0D03005643002613A
:100C290090013BE014B40700504D900C4175F0035E
:100C3900A4C58325F0C58373020C56020C5E020C11
:100C490062020C66020C6E020C72020C7AC297D216
:100C5900A1D2A28022D2978006D297800EC297C2D3
:100C6900A1D2A28012D297800AC297D2A1C2A28031
:100C790006C297C2A1C2A2C205758BF7758DFF8006
:100C89000AD2A2D2A1D297C28EC2ABD0D0D082D082
:060C990083D0F0D0E03230
:03009B000208B2A6
:0808B200C0E0C083C082C0D089
:1008BA0030062A30072790013AE004F070069001CA
:1008CA0039E004F0900139E0B40512A3E0B4DC0D7C
:1008DA00900139E4F0A3F0C206C207D208A2078247
:1008EA00064007900139E4F0A3F0900137E004F0E4
:1008FA00E0D3940F4004B20BE4F0900138E004F026
:10090A00E0D394324004B20CE4F0900134E004F0F5
:10091A00E0D39405400AE4F0E580540F900147F0D3
:10092A00301710900135E004F0E0D394964004C2E9
:10093A0017E4F0301610900136E004F0E0D39496F4
:10094A004004C216E4F0200112900132E004F0E003
:10095A00D3940A4006E4F0D201D2CC300A129001B4
:10096A0033E004F0E0D3940A4006D204C20AE4F069
:0E097A00208704D209D200308704C209C200CF
:09098800D0D0D082D083D0E0323F
:10134300300204D2AB8002C2ABEF75F040A424207C
:0D135300FEE5F034E490013CF0A3CEF02262
:1014BD00759850438E01438E0475D7E875D6FF435A
:0514CD008E10D2AC22DC
:0300230002152C97
:0D152C00309904C299C21A309802C2983258
:08155A00201AFDD21A8F99221C
:10109F00900148EBF0A3EAF0A3E9F0900148E0FBE0
:1010AF00A3E0FAA3E0F91205926017900148A3E4B8
:1010BF0075F001120600A9F0FA120592FF12155AE7
:0310CF0080D922A3
:081562008F993099FDC2992216
:10053D0041012100410122004101230041012E0012
:10054D0041012F00410130004101310047011AC323
:10055D00C6C7CACBCECF4A0124F505D39727B6F629
:03056D0015F7B7C8
:10148900D2B6D2C1D2B7E4FF121130D2B67F44121C
:0A1499001130D2B612110202156ADA
:10110200E49000F4F09000F4E0FFC39407501E74E2
:101112001A2FF582E43401F583E0FF121130E4FF67
:0D112200121130D2B69000F4E004F080D835
:01112F00229D
:08156A007F93121130D2B6226A
:0714A30090011EE0FFE4FDD3
:1014AA009000F6EDF01211309000F6E0FF121130C4
:0314BA00D2B62285
:051130009000F7EFF054
:101135007F327E001214E7C2B6E4FFC2C19000F709
:10114500E0FE1392B7D2C1EEC313F00FEFB408EB74
:071155007F327E000214E767
:0606D3009000F5EFF0F9C4
:1006D900E0FF75F06484FDEF75F00A8475F00A8413
:1006E900AFF0E975F00A84AEF090012FE4F09001C3
:1006F9002EE4F0900123E4F0900122E4F090012F20
:10070900E0FC74242DF582E43401F583E0FBC45444
:100719000FFAEC4A90012FF090012EE04BF0900176
:1007290023E0FD74242FF582E43401F583E0FFED25
:100739004F900123F0900122E0FF74242EF582E40A
:100749003401F583E0FEEF4E900122F0E9C3940AEB
:10075900501A9000F5E0C3940040111214A39001BF
:100769001D1214A690011CE0FFE480479000F5E0FB
:10077900FFC39464501AEFC3940A40141214A3904F
:10078900011D1214A690011CE0FF900123E08023B3
:1007990090011EE0FF90012FE0FD1214AA90011DA7
:1007A900E0FF90012EE0FD1214AA90011CE0FF90D9
:1007B9000123E0FD1214AA90011BE0FF900122E041
:0407C900FD1214AA5F
:0107CD002209
:10002600AD07900131E05430F0EFB407005057901F
:10003600003CF828287302005102005802006102B1
:10004600006A02007302007C020085900131E0F034
:100056008034900131E04440F0802B900131E0443F
:10006600C0F08022900131E044C8F080199001313F
:10007600E044CCF08010900131E044CEF08007904F
:100086000131E044CFF0900120E0FF900131E0FD26
:030096000214AAA7
:10099100AD07900130E05480F090012FE4F0ED14A8
:1009A100B407004003020A3A9009B775F003A4C5E1
:1009B1008325F0C583730209CC0209DC0209EC022C
:1009C10009FC020A0C020A1C020A2C900130E044C4
:1009D10004F090012FE04440F0805E900130E0444B
:1009E10002F090012FE04420F0804E900130E0446D
:1009F10001F090012FE04410F0803E900130E0447E
:100A010006F090012FE04460F0802E900130E04428
:100A110003F090012FE04430F0801E900130E0445B
:100A210005F090012FE04450F0800E900130E04439
:100A310007F090012FE04470F090011FE0FF90015A
:100A410030E0FD1214AA90011EE0FF90012FE0FD9D
:030A51000214AAE2
:10139600900130E054F7F0300D04E04408F090017D
:0B13A6001FE0FF900130E0FD0214AAE0
:1013B100900121E054EFF0300D04E04410F0900171
:0B13C1001AE0FF900121E0FD0214AAD9
:1013CC00900121E054DFF0300D04E04420F0900156
:0B13DC001AE0FF900121E0FD0214AABE
:1013E700900121E054BFF0300D04E04440F090013B
:0B13F7001AE0FF900121E0FD0214AAA3
:10140200900121E0547FF0300D04E04480F090011F
:0B1412001AE0FF900121E0FD0214AA87
:10141D00900122E054F7F0300D04E04408F0900103
:0B142D001BE0FF900122E0FD0214AA6A
:10143800900131E054DFF0300D04E04420F09001D9
:0B14480020E0FF900131E0FD0214AA3B
:10145300900130E054EFF0300D04E04410F09001BF
:0B1463001FE0FF900130E0FD0214AA22
:10146E00900131E054EFF0300D04E04410F09001A3
:0B147E0020E0FF900131E0FD0214AA05
:10057000C199C118410145004101440041014300B6
:0C0580004101465041014700C117C1165F
:100A5400200403020B03900147E024FE601B24FEE4
:100A6400604A14607A24FC607B24FC607C240C6063
:100A740003020AF712103780739000F27464F09046
:100A84000147E0B402159000F2E0D39400400CE07A
:100A940014F07F0A7E001212A980E49000F2E07044
:100AA400031207CE20160312118680409000F374BF
:100AB40064F0900147E0B404159000F3E0D394008F
:100AC400400CE014F07F0A7E001212A980E490002A
:100AD400F3E070031214D2201703120D9A800D1242
:100AE400106B80081211AF80031211D67F327E0082
:0F0AF4001212A9300205D20D121396D20AC204B3
:010B030022CF
:1011AF00900145E0FFC201C2CC0FD3EF648094865B
:1011BF0040027F06900145EFF0120EED900145E0E1
:0711CF00FF120026020D20B3
:1011D600900145E0FFC201C2CC1FC3EF648094803A
:1011E6005002E4FF900145EFF0120EED900145E04C
:0711F600FF120026020D208C
:10103700900144E0C201C2CC2405FFD3648094E44C
:1010470040027F64900144EFF0121343900144E0A3
:10105700FF1206D390013BE0FF120991D20D121443
:041067001D020D2039
:10106B00900144E0C201C2CC24FBFFC36480948096
:10107B005002E4FF900144EFF0121343900144E05F
:10108B00FF1206D390013BE0FF120991D20D12140F
:04109B001D020D2005
:10118600C201C2CC90013BE0B407057401F08006B1
:1011960090013BE004F090013BE0FF120991300220
:0911A60005D20D121396020D2072
:1007CE00E49000F4F0900146E09000F4F0C201C213
:1007DE00CC7FF47E01020885900147E0640270032D
:1007EE0002088B300C0D900146E0FF1206D3D20D9D
:1007FE001213E7A20CB3502D90011EE0FFE4FD1280
:10080E0014AA90011DE0FFE4FD1214AA90011CE051
:10081E00FFE4FD1214AA90011BE0FFE4FD1214AADE
:10082E00D20D1213E7900147E0B40123C201C2CCEE
:10083E009000F4E02405F0E0D394C8400374C8F0AF
:10084E009000F4E0900146F07F647E001212A990B1
:10085E000147E064057081C201C2CC9000F4E0242F
:10086E00FBF0E0C3943250037432F09000F4E09049
:10087E000146F07F647E001212A90207E6D216909E
:10088E000144E0FF1206D390013BE0FF120991C232
:10089E000D1213E7D20D12141D300205D20D1213D4
:0408AE0096020D2081
:100D9A00C201C2CC900143E004F0E0B4060374013E
:100DAA00F0121102C20D12141DD20D12140290017A
:100DBA0043E0FF1206D3900143E0FF120E827FF454
:100DCA007E011212A9121102C20D121402A218B344
:100DDA00920D121396A218920D1213B1900144E0CB
:100DEA00FF1206D390013BE0FF120991D20D1214B3
:100DFA001D900145E0FF120026C206C207120F83AA
:060E0A00120F3B0212670B
:1014D200C201C2CCD217B218A218920D1213B112C5
:0514E2000F83020D2044
:10115C00D20D121438300317900145E0D39400409F
:10116C000EA20B920D121453A20BB3920D8007D248
:0A117C000D121453C20D12146E225E
:0E151E00300408900147E07002FF227F012296
:100FFD003004369000F27464F0900147E070159063
:10100D0000F2E0D39400400CE014F07F0A7E001251
:10101D0012A980E59000F2E0700F121102C202C217
:09102D000D121396121572D2196E
:011036002297
:05000600686572650051
:05058C0042014B0000DC
:100F830030182230090FD202D20D121396D203D297
:100F930006C2078019D207C202C20D121396C203FA
:100FA3001215728009D202D20D121396D203900148
:0E0FB30044E0FF121343900145E0FF020EEDF3
:1012450030060D30070AD203900145E0FF120EED7E
:1012550030080E7BFF7A007906120109121572C259
:0212650008225D
:0B154500C2A6C2A5C2A4C2C4C2C32239
:10128800A200E433FF90014BE07003A3E06F60100D
:10129800120F83A200E4FF3390014BCFF0A3EFF0CD
:0112A8002223
:100F3B007F06120E1090014DEFF0900146E0FEEF90
:100F4B00C39E400BD20D1213CCD285A20C92CC9027
:100F5B000146E0FF90014DE0C39F501B201809C2D2
:100F6B000D1213CCC285D2CC30180C300909C20D2E
:070F7B001213CCC285D2CC99
:010F8200224C
:101307003D3D3D3D3D3D3D3D20636F64652073742C
:0F131700617274203D3D3D3D3D3D3D3D0D0A0061
:100B900043BA801212E81215391214BD1214FB1256
:100BA000155012150ED288D2A8D2AFC2C2C2A3D29B
:100BB000CC121223C2851215727BFF7A13790712A9
:100BC00001097FE87E031212A930190A12151EEFDF
:100BD00024FF921980F3C2A0121545121489120F36
:100BE000C1D20D12141D300205D20D121396C2018E
:100BF000C2CC120A5412115C121288120F3B120F4F
:100C0000FD1212453019EBC201C2CCD2A6D2A5D238
:090C1000A4D2C4D2C3D2A080A971
:100B1000020B90E493A3F8E493A34003F68001F260
:100B200008DFF48029E493A3F85407240CC8C333E6
:100B3000C4540F4420C8834004F456800146F6DFB5
:100B4000E4800B0102040810204080900403E47E3E
:100B5000019360BCA3FF543F30E509541FFEE493AA
:100B6000A360010ECF54C025E060A840B8E493A371
:100B7000FAE493A3F8E493A3C8C582C8CAC583CA9C
:100B8000F0A3C8C582C8CAC583CADFE9DEE780BE54
:010591000069
:10059200BB010689828A83E0225002E722BBFE0267
:0905A200E32289828A83E493229A
:1005AB00BC000BBE0029EF8DF084FFADF022E4CC34
:1005BB00F875F008EF2FFFEE33FEEC33FCEE9DECFD
:1005CB00984005FCEE9DFE0FD5F0E9E4CEFD22ED43
:1005DB00F8F5F0EE8420D21CFEADF075F008EF2F8D
:1005EB00FFED33FD4007985006D5F0F222C398FD7E
:0505FB000FD5F0EA221B
:10060000A3F8E0C5F025F0F0E582158270021583AD
:06061000E0C838F0E8220A
:10061600BB0110E58229F582E5833AF583E0F5F022
:10062600A3E0225009E92582F886F008E622BBFEFF
:100636000AE92582F8E2F5F008E222E5832AF58345
:08064600E993F5F0A3E993220A
:10009E00E50824F5F582E43400F583E005082290A6
:1000AE0000F23014039000F5E475F00112068D0293
:1000BE000592200DE97F2ED20D8018EF540F24905B
:1000CE00D43440D4FF30110BEF24BFB41A005003C8
:1000DE002461FFE50960021509050CE50C700205A7
:1000EE000B30140E9000F2E475F00112068DEF0243
:1000FE00067B0215627403D2148003E4C214F50861
:10010E009000F21206A4E4F509F50BF50CE5096072
:10011E00077F201200E180F5750AFFC20EC20DC2E4
:10012E000FC210C212C213C2151200ADFF700D30F5
:10013E0014057F001200F2AF0CAE0B22B4255FC285
:10014E00D5C2111200ADFF24D0B40A00501A75F0BA
:10015E000A780930D50508B6FF0106C6A426F62092
:10016E00D5047002D21080D924CFB41A00EF5004F7
:10017E00C2E5D2110202F3D20E80C6D20D80C0D2D9
:10018E000F80BCD2D580BAD21280B47F201200E18B
:10019E00200F077401B5090040F112009EFF1200F6
:1001AE00E102011BD215D213809512009EFB1200A4
:1001BE009EFA12009EF94A4B700679C47A037BFFB1
:1001CE00200F2EE509602A7E008E827583001206AE
:1001DE004E60060EEE650A70F0C2D5EBC0E0EAC0C6
:1001EE00E0E9C0E0EE12033AD0E0F9D0E0FAD0E058
:1001FE00FB120592FF60AAEBC0E0EAC0E0E9C0E0A6
:10020E001200E1D0E02401F9D0E03400FAD0E0FB96
:10021E00E50A0460DCD50AD980877BFF7A0379363C
:10022E00D20F809C791080027908C213C215800803
:10023E00D2D5790A8004790AC2D5E50A047002F58E
:10024E000AE4FAFDFEFF12009EFC7B08200E13123C
:10025E00009EFD7B10300D0A12009EFE12009EFFC6
:10026E007B20EC3382D592D55013C3E4300D069F1C
:10027E00FFE49EFEE4200E039DFDE49CFCE4CBF81F
:10028E00C20EEC700CCFCECDCCE824F8F870F38013
:10029E0017C3EF33FFEE33FEED33FDEC33FCEB33E0
:1002AE00FB994002FB0FD8E9EB300E05F8D0E0C405
:1002BE0048B20EC0E00AEC4D4E4F78207B0070C263
:1002CE00EAB50A0040BCC0E012033CD0F0D0E020FA
:1002DE000E04C4C0E0C4B20EC0F01200CAD0F0D5F5
:1002EE00F0EB02011B1206AD01B853023258018920
:1002FE004C01854202364F023E44023E49019E4366
:08030E000244550228460228B2
:100316004502284703E450018D2D01912E01B42B8F
:1003260001952301B22003CD2A014D48000001ACFE
:100336003F3F3F00790AA2D5201014301209B910A8
:10034600020404B9080104A2D520130250010420B6
:100356000F68920FB509005034C0E07F20301019A5
:100366007F30A20F72137212500F120393C20FC284
:1003760013C212C2157F30800F301203E9C0E0129B
:1003860000E1301203D0E0F9D0E0B509CC30121705
:100396007F30B9100C1200E17F583011077F78804A
:1003A60003B908031200E1300F057F2D0200E17F3B
:1003B600202015F87F2B2013F322920F80CF286E72
:1003C600756C6C2900D20E12009E300EF8C20E78A3
:1003D6000930D50108F602014D2D50434958120047
:1003E6009E2403B405004001E49003DF931200D27B
:0D03F600743A1200D2D210750904020232CE
:10064E00BB010CE58229F582E5833AF583E0225061
:10065E0006E92582F8E622BBFE06E92582F8E222AB
:0D066E00E58229F582E5833AF583E49322C5
:10067B00BB010689828A83F0225002F722BBFE015E
:02068B00F32258
:10068D00F8E0FBA3A3E0F925F0F0E58215827002F6
:07069D001583E0FA38F0229A
:0906A400EBF0A3EAF0A3E9F02257
:1006AD00D083D082F8E4937012740193700DA3A3DC
:1006BD0093F8740193F5828883E4737402936860F0
:0606CD00EFA3A3A380DFF0
:00000001FF
