:03000000020AC62B
:0C0AC600787FE4F6D8FD758122020B0D4C
:0C14B700759D27E4F5BDF5BE75BCA022B4
:10119D00E4FDFCEF1444A842BCE5BC30E4FB53BCB9
:1011AD00EFAFBEAD07AFBDEF75F004A4FFE5F0FCEA
:0511BD00ED4FAE04FF40
:0111C200220A
:10122700D3EF9400EE9400401600000075080B758C
:0F12370009BED509FDD508FAEF1F70E41E80E14E
:011246002285
:10146500D3EF9400EE9400400A000000EF1F70F0E7
:041475001E80ED22C6
:0D000E00E4F5C7F5C5F5C675C380F5C4223D
:1012A40075C78375C5018FC4EEF5C375C65A75C677
:0D12B400A57F0A7E00121227AFC202000EB5
:1012470075C78375C5028FC4EEF5C3AF058FC27529
:0F125700C65A75C6A57F0A7E0012122702000E26
:1012DE0075C78375C5038FC4EEF5C375C65A75C63B
:0B12EE00A57F0A7E0012122702000EEE
:1011E500E49000F4F0A3F0FFFE1212DE9000F4E0AC
:1011F500FEA3E0FF900141E0FD121247C201C2CCFF
:0112050022C6
:100CDD00900139E090013CF0A215E433A3F09001AE
:100CED0043E090013EF0900142E090013FF0900111
:100CFD0044E0900140F0900141E075F002A47F00C6
:100D0D00FE9000F6F0A3EFF01212DEE49000F5F085
:100D1D009000F5E0FDC39405502BA3E0FEA3E0FF8A
:100D2D00743C2DF582E43401F583E0FD12124790F9
:100D3D0000F7E004F070069000F6E004F09000F586
:090D4D00E004F080CBC201C2CC2D
:010D5600227A
:100F3400E4FFFE1212A4900141EFF0120E3BA20254
:100F4400920A121314D20A12139BA215920A1213B4
:100F54002F900142E0FF1206C8900139E0FF120809
:0C0F6400B6900143E0FF1200260210A32B
:100E3B00EF75F002A49000F5F0A3E4F09000F4F04D
:100E4B009000F5E0FEA3E0FF1212A49000F4E02462
:100E5B003CF582E43401F583EFF09000F6E004F00A
:100E6B0070069000F5E004F09000F4E004F0E0C3AD
:100E7B00940540CC90013CE0900139F090013DE0AD
:100E8B0024FF9215A3E0900143F090013FE0900105
:0A0E9B0042F0900140E0900144F0A5
:010EA500222A
:10126600759420E4F593759280F59175967FF595C2
:0F127600F5B2F5B175B41CF5B375CA10F5C92200
:1004030060F20000011A0123012C0135013E01476E
:100413000151015A0164016E01770181018B01943D
:10042300019E01A801B201BC01C601CF01D901E3BC
:1004330001ED01F60200020A0213021D0226022F39
:1004430002380242024B0254025C0265026E0276DB
:10045300027F0287028F0297029F02A702AF02B6B2
:1004630002BE02C502CC02D302DA02E102E702EEC7
:1004730002F402FB03010307030D03120318031D18
:1004830003230328032D03320337033C03410345AE
:10049300034A034E03520356035A035E0362036681
:1004A300036A036D037103740378037B037E038183
:1004B30003840387038A038D038F039203950397B2
:1004C3000399039C039E03A003A303A503A703A906
:1004D30003AB03AD03AF03B103B203B403B603B875
:1004E30003B903BB03BC03BE03BF03C103C203C4FD
:0604F30003C503C603C7A8
:0E0C5C009000F9EBF0A3EAF0A3E9F0A3EDF0AD
:100C6A00E4900100F09000FFF09000FCE014FF9087
:100C7A0000FFE0FEC39F50559000F9E0FBA3E0FAA5
:100C8A00A3E0F975F002EEA4F58285F08312060B53
:100C9A00FF9000FDE0FCA3E0FDC39FEC95F040252A
:100CAA00A3E02401FFE433FEEF25E0FFEE33FE8FDD
:100CBA00828E8312060BFFC3ED9FEC95F0500690CF
:100CCA0000FFE0A3F09000FFE004F0809C90010098
:020CDA00E0FF39
:010CDC0022F5
:050D57009000F4EFF034
:100D5C009000F6740AF0E4A3F0A3F09000F5F09084
:100D6C0000F6E0FF9000F5E0C39F501C9000F4E00B
:100D7C00FF12119D9000F8E02FF09000F7E03EF08C
:100D8C009000F5E004F080D79000F7E0FEA3E0FFC0
:100D9C009000F6E0FD7C001205A0A3EEF0A3EFF0AE
:100DAC007B017A0079009000F7E0FFA3E09000FD52
:0C0DBC00CFF0A3EFF07D79120C5C7E00FC
:010DC8002208
:1011C30075F10890FFF2740BF090FFF07410F0A328
:1011D300E4F090FF30F0A3F0A3F0A3740AF0A3E4CB
:0211E300F022F8
:1012F9009000F4EEF0A3EFF01200069000F4E0FF86
:0B130900A3E090FF32CFF0A3EFF02232
:0400060075F58822E2
:0914D800E4F5F57F0AFE0212F9A9
:100EA60030034AEFB407005044900EB6F828287372
:100EB600020ECB020ECE020ED4020EDA020EE002B3
:100EC6000EE6020EEC0214D87FD07E07801C7F60EF
:100ED6007E0980167FF07E0A80107F807E0C800A55
:0E0EE6007F107E0E80047FA07E0F1212F92274
:1004F900C108C109C105C181C187C104C106C18241
:10050900C183C1004101390142013AE4204101326C
:1005190000410133004101340041013500410136F8
:09052900004101370041013800D6
:10147900438E805389F0758CCD758AD4C28DD28CF8
:03148900D2A922C3
:0A14CE00538EBF53890F438910228B
:10148C0053D1FDE4F5D575D4DC43D10843AF20220C
:03000300021045A3
:10104500C0E0C083C082C0D075D000C006D2A2D295
:10105500A1D29790013AE0FEA3E0F58BEEF58DD293
:1010650005D28ED2ABD006D0D0D082D083D0E0329C
:03000B0002000AE6
:01000A0032C3
:03001B00020B5283
:100B5200C0E0C0F0C083C082C0D030056430026102
:100B6200900139E014B40700504D900B7A75F003F0
:100B7200A4C58325F0C58373020B8F020B97020B6A
:100B82009B020B9F020BA7020BAB020BB3C297D2C5
:100B9200A1D2A28022D2978006D297800EC297C29B
:100BA200A1D2A28012D297800AC297D2A1C2A280F9
:100BB20006C297C2A1C2A2C205758BF7758DFF80CE
:100BC2000AD2A2D2A1D297C28EC2ABD0D0D082D04A
:060BD20083D0F0D0E032F8
:03009B00020A2135
:080A2100C0E0C083C082C0D018
:100A2900900137E004F0E0D3940F4004B208E4F0F9
:100A3900900138E004F0E0D394324004B209E4F0C4
:100A4900900134E004F0E0D39405400AE4F0E58035
:100A5900540F900145F0301410900135E004F0E096
:100A6900D394964004C214E4F0301310900136E098
:100A790004F0E0D394964004C213E4F020011290EC
:100A89000132E004F0E0D3940A4006E4F0D201D246
:100A9900CC300712900133E004F0E0D3940A400609
:100AA900D204C207E4F0208704D206D200308704BA
:040AB900C206C200AF
:090ABD00D0D0D082D083D0E03209
:1012C100300204D2AB8002C2ABEF75F040A42420FF
:0D12D100FEE5F034E490013AF0A3CEF022E7
:10143B00759850438E01438E0475D7E875D6FF43DC
:05144B008E10D2AC225E
:030023000214AA1A
:0D14AA00309904C299C217309802C29832DE
:0814E1002017FDD2178F99229C
:10101200900146EBF0A3EAF0A3E9F0900146E0FB71
:10102200A3E0FAA3E0F91205876017900146A3E452
:1010320075F0011205F5A9F0FA120587FF1214E105
:0310420080D92230
:0814E9008F993099FDC2992290
:1005320041012100410122004101230041012E001D
:1005420041012F00410130004101310047011AC32E
:10055200C6C7CACBCECF4A0124F505D39727B6F634
:0305620015F7B7D3
:10140700D2B6D2C1D2B7E4FF1210D0D2B67F4412FF
:0A14170010D0D2B61210750214F1C5
:10107500E49000F4F09000F4E0FFC39407501E7470
:101085001A2FF582E43401F583E0FF1210D0E4FF56
:0D1095001210D0D2B69000F4E004F080D824
:0110A200222B
:0814F1007F931210D0D2B62245
:0714210090011EE0FFE4FD55
:101428009000F6EDF01210D09000F6E0FF1210D008
:03143800D2B62207
:0510D0009000F7EFF0B5
:1010D5007F327E00121465C2B6E4FFC2C19000F7EC
:1010E500E0FE1392B7D2C1EEC313F00FEFB408EBD5
:0710F5007F327E000214654A
:0606C8009000F5EFF0F9CF
:1006CE00E0FF75F06484FDEF75F00A8475F00A841E
:1006DE00AFF0E975F00A84AEF090012FE4F09001CE
:1006EE002EE4F0900123E4F0900122E4F090012F2B
:1006FE00E0FC74242DF582E43401F583E0FBC45450
:10070E000FFAEC4A90012FF090012EE04BF0900181
:10071E0023E0FD74242FF582E43401F583E0FFED30
:10072E004F900123F0900122E0FF74242EF582E415
:10073E003401F583E0FEEF4E900122F0E9C3940AF6
:10074E00501A9000F5E0C39400401112142190014C
:10075E001D12142490011CE0FFE480479000F5E088
:10076E00FFC39464501AEFC3940A401412142190DC
:10077E00011D12142490011CE0FF900123E0802340
:10078E0090011EE0FF90012FE0FD12142890011D34
:10079E00E0FF90012EE0FD12142890011CE0FF9066
:1007AE000123E0FD12142890011BE0FF900122E0CE
:0407BE00FD121428EC
:0107C2002214
:10002600AD07900131E05430F0EFB407005057901F
:10003600003CF828287302005102005802006102B1
:10004600006A02007302007C020085900131E0F034
:100056008034900131E04440F0802B900131E0443F
:10006600C0F08022900131E044C8F080199001313F
:10007600E044CCF08010900131E044CEF08007904F
:100086000131E044CFF0900120E0FF900131E0FD26
:0300960002142829
:1008B600AD07900130E05480F090012FE4F0ED1484
:1008C600B40700400302095F9008DC75F003A4C575
:1008D6008325F0C583730208F1020901020911029A
:1008E6000921020931020941020951900130E0440F
:1008F60004F090012FE04440F0805E900130E04427
:1009060002F090012FE04420F0804E900130E04448
:1009160001F090012FE04410F0803E900130E04459
:1009260006F090012FE04460F0802E900130E04404
:1009360003F090012FE04430F0801E900130E04437
:1009460005F090012FE04450F0800E900130E04415
:1009560007F090012FE04470F090011FE0FF900136
:1009660030E0FD12142890011EE0FF90012FE0FDFB
:0309760002142840
:10131400900130E054F7F0300A04E04408F0900102
:0B1324001FE0FF900130E0FD021428E4
:10132F00900121E054EFF0300A04E04410F09001F6
:0B133F001AE0FF900121E0FD021428DD
:10134A00900121E054DFF0300A04E04420F09001DB
:0B135A001AE0FF900121E0FD021428C2
:10136500900121E054BFF0300A04E04440F09001C0
:0B1375001AE0FF900121E0FD021428A7
:10138000900121E0547FF0300A04E04480F09001A5
:0B1390001AE0FF900121E0FD0214288C
:10139B00900122E054F7F0300A04E04408F0900189
:0B13AB001BE0FF900122E0FD0214286F
:1013B600900131E054DFF0300A04E04420F090015F
:0B13C60020E0FF900131E0FD02142840
:1013D100900130E054EFF0300A04E04410F0900145
:0B13E1001FE0FF900130E0FD02142827
:1013EC00900131E054EFF0300A04E04410F0900129
:0B13FC0020E0FF900131E0FD0214280A
:10056500C196C115410143004101420041014100CD
:0C0575004101445041014500C114C11374
:10097900200403020A20900145E024FE601B24FEA6
:10098900604A14607A24FC607B24FC607C240C603F
:1009990003020A1C120FAA80739000F27464F0908B
:1009A9000145E0B402159000F2E0D39400400CE058
:1009B90014F07F0A7E0012122780E49000F2E070A2
:1009C900031207C320130312112680409000F37409
:1009D90064F0900145E0B404159000F3E0D394006D
:1009E900400CE014F07F0A7E0012122780E4900088
:1009F900F3E07003121450201403120DC9800D1274
:100A09000FDE800812114F80031211767F327E00AB
:070A1900121227D207C204EC
:010A200022B3
:10114F00900143E0FFC201C2CC0FD3EF64809486BD
:10115F0040027F06900143EFF0120EA6900143E08C
:07116F00FF120026020CDD57
:10117600900143E0FFC201C2CC1FC3EF648094809C
:101186005002E4FF900143EFF0120EA6900143E0F7
:07119600FF120026020CDD30
:100FAA00900142E0C201C2CC2405FFD3648094E4DC
:100FBA0040027F64900142EFF01212C1900142E0B8
:100FCA00FF1206C8900139E0FF1208B6D20A1213BE
:040FDA009B020CDD8D
:100FDE00900142E0C201C2CC24FBFFC36480948026
:100FEE005002E4FF900142EFF01212C1900142E074
:100FFE00FF1206C8900139E0FF1208B6D20A12138A
:04100E009B020CDD58
:10112600C201C2CC900139E0B407057401F0800613
:10113600900139E004F0900139E0FF1208B6300260
:0911460005D20A121314020CDD9B
:1007C300E49000F4F0900144E09000F4F0C201C220
:1007D300CC7FF47E01020889900145E06402700336
:1007E30002088F30090D900144E0FF1206C8D20AB7
:1007F300121365A209B3502D90011EE0FFE4FD1210
:10080300142890011DE0FFE4FD12142890011CE060
:10081300FFE4FD12142890011BE0FFE4FD121428ED
:10082300D20A121365900145E0B4012EC201C2CC75
:100833009000F4E02405F0E0FF3395E0FED3EF945D
:10084300C8EE64809480400374C8F09000F4E09094
:100853000144F07F647E00121227900145E0640595
:1008630060030207DBC201C2CC9000F4E024FBF07A
:10087300E0C3648094805002E4F09000F4E09001BF
:1008830044F07F647E001212270207DBD21390012B
:1008930042E0FF1206C8900139E0FF1208B6C20A0F
:1008A300121365D20A12139B300205D20A121314D3
:0308B300020CDD57
:100DC900C201C2CC900141E004F0E0B40603740111
:100DD900F0121075C20A12139BD20A1213809001E5
:100DE90041E0FF1206C8900141E0FF120E3B7FF47B
:100DF9007E01121227121075C20A121380A215B3AE
:100E0900920A121314A215920A12132F900142E0AA
:100E1900FF1206C8900139E0FF1208B6D20A121370
:100E29009B900143E0FF1200261210A3120EF40258
:020E390011E5C1
:10145000C201C2CCD214B215A215920A12132F12D5
:0514600010A3020CDDE9
:1010FC00D20A1213B6300317900143E0D394004088
:10110C000EA208920A1213D1A208B3920A8007D237
:0A111C000A1213D1C20A1213EC22CA
:0E149C00300408900145E07002FF227F01221B
:100F70003004369000F27464F0900145E0701590F2
:100F800000F2E0D39400400CE014F07F0A7E0012DF
:100F9000122780E59000F2E0700F121075C202C2B5
:090FA0000A1213141214D8D2161F
:010FA9002225
:050581004201490000E9
:1010A300301511300602800CC202C20A1213141248
:1010B30014D88009D202D20A121314D20390014227
:0D10C300E0FF1212C1900143E0FF020EA6F3
:0B14C300C2A6C2A5C2A4C2C4C2C322BC
:10120600A200E433FF900149E07003A3E06F601091
:101216001210A3A200E4FF33900149CFF0A3EFF030
:0112260022A5
:100EF4007F06120D5790014BEFF0900144E0FEEF96
:100F0400C39E4007D20A12134AD285900144E0FFDF
:100F140090014BE0C39F5017201507C20A12134AD1
:0F0F2400C28530150A300607C20A12134AC28569
:010F3300229B
:101285003D3D3D3D3D3D3D3D20636F6465207374AF
:0F129500617274203D3D3D3D3D3D3D3D0D0A00E4
:100BD80043BA801212661214B712143B1214791217
:100BE80014CE12148CD288D2A8D2AFC2C2C2A31219
:100BF80011C3C2851214D87BFF7A127985120109B4
:100C08007FE87E0312122730160A12149CEF24FF85
:100C1800921680F3C2A01214C3121407120F34D212
:100C28000A12139B300205D20A121314C201C2CC55
:100C38001209791210FC121206120EF4120F7030FB
:100C480016EEC201C2CCD2A6D2A5D2A4D2C4D2C3B7
:040C5800D2A080ACFA
:100AD200020BD8E493A3F8E493A34003F68001F257
:100AE20008DFF48029E493A3F85407240CC8C33325
:100AF200C4540F4420C8834004F456800146F6DFF4
:100B0200E4800B0102040810204080900403E47E7C
:100B1200019360BCA3FF543F30E509541FFEE493E8
:100B2200A360010ECF54C025E060A840B8E493A3AF
:100B3200FAE493A3F8E493A3C8C582C8CAC583CADA
:100B4200F0A3C8C582C8CAC583CADFE9DEE780BE92
:010586000074
:10058700BB010689828A83E0225002E722BBFE0272
:09059700E32289828A83E49322A5
:1005A000BC000BBE0029EF8DF084FFADF022E4CC3F
:1005B000F875F008EF2FFFEE33FEEC33FCEE9DEC08
:1005C000984005FCEE9DFE0FD5F0E9E4CEFD22ED4E
:1005D000F8F5F0EE8420D21CFEADF075F008EF2F98
:1005E000FFED33FD4007985006D5F0F222C398FD89
:0505F0000FD5F0EA2226
:1005F500A3F8E0C5F025F0F0E582158270021583B9
:06060500E0C838F0E82215
:10060B00BB0110E58229F582E5833AF583E0F5F02D
:10061B00A3E0225009E92582F886F008E622BBFE0A
:10062B000AE92582F8E2F5F008E222E5832AF58350
:08063B00E993F5F0A3E9932215
:10009E00E50824F5F582E43400F583E005082290A6
:1000AE0000F23011039000F5E475F00112068202A1
:1000BE000587200AE97F2ED20A8018EF540F24906C
:1000CE00D43440D4FF300E0BEF24BFB41A005003CB
:1000DE002461FFE50960021509050CE50C700205A7
:1000EE000B30110E9000F2E475F001120682EF0251
:1000FE0006700214E97403D2118003E4C211F508EC
:10010E009000F2120699E4F509F50BF50CE509607D
:10011E00077F201200E180F5750AFFC20BC20AC2EA
:10012E000CC20DC20FC210C2121200ADFF700D3004
:10013E0011057F001200F2AF0CAE0B22B4255FC288
:10014E00D5C20E1200ADFF24D0B40A00501A75F0BD
:10015E000A780930D50508B6FF0106C6A426F62092
:10016E00D5047002D20D80D924CFB41A00EF5004FA
:10017E00C2E5D20E0202F3D20B80C6D20A80C0D2E2
:10018E000C80BCD2D580BAD20F80B47F201200E191
:10019E00200C077401B5090040F112009EFF1200F9
:1001AE00E102011BD212D210809512009EFB1200AA
:1001BE009EFA12009EF94A4B700679C47A037BFFB1
:1001CE00200C2EE509602A7E008E827583001206B1
:1001DE004360060EEE650A70F0C2D5EBC0E0EAC0D1
:1001EE00E0E9C0E0EE12033AD0E0F9D0E0FAD0E058
:1001FE00FB120587FF60AAEBC0E0EAC0E0E9C0E0B1
:10020E001200E1D0E02401F9D0E03400FAD0E0FB96
:10021E00E50A0460DCD50AD980877BFF7A0379363C
:10022E00D20C809C791080027908C210C21280080C
:10023E00D2D5790A8004790AC2D5E50A047002F58E
:10024E000AE4FAFDFEFF12009EFC7B08200B13123F
:10025E00009EFD7B10300A0A12009EFE12009EFFC9
:10026E007B20EC3382D592D55013C3E4300A069F1F
:10027E00FFE49EFEE4200B039DFDE49CFCE4CBF822
:10028E00C20BEC700CCFCECDCCE824F8F870F38016
:10029E0017C3EF33FFEE33FEED33FDEC33FCEB33E0
:1002AE00FB994002FB0FD8E9EB300B05F8D0E0C408
:1002BE0048B20BC0E00AEC4D4E4F78207B0070C266
:1002CE00EAB50A0040BCC0E012033CD0F0D0E020FA
:1002DE000B04C4C0E0C4B20BC0F01200CAD0F0D5FB
:1002EE00F0EB02011B1206A201B85302325801892B
:1002FE004C01854202364F023E44023E49019E4366
:08030E000244550228460228B2
:100316004502284703E450018D2D01912E01B42B8F
:1003260001952301B22003CD2A014D48000001ACFE
:100336003F3F3F00790AA2D5200D14300F09B910AE
:10034600020404B9080104A2D520100250010420B9
:100356000C68920CB509005034C0E07F20300D19AE
:100366007F30A20C7210720F500F120393C20CC290
:1003760010C20FC2127F30800F300F03E9C0E012A7
:1003860000E1300F03D0E0F9D0E0B509CC300F170B
:100396007F30B9100C1200E17F58300E077F78804D
:1003A60003B908031200E1300C057F2D0200E17F3E
:1003B600202012F87F2B2010F322920C80CF286E7B
:1003C600756C6C2900D20B12009E300BF8C20B78AC
:1003D6000930D50108F602014D2D50434958120047
:1003E6009E2403B405004001E49003DF931200D27B
:0D03F600743A1200D2D20D750904020232D1
:10064300BB010CE58229F582E5833AF583E022506C
:1006530006E92582F8E622BBFE06E92582F8E222B6
:0D066300E58229F582E5833AF583E49322D0
:10067000BB010689828A83F0225002F722BBFE0169
:02068000F32263
:10068200F8E0FBA3A3E0F925F0F0E5821582700201
:070692001583E0FA38F022A5
:09069900EBF0A3EAF0A3E9F02262
:1006A200D083D082F8E4937012740193700DA3A3E7
:1006B20093F8740193F5828883E4737402936860FB
:0606C200EFA3A3A380DFFB
:00000001FF
