:03000000020BE50B
:0C0BE500787FE4F6D8FD758123020C2C0B
:0C15BF00759D27E4F5BDF5BE75BCA022AB
:10128300E4FDFCEF1444A842BCE5BC30E4FB53BCD2
:10129300EFAFBEAD07AFBDEF75F004A4FFE5F0FC03
:0512A300ED4FAE04FF59
:0112A8002223
:10132F00D3EF9400EE9400401600000075080B7583
:0F133F0009BED509FDD508FAEF1F70E41E80E145
:01134E00227C
:10156D00D3EF9400EE9400400A000000EF1F70F0DE
:04157D001E80ED22BD
:0D000E00E4F5C7F5C5F5C675C380F5C4223D
:1013AC0075C78375C5018FC4EEF5C375C65A75C66E
:0D13BC00A57F0A7E0012132FAFC202000EA3
:10134F0075C78375C5028FC4EEF5C3AF058FC27520
:0F135F00C65A75C6A57F0A7E0012132F02000E14
:1013E60075C78375C5038FC4EEF5C375C65A75C632
:0B13F600A57F0A7E0012132F02000EDC
:1012ED00E49000F5F0A3F0FFFE1213E69000F5E098
:1012FD00FEA3E0FF900145E0FD12134FC202C2CCE8
:01130D0022BD
:100D780090013CE0900140F0A219E433A3F0900107
:100D880047E0900142F0900146E0900143F0900165
:100D980048E0900144F0900145E075F002A47F001E
:100DA800FE9000F7F0A3EFF01213E6E49000F6F0DF
:100DB8009000F6E0FDC39405502BA3E0FEA3E0FFEE
:100DC80074402DF582E43401F583E0FD12134F9051
:100DD80000F8E004F070069000F7E004F09000F6E8
:090DE800E004F080CBC202C2CC91
:010DF10022DF
:10101900E4FFFE1213AC900145EFF0120EDAA203C1
:10102900920E12141CD20E1214A3A219920E1214AB
:1010390037900146E0FF1206D990013CE0FF120A01
:0C10490072900147E0FF120026020FDB4E
:100EDA00EF75F002A49000F6F0A3E4F09000F5F0AC
:100EEA009000F6E0FEA3E0FF1213AC9000F5E024B8
:100EFA0040F582E43401F583EFF09000F7E004F066
:100F0A0070069000F6E004F09000F5E004F0E0C30B
:100F1A00940540CC900140E090013CF0900141E002
:100F2A0024FF9219A3E0900147F0900143E0900159
:0A0F3A0046F0900144E0900148F0F9
:010F4400228A
:10136E00759420E4F593759280F59175967FF595B9
:0F137E00F5B2F5B175B41CF5B375CA10F5C922F7
:1004030060F20000011A0123012C0135013E01476E
:100413000151015A0164016E01770181018B01943D
:10042300019E01A801B201BC01C601CF01D901E3BC
:1004330001ED01F60200020A0213021D0226022F39
:1004430002380242024B0254025C0265026E0276DB
:10045300027F0287028F0297029F02A702AF02B6B2
:1004630002BE02C502CC02D302DA02E102E702EEC7
:1004730002F402FB03010307030D03120318031D18
:1004830003230328032D03320337033C03410345AE
:10049300034A034E03520356035A035E0362036681
:1004A300036A036D037103740378037B037E038183
:1004B30003840387038A038D038F039203950397B2
:1004C3000399039C039E03A003A303A503A703A906
:1004D30003AB03AD03AF03B103B203B403B603B875
:1004E30003B903BB03BC03BE03BF03C103C203C4FD
:0604F30003C503C603C7A8
:0E0CF7009000FAEBF0A3EAF0A3E9F0A3EDF011
:100D0500E4900101F0900100F09000FDE014FF90E7
:100D15000100E0FEC39F50559000FAE0FBA3E0FA06
:100D2500A3E0F975F002EEA4F58285F08312061CA6
:100D3500FF9000FEE0FCA3E0FDC39FEC95F040258D
:100D4500A3E02401FFE433FEEF25E0FFEE33FE8F41
:100D5500828E8312061CFFC3ED9FEC95F050069022
:100D65000100E0A3F0900100E004F0809C900101F7
:020D7500E0FF9D
:010D77002259
:050E68009000F5EFF021
:100E6D009000F7740AF0E4A3F0A3F09000F6F09070
:100E7D0000F7E0FF9000F6E0C39F501C9000F5E0F6
:100E8D00FF1212839000F9E02FF09000F8E03EF091
:100E9D009000F6E004F080D79000F8E0FEA3E0FFAC
:100EAD009000F7E0FD7C001205B1A3EEF0A3EFF08A
:100EBD007B017A0079009000F8E0FFA3E09000FE3E
:0C0ECD00CFF0A3EFF07D79120CF77E004F
:010ED90022F6
:1012A90075F10890FFF2740BF090FFF07410F0A341
:1012B900E4F090FF30F0A3F0A3F0A3740AF0A3E4E4
:0212C900F02211
:101401009000F5EEF0A3EFF012001E9000F5E0FF62
:0B141100A3E090FF32CFF0A3EFF02229
:04001E0075F58822CA
:0615F800E4F5F5D2A32288
:100F450030044AEFB407005044900F55F828287331
:100F5500020F6A020F6D020F73020F79020F7F02F3
:100F65000F85020F8B0215F87FD07E07801C7F60EE
:100F75007E0980167FF07E0A80107F807E0C800AB5
:0E0F85007F107E0E80047FA07E0F12140122CA
:1004F900C10CC10DC106C182C18BC105C10AC1832D
:10050900C100C184C101C107C108C10941013C0140
:1005190042013EE42041013D0041013300410134E3
:1005290000410135004101360041013700410138E0
:0A053900004101390042013A0000C0
:10158100538E7F5389F0758AF4758CFFC28DD28C8E
:03159100D2A922BA
:0A15D600538EBF53890F4389102282
:1015940053D1FDE4F5D575D4DC43D10843AF202203
:0300030002112ABD
:10112A00C0E0C083C082C0D075D000C006D2A2D2AF
:10113A00A1D29790013EE0FEA3E0F58BEEF58DD2A9
:10114A0006D28ED2ABD006D0D0D082D083D0E032B5
:03000B0002115A85
:10115A00C0E0C083C082C0D020960E90013DE0045A
:10116A00F0E0B46404C20AC20130960990013DE479
:0E117A00F0D20AD201D0D0D082D083D0E032A1
:03001B00020C7163
:100C7100C0E0C0F0C083C082C0D0300664300361E0
:100C810090013CE014B40700504D900C9975F003AD
:100C9100A4C58325F0C58373020CAE020CB6020C09
:100CA100BA020CBE020CC6020CCA020CD2C297D206
:100CB100A1D2A28022D2978006D297800EC297C27B
:100CC100A1D2A28012D297800AC297D2A1C2A280D9
:100CD10006C297C2A1C2A2C206758BF7758DFF80AD
:100CE1000AD2A2D2A1D297C28EC2ABD0D0D082D02A
:060CF10083D0F0D0E032D8
:03009B000209A1B6
:0809A100C0E0C083C082C0D099
:1009A90030072A30082790013BE004F070069001D7
:1009B9003AE004F090013AE0B40512A3E0B4DC0D8A
:1009C90090013AE4F0A3F0C207C208D209A2088252
:1009D90007400790013AE4F0A3F0900138E004F0F1
:1009E900E0D3940F4004B20CE4F0900139E004F034
:1009F900E0D394324004B20DE4F0900135E004F004
:100A0900E0D39405400AE4F0E580540F900149F0E1
:100A1900301810900136E004F0E0D394964004C2F7
:100A290018E4F0301710900137E004F0E0D3949601
:100A39004004C217E4F0200212900133E004F0E010
:100A4900D3940A4006E4F0D202D2CC300B129001C2
:100A590034E004F0E0D3940A4006D205C20BE4F076
:090A6900D0D0D082D083D0E0325D
:1013C900300304D2AB8002C2ABEF75F040A42420F5
:0D13D900FEE5F034E490013EF0A3CEF022DA
:10154300759850438E01438E0475D7E875D6FF43D3
:051553008E10D2AC2255
:030023000215B211
:0D15B200309904C299C21B309802C29832D1
:0815E000201BFDD21B8F992294
:1010F70090014AEBF0A3EAF0A3E9F090014AE0FB84
:10110700A3E0FAA3E0F9120598601790014AA3E457
:1011170075F001120606A9F0FA120598FF1215E0FC
:0311270080D9224A
:0815E8008F993099FDC2992290
:1005430041012200410123004101240041012F0008
:1005530041013000410131004101320047011BC319
:10056300C6C7CACBCECF4A0125F505D39727B6F622
:0305730015F7B7C2
:10150F00D2B6D2C1D2B7E4FF1211B6D2B67F44120F
:0A151F0011B6D2B61211880215F0C1
:10118800E49000F5F09000F5E0FFC39407501E745A
:101198001B2FF582E43401F583E0FF1211B6E4FF5A
:0D11A8001211B6D2B69000F5E004F080D828
:0111B5002217
:0815F0007F931211B6D2B6225E
:0715290090011FE0FFE4FD4B
:101530009000F7EDF01211B69000F7E0FF1211B62F
:03154000D2B622FE
:0511B6009000F8EFF0CD
:1011BB007F327E0012156DC2B6E4FFC2C19000F8FB
:1011CB00E0FE1392B7D2C1EEC313F00FEFB408EBEE
:0711DB007F327E0002156D5A
:0606D9009000F6EFF0F9BD
:1006DF00E0FF75F06484FDEF75F00A8475F00A840D
:1006EF00AFF0E975F00A84AEF0900130E4F09001BC
:1006FF002FE4F0900124E4F0900123E4F090013016
:10070F00E0FC74252DF582E43401F583E0FBC4543D
:10071F000FFAEC4A900130F090012FE04BF090016E
:10072F0024E0FD74252FF582E43401F583E0FFED1D
:10073F004F900124F0900123E0FF74252EF582E401
:10074F003401F583E0FEEF4E900123F0E9C3940AE4
:10075F00501A9000F6E0C394004011121529900131
:10076F001E12152C90011DE0FFE480479000F6E06B
:10077F00FFC39464501AEFC3940A401412152990C2
:10078F00011E12152C90011DE0FF900124E0802323
:10079F0090011FE0FF900130E0FD12153090011E17
:1007AF00E0FF90012FE0FD12153090011DE0FF904A
:1007BF000124E0FD12153090011CE0FF900123E0B1
:0407CF00FD121530D2
:0107D3002203
:10002600AD07900132E05430F0EFB407005057901E
:10003600003CF828287302005102005802006102B1
:10004600006A02007302007C020085900132E0F033
:100056008034900132E04440F0802B900132E0443D
:10006600C0F08022900132E044C8F080199001323D
:10007600E044CCF08010900132E044CEF08007904E
:100086000132E044CFF0900121E0FF900132E0FD23
:0300960002153020
:100A7200AD07900131E05480F0900130E4F0ED14C4
:100A8200B407004003020B1B900A9875F003A4C53B
:100A92008325F0C58373020AAD020ABD020ACD02A4
:100AA2000ADD020AED020AFD020B0D900131E0445B
:100AB20004F0900130E04440F0805E900131E04467
:100AC20002F0900130E04420F0804E900131E04489
:100AD20001F0900130E04410F0803E900131E0449A
:100AE20006F0900130E04460F0802E900131E04445
:100AF20003F0900130E04430F0801E900131E04478
:100B020005F0900130E04450F0800E900131E04455
:100B120007F0900130E04470F0900120E0FF900176
:100B220031E0FD12153090011FE0FF900130E0FD31
:030B320002153079
:10141C00900131E054F7F0300E04E04408F09001F4
:0B142C0020E0FF900131E0FD021530D0
:10143700900122E054EFF0300E04E04410F09001E8
:0B1447001BE0FF900122E0FD021530C9
:10145200900122E054DFF0300E04E04420F09001CD
:0B1462001BE0FF900122E0FD021530AE
:10146D00900122E054BFF0300E04E04440F09001B2
:0B147D001BE0FF900122E0FD02153093
:10148800900122E0547FF0300E04E04480F0900197
:0B1498001BE0FF900122E0FD02153078
:1014A300900123E054F7F0300E04E04408F090017B
:0B14B3001CE0FF900123E0FD0215305B
:1014BE00900132E054DFF0300E04E04420F0900151
:0B14CE0021E0FF900132E0FD0215302C
:1014D900900131E054EFF0300E04E04410F0900137
:0B14E90020E0FF900131E0FD02153013
:1014F400900132E054EFF0300E04E04410F090011B
:0B15040021E0FF900132E0FD021530F5
:10057600C19AC119410147004101460041014500A8
:0C0586004101485041014900C118C11753
:100B3500200503020BE4900149E024FE601B24FE1E
:100B4500604A14607A24FC607B24FC607C240C6081
:100B550003020BD812108F80739000F37464F09029
:100B65000149E0B402159000F3E0D39400400CE095
:100B750014F07F0A7E0012132F80E49000F3E070DA
:100B8500031208BD20170312120C80409000F47464
:100B950064F0900149E0B404159000F4E0D39400AA
:100BA500400CE014F07F0A7E0012132F80E49000C1
:100BB500F4E07003121558201803120DF2800D127F
:100BC50010C38008121235800312125C7F327E003A
:0F0BD50012132F300305D20E12141CD20BC205BF
:010BE40022EE
:10123500900147E0FFC202C2CC0FD3EF64809486D1
:1012450040027F06900147EFF0120F45900147E0FD
:07125500FF120026020D78D4
:10125C00900147E0FFC202C2CC1FC3EF64809480B0
:10126C005002E4FF900147EFF0120F45900147E068
:07127C00FF120026020D78AD
:10108F00900146E0C202C2CC2405FFD3648094E4F1
:10109F0040027F64900146EFF01213C9900146E0C1
:1010AF00FF1206D990013CE0FF120A72D20E121401
:0410BF00A3020D7803
:1010C300900146E0C202C2CC24FBFFC3648094803B
:1010D3005002E4FF900146EFF01213C9900146E07D
:1010E300FF1206D990013CE0FF120A72D20E1214CD
:0410F300A3020D78CF
:10120C00C202C2CC90013CE0B407057401F0800628
:10121C0090013CE004F090013CE0FF120A723003B4
:09122C0005D20E12141C020D780B
:1008BD00E49000F5F0900148E09000F5F0C202C21E
:1008CD00CC7FF47E01020974900149E0640270034B
:1008DD0002097A300D0D900148E0FF1206D9D20EB3
:1008ED0012146DA20DB3502D90011FE0FFE4FD1207
:1008FD00153090011EE0FFE4FD12153090011DE052
:10090D00FFE4FD12153090011CE0FFE4FD121530DF
:10091D00D20E12146D900149E0B40123C202C2CC73
:10092D009000F5E02405F0E0D394C8400374C8F0BE
:10093D009000F5E0900148F07F647E0012132F9037
:10094D000149E064057081C202C2CC9000F5E0243B
:10095D00FBF0E0C3943250037432F09000F5E09058
:10096D000148F07F647E0012132F0208D5D2179034
:10097D000146E0FF1206D990013CE0FF120A72C257
:10098D000E12146DD20E1214A3300305D20E1214D2
:04099D001C020D78B3
:100DF200C202C2CC900145E004F0E0B406037401E3
:100E0200F0121188C20E1214A3D20E12148890018D
:100E120045E0FF1206D9900145E0FF120EDA7FF499
:100E22007E0112132F121188C20E121488A219B356
:100E3200920E12141CA219920E121437900146E05F
:100E4200FF1206D990013CE0FF120A72D20E121470
:100E5200A3900147E0FF120026C207C208120FDB6F
:060E6200120F930212EDD5
:10155800C202C2CCD218B219A219920E12143712B2
:051568000FDB020D780D
:1011E200D20E1214BE300417900147E0D39400408F
:1011F2000EA20C920E1214D9A20CB3920E8007D238
:0A1202000E1214D9C20E1214F422C9
:0E15A400300508900149E07002FF227F01220D
:101055003005369000F37464F0900149E070159006
:1010650000F3E0D39400400CE014F07F0A7E0012F8
:10107500132F80E59000F3E0700F121188C203C2B0
:091085000E12141C1215F8D21A07
:01108E00223F
:05000600686572650051
:0505920042014D0000D4
:100FDB00301922300A0FD203D20E12141CD204D2B3
:100FEB0007C2088019D208C203C20E12141CC20415
:100FFB001215F88009D203D20E12141CD2049001E0
:0E100B0046E0FF1213C9900147E0FF020F45B7
:1012CB0030070D30080AD204900147E0FF120F459A
:1012DB0030090E7BFF7A0079061201091215F8C24C
:0212EB000922D6
:0B15CB00C2A6C2A5C2A4C2C4C2C322B3
:10130E00A201E433FF90014DE07003A3E06F601083
:10131E00120FDBA201E4FF3390014DCFF0A3EFF0EB
:01132E00229C
:100F93007F06120E6890014FEFF0900148E0FEEFDC
:100FA300C39E400BD20E121452D285A20D92CC9046
:100FB3000148E0FF90014FE0C39F501B201909C275
:100FC3000E121452C285D2CC30190C300A09C20E4B
:070FD300121452C285D2CCBA
:010FDA0022F4
:10138D003D3D3D3D3D3D3D3D20636F6465207374A6
:0F139D00617274203D3D3D3D3D3D3D3D0D0A00DB
:1007D40043BA8012136E1215BF12154312158112FB
:1007E40015D6121594D288D2A8D2AFC2C2C2A3D24F
:1007F400CC1212A9C2851215F87BFF7A13798D12D7
:100804000109E4FFFE1213ACEF64016055EF6402CA
:100814006050EF6403604BEF64046046EF6405606E
:10082400419001457401F090013CF0D219900147C8
:100834007403F09001467432F09001487464F0122D
:1008440012ED9000F27401F09000F2E0FFC3940600
:100854005010900145EFF0120D789000F2E004F092
:1008640080E67FE87E0312132F301A0A1215A4EFD4
:1008740024FF921A80F3C2A01215CB12150F121086
:1008840019D20E1214A3300305D20E12141CC20284
:10089400C2CC120B351211E212130E120F93121066
:1008A400551212CB301AEBC202C2CCD2A6D2A5D2B8
:0908B400A4D2C4D2C3D2A080A9D1
:100BF1000207D4E493A3F8E493A34003F68001F23F
:100C010008DFF48029E493A3F85407240CC8C33304
:100C1100C4540F4420C8834004F456800146F6DFD3
:100C2100E4800B0102040810204080900403E47E5C
:100C3100019360BCA3FF543F30E509541FFEE493C8
:100C4100A360010ECF54C025E060A840B8E493A38F
:100C5100FAE493A3F8E493A3C8C582C8CAC583CABA
:100C6100F0A3C8C582C8CAC583CADFE9DEE780BE72
:010597000063
:10059800BB010689828A83E0225002E722BBFE0261
:0905A800E32289828A83E4932294
:1005B100BC000BBE0029EF8DF084FFADF022E4CC2E
:1005C100F875F008EF2FFFEE33FEEC33FCEE9DECF7
:1005D100984005FCEE9DFE0FD5F0E9E4CEFD22ED3D
:1005E100F8F5F0EE8420D21CFEADF075F008EF2F87
:1005F100FFED33FD4007985006D5F0F222C398FD78
:050601000FD5F0EA2214
:10060600A3F8E0C5F025F0F0E582158270021583A7
:06061600E0C838F0E82204
:10061C00BB0110E58229F582E5833AF583E0F5F01C
:10062C00A3E0225009E92582F886F008E622BBFEF9
:10063C000AE92582F8E2F5F008E222E5832AF5833F
:08064C00E993F5F0A3E9932204
:10009E00E50824F6F582E43400F583E005082290A5
:1000AE0000F33015039000F6E475F001120693028A
:1000BE000598200EE97F2ED20E8018EF540F249053
:1000CE00D43440D4FF30120BEF24BFB41A005003C7
:1000DE002461FFE50960021509050CE50C700205A7
:1000EE000B30150E9000F3E475F001120693EF023B
:1000FE0006810215E87403D2158003E4C215F508D3
:10010E009000F31206AAE4F509F50BF50CE509606B
:10011E00077F201200E180F5750AFFC20FC20EC2E2
:10012E0010C211C213C214C2161200ADFF700D30F0
:10013E0015057F001200F2AF0CAE0B22B4255FC284
:10014E00D5C2121200ADFF24D0B40A00501A75F0B9
:10015E000A780930D50508B6FF0106C6A426F62092
:10016E00D5047002D21180D924CFB41A00EF5004F6
:10017E00C2E5D2120202F3D20F80C6D20E80C0D2D6
:10018E001080BCD2D580BAD21380B47F201200E189
:10019E002010077401B5090040F112009EFF1200F5
:1001AE00E102011BD216D214809512009EFB1200A2
:1001BE009EFA12009EF94A4B700679C47A037BFFB1
:1001CE0020102EE509602A7E008E827583001206AD
:1001DE005460060EEE650A70F0C2D5EBC0E0EAC0C0
:1001EE00E0E9C0E0EE12033AD0E0F9D0E0FAD0E058
:1001FE00FB120598FF60AAEBC0E0EAC0E0E9C0E0A0
:10020E001200E1D0E02401F9D0E03400FAD0E0FB96
:10021E00E50A0460DCD50AD980877BFF7A0379363C
:10022E00D210809C791080027908C214C216800800
:10023E00D2D5790A8004790AC2D5E50A047002F58E
:10024E000AE4FAFDFEFF12009EFC7B08200F13123B
:10025E00009EFD7B10300E0A12009EFE12009EFFC5
:10026E007B20EC3382D592D55013C3E4300E069F1B
:10027E00FFE49EFEE4200F039DFDE49CFCE4CBF81E
:10028E00C20FEC700CCFCECDCCE824F8F870F38012
:10029E0017C3EF33FFEE33FEED33FDEC33FCEB33E0
:1002AE00FB994002FB0FD8E9EB300F05F8D0E0C404
:1002BE0048B20FC0E00AEC4D4E4F78207B0070C262
:1002CE00EAB50A0040BCC0E012033CD0F0D0E020FA
:1002DE000F04C4C0E0C4B20FC0F01200CAD0F0D5F3
:1002EE00F0EB02011B1206B301B85302325801891A
:1002FE004C01854202364F023E44023E49019E4366
:08030E000244550228460228B2
:100316004502284703E450018D2D01912E01B42B8F
:1003260001952301B22003CD2A014D48000001ACFE
:100336003F3F3F00790AA2D5201114301309B910A6
:10034600020404B9080104A2D520140250010420B5
:1003560010689210B509005034C0E07F20301119A2
:100366007F30A21072147213500F120393C210C280
:1003760014C213C2167F30800F301303E9C0E01297
:1003860000E1301303D0E0F9D0E0B509CC30131703
:100396007F30B9100C1200E17F583012077F788049
:1003A60003B908031200E13010057F2D0200E17F3A
:1003B600202016F87F2B2014F322921080CF286E6F
:1003C600756C6C2900D20F12009E300FF8C20F78A0
:1003D6000930D50108F602014D2D50434958120047
:1003E6009E2403B405004001E49003DF931200D27B
:0D03F600743A1200D2D211750904020232CD
:10065400BB010CE58229F582E5833AF583E022505B
:1006640006E92582F8E622BBFE06E92582F8E222A5
:0D067400E58229F582E5833AF583E49322BF
:10068100BB010689828A83F0225002F722BBFE0158
:02069100F32252
:10069300F8E0FBA3A3E0F925F0F0E58215827002F0
:0706A3001583E0FA38F02294
:0906AA00EBF0A3EAF0A3E9F02251
:1006B300D083D082F8E4937012740193700DA3A3D6
:1006C30093F8740193F5828883E4737402936860EA
:0606D300EFA3A3A380DFEA
:00000001FF
