:03000000020AB73A
:0C0AB700787FE4F6D8FD758122020AFE6B
:0C14B400759D27E4F5BDF5BE75BCA022B7
:10119A00E4FDFCEF1444A842BCE5BC30E4FB53BCBC
:1011AA00EFAFBEAD07AFBDEF75F004A4FFE5F0FCED
:0511BA00ED4FAE04FF43
:0111BF00220D
:10122400D3EF9400EE9400401600000075080B758F
:0F12340009BED509FDD508FAEF1F70E41E80E151
:011243002288
:10146200D3EF9400EE9400400A000000EF1F70F0EA
:041472001E80ED22C9
:0D000E00E4F5C7F5C5F5C675C380F5C4223D
:1012A10075C78375C5018FC4EEF5C375C65A75C67A
:0D12B100A57F0A7E00121224AFC202000EBB
:1012440075C78375C5028FC4EEF5C3AF058FC2752C
:0F125400C65A75C6A57F0A7E0012122402000E2C
:1012DB0075C78375C5038FC4EEF5C375C65A75C63E
:0B12EB00A57F0A7E0012122402000EF4
:1011E200E49000F4F0A3F0FFFE1212DB9000F4E0B2
:1011F200FEA3E0FF900141E0FD121244C201C2CC05
:0112020022C9
:100CD000900139E090013CF0A215E433A3F09001BB
:100CE00043E090013EF0900142E090013FF090011E
:100CF00044E0900140F0900141E075F002A47F00D3
:100D0000FE9000F6F0A3EFF01212DBE49000F5F095
:100D10009000F5E0FDC39405502BA3E0FEA3E0FF97
:100D2000743C2DF582E43401F583E0FD1212449009
:100D300000F7E004F070069000F6E004F09000F593
:090D4000E004F080CBC201C2CC3A
:010D49002287
:100F2F00E4FFFE1212A1900141EFF0120E2EA20269
:100F3F00920A121311D20A121398A215920A1213BF
:100F4F002C900142E0FF1206C8900139E0FF120811
:0C0F5F00A7900143E0FF12002602107072
:100E2E00EF75F002A49000F5F0A3E4F09000F4F05A
:100E3E009000F5E0FEA3E0FF1212A19000F4E02472
:100E4E003CF582E43401F583EFF09000F6E004F017
:100E5E0070069000F5E004F09000F4E004F0E0C3BA
:100E6E00940540CC90013CE0900139F090013DE0BA
:100E7E0024FF9215A3E0900143F090013FE0900112
:0A0E8E0042F0900140E0900144F0B2
:010E98002237
:10126300759420E4F593759280F59175967FF595C5
:0F127300F5B2F5B175B41CF5B375CA10F5C92203
:1004030060F20000011A0123012C0135013E01476E
:100413000151015A0164016E01770181018B01943D
:10042300019E01A801B201BC01C601CF01D901E3BC
:1004330001ED01F60200020A0213021D0226022F39
:1004430002380242024B0254025C0265026E0276DB
:10045300027F0287028F0297029F02A702AF02B6B2
:1004630002BE02C502CC02D302DA02E102E702EEC7
:1004730002F402FB03010307030D03120318031D18
:1004830003230328032D03320337033C03410345AE
:10049300034A034E03520356035A035E0362036681
:1004A300036A036D037103740378037B037E038183
:1004B30003840387038A038D038F039203950397B2
:1004C3000399039C039E03A003A303A503A703A906
:1004D30003AB03AD03AF03B103B203B403B603B875
:1004E30003B903BB03BC03BE03BF03C103C203C4FD
:0604F30003C503C603C7A8
:0E0C4F009000F9EBF0A3EAF0A3E9F0A3EDF0BA
:100C5D00E4900100F09000FFF09000FCE014FF9094
:100C6D0000FFE0FEC39F50559000F9E0FBA3E0FAB2
:100C7D00A3E0F975F002EEA4F58285F08312060B60
:100C8D00FF9000FDE0FCA3E0FDC39FEC95F0402537
:100C9D00A3E02401FFE433FEEF25E0FFEE33FE8FEA
:100CAD00828E8312060BFFC3ED9FEC95F0500690DC
:100CBD0000FFE0A3F09000FFE004F0809C900100A5
:020CCD00E0FF46
:010CCF002202
:050D4A009000F4EFF041
:100D4F009000F6740AF0E4A3F0A3F09000F5F09091
:100D5F0000F6E0FF9000F5E0C39F501C9000F4E018
:100D6F00FF12119A9000F8E02FF09000F7E03EF09C
:100D7F009000F5E004F080D79000F7E0FEA3E0FFCD
:100D8F009000F6E0FD7C001205A0A3EEF0A3EFF0BB
:100D9F007B017A0079009000F7E0FFA3E09000FD5F
:0C0DAF00CFF0A3EFF07D79120C4F7E0016
:010DBB002215
:1011C00075F10890FFF2740BF090FFF07410F0A32B
:1011D000E4F090FF30F0A3F0A3F0A3740AF0A3E4CE
:0211E000F022FB
:1012F6009000F4EEF0A3EFF01200069000F4E0FF89
:0B130600A3E090FF32CFF0A3EFF02235
:0400060075F58822E2
:0614ED00E4F5F5D2A32294
:100E990030034AEFB407005044900EA9F82828738C
:100EA900020EBE020EC1020EC7020ECD020ED30201
:100EB9000ED9020EDF0214ED7FD07E07801C7F6001
:100EC9007E0980167FF07E0A80107F807E0C800A62
:0E0ED9007F107E0E80047FA07E0F1212F62284
:1004F900C108C109C105C181C187C104C106C18241
:10050900C183C1004101390142013AE4204101326C
:1005190000410133004101340041013500410136F8
:09052900004101370041013800D6
:10147600438E805389F0758CCD758AD4C28DD28CFB
:03148600D2A922C6
:0A14CB00538EBF53890F438910228E
:1014890053D1FDE4F5D575D4DC43D10843AF20220F
:03000300021040A8
:10104000C0E0C083C082C0D075D000C006D2A2D29A
:10105000A1D29790013AE0FEA3E0F58BEEF58DD298
:1010600005D28ED2ABD006D0D0D082D083D0E032A1
:03000B0002000AE6
:01000A0032C3
:03001B00020B4392
:100B4300C0E0C0F0C083C082C0D030056430026111
:100B5300900139E014B40700504D900B6B75F0030E
:100B6300A4C58325F0C58373020B80020B88020B97
:100B73008C020B90020B98020B9C020BA4C297D21F
:100B8300A1D2A28022D2978006D297800EC297C2AA
:100B9300A1D2A28012D297800AC297D2A1C2A28008
:100BA30006C297C2A1C2A2C205758BF7758DFF80DD
:100BB3000AD2A2D2A1D297C28EC2ABD0D0D082D059
:060BC30083D0F0D0E03207
:03009B00020A1244
:080A1200C0E0C083C082C0D027
:100A1A00900137E004F0E0D3940F4004B208E4F008
:100A2A00900138E004F0E0D394324004B209E4F0D3
:100A3A00900134E004F0E0D39405400AE4F0E58044
:100A4A00540F900145F0301410900135E004F0E0A5
:100A5A00D394964004C214E4F0301310900136E0A7
:100A6A0004F0E0D394964004C213E4F020011290FB
:100A7A000132E004F0E0D3940A4006E4F0D201D255
:100A8A00CC300712900133E004F0E0D3940A400618
:100A9A00D204C207E4F0208704D206D200308704C9
:040AAA00C206C200BE
:090AAE00D0D0D082D083D0E03218
:1012BE00300204D2AB8002C2ABEF75F040A4242002
:0D12CE00FEE5F034E490013AF0A3CEF022EA
:10143800759850438E01438E0475D7E875D6FF43DF
:051448008E10D2AC2261
:030023000214A71D
:0D14A700309904C299C217309802C29832E1
:0814D5002017FDD2178F9922A8
:10100D00900146EBF0A3EAF0A3E9F0900146E0FB76
:10101D00A3E0FAA3E0F91205876017900146A3E457
:10102D0075F0011205F5A9F0FA120587FF1214D516
:03103D0080D92235
:0814DD008F993099FDC299229C
:1005320041012100410122004101230041012E001D
:1005420041012F00410130004101310047011AC32E
:10055200C6C7CACBCECF4A0124F505D39727B6F634
:0305620015F7B7D3
:10140400D2B6D2C1D2B7E4FF1210CDD2B67F441205
:0A14140010CDD2B612109F0214E5AD
:10109F00E49000F4F09000F4E0FFC39407501E7446
:1010AF001A2FF582E43401F583E0FF1210CDE4FF2F
:0D10BF001210CDD2B69000F4E004F080D8FD
:0110CC002201
:0814E5007F931210CDD2B62254
:07141E0090011EE0FFE4FD58
:101425009000F6EDF01210CD9000F6E0FF1210CD11
:03143500D2B6220A
:0510CD009000F7EFF0B8
:1010D2007F327E00121462C2B6E4FFC2C19000F7F2
:1010E200E0FE1392B7D2C1EEC313F00FEFB408EBD8
:0710F2007F327E0002146250
:0606C8009000F5EFF0F9CF
:1006CE00E0FF75F06484FDEF75F00A8475F00A841E
:1006DE00AFF0E975F00A84AEF090012FE4F09001CE
:1006EE002EE4F0900123E4F0900122E4F090012F2B
:1006FE00E0FC74242DF582E43401F583E0FBC45450
:10070E000FFAEC4A90012FF090012EE04BF0900181
:10071E0023E0FD74242FF582E43401F583E0FFED30
:10072E004F900123F0900122E0FF74242EF582E415
:10073E003401F583E0FEEF4E900122F0E9C3940AF6
:10074E00501A9000F5E0C39400401112141E90014F
:10075E001D12142190011CE0FFE480479000F5E08B
:10076E00FFC39464501AEFC3940A401412141E90DF
:10077E00011D12142190011CE0FF900123E0802343
:10078E0090011EE0FF90012FE0FD12142590011D37
:10079E00E0FF90012EE0FD12142590011CE0FF9069
:1007AE000123E0FD12142590011BE0FF900122E0D1
:0407BE00FD121425EF
:0107C2002214
:10002600AD07900131E05430F0EFB407005057901F
:10003600003CF828287302005102005802006102B1
:10004600006A02007302007C020085900131E0F034
:100056008034900131E04440F0802B900131E0443F
:10006600C0F08022900131E044C8F080199001313F
:10007600E044CCF08010900131E044CEF08007904F
:100086000131E044CFF0900120E0FF900131E0FD26
:030096000214252C
:1008A700AD07900130E05480F090012FE4F0ED1493
:1008B700B4070040030209509008CD75F003A4C5A2
:1008C7008325F0C583730208E20208F202090202D7
:1008D7000912020922020932020942900130E0445A
:1008E70004F090012FE04440F0805E900130E04436
:1008F70002F090012FE04420F0804E900130E04458
:1009070001F090012FE04410F0803E900130E04468
:1009170006F090012FE04460F0802E900130E04413
:1009270003F090012FE04430F0801E900130E04446
:1009370005F090012FE04450F0800E900130E04424
:1009470007F090012FE04470F090011FE0FF900145
:1009570030E0FD12142590011EE0FF90012FE0FD0D
:0309670002142552
:10131100900130E054F7F0300A04E04408F0900105
:0B1321001FE0FF900130E0FD021425EA
:10132C00900121E054EFF0300A04E04410F09001F9
:0B133C001AE0FF900121E0FD021425E3
:10134700900121E054DFF0300A04E04420F09001DE
:0B1357001AE0FF900121E0FD021425C8
:10136200900121E054BFF0300A04E04440F09001C3
:0B1372001AE0FF900121E0FD021425AD
:10137D00900121E0547FF0300A04E04480F09001A8
:0B138D001AE0FF900121E0FD02142592
:10139800900122E054F7F0300A04E04408F090018C
:0B13A8001BE0FF900122E0FD02142575
:1013B300900131E054DFF0300A04E04420F0900162
:0B13C30020E0FF900131E0FD02142546
:1013CE00900130E054EFF0300A04E04410F0900148
:0B13DE001FE0FF900130E0FD0214252D
:1013E900900131E054EFF0300A04E04410F090012C
:0B13F90020E0FF900131E0FD02142510
:10056500C196C115410143004101420041014100CD
:0C0575004101445041014500C114C11374
:10096A00200403020A11900145E024FE601B24FEC4
:10097A00604A14607A24FC607B24FC607C240C604E
:10098A0003020A0D120FA580739000F27464F090AE
:10099A000145E0B402159000F2E0D39400400CE067
:1009AA0014F07F0A7E0012122480E49000F2E070B4
:1009BA00031207C320130312112380409000F3741B
:1009CA0064F0900145E0B404159000F3E0D394007C
:1009DA00400CE014F07F0A7E0012122480E490009A
:1009EA00F3E0700312144D201403120DBC800D1293
:1009FA000FD9800812114C80031211737F327E00C6
:070A0A00121224D207C204FE
:010A110022C2
:10114C00900143E0FFC201C2CC0FD3EF64809486C0
:10115C0040027F06900143EFF0120E99900143E09C
:07116C00FF120026020CD067
:10117300900143E0FFC201C2CC1FC3EF648094809F
:101183005002E4FF900143EFF0120E99900143E007
:07119300FF120026020CD040
:100FA500900142E0C201C2CC2405FFD3648094E4E1
:100FB50040027F64900142EFF01212BE900142E0C0
:100FC500FF1206C8900139E0FF1208A7D20A1213D2
:040FD50098020CD0A2
:100FD900900142E0C201C2CC24FBFFC3648094802B
:100FE9005002E4FF900142EFF01212BE900142E07C
:100FF900FF1206C8900139E0FF1208A7D20A12139E
:0410090098020CD06D
:10112300C201C2CC900139E0B407057401F0800616
:10113300900139E004F0900139E0FF1208A7300272
:0911430005D20A121311020CD0AE
:1007C300E49000F4F0900144E09000F4F0C201C220
:1007D300CC7FF47E0102087A900145E06402700345
:1007E30002088030090D900144E0FF1206C8D20AC6
:1007F300121362A209B3502D90011EE0FFE4FD1213
:10080300142590011DE0FFE4FD12142590011CE066
:10081300FFE4FD12142590011BE0FFE4FD121425F3
:10082300D20A121362900145E0B40123C201C2CC83
:100833009000F4E02405F0E0D394C8400374C8F0BA
:100843009000F4E0900144F07F647E001212249043
:100853000145E064057081C201C2CC9000F4E0243C
:10086300FBF0E0C3941450037414F09000F4E09090
:100873000144F07F647E001212240207DBD213903E
:100883000142E0FF1206C8900139E0FF1208A7C237
:100893000A121362D20A121398300205D20A1213F3
:0408A30011020CD062
:100DBC00C201C2CC900141E004F0E0B4060374011E
:100DCC00F012109FC20A121398D20A12137D9001CE
:100DDC0041E0FF1206C8900141E0FF120E2E7FF495
:100DEC007E0112122412109FC20A12137DA215B397
:100DFC00920A121311A215920A12132C900142E0BE
:100E0C00FF1206C8900139E0FF1208A7D20A12138C
:100E1C0098900143E0FF120026121070120EE702A8
:020E2C0011E2D1
:10144D00C201C2CCD214B215A215920A12132C12DB
:05145D001070020CD02C
:1010F900D20A1213B3300317900143E0D39400408E
:101109000EA208920A1213CEA208B3920A8007D23D
:0A1119000A1213CEC20A1213E922D3
:0E149900300408900145E07002FF227F01221E
:100F6B003004369000F27464F0900145E0701590F7
:100F7B0000F2E0D39400400CE014F07F0A7E0012E4
:100F8B00122480E59000F2E0700F12109FC202C293
:090F9B000A1213111214EDD21612
:010FA400222A
:050581004201490000E9
:10107000301513300602800EC202C20A121311C2CA
:10108000031214ED8009D202D20A121311D2039076
:0F1090000142E0FF1212BE900143E0FF020E99F1
:0B14C000C2A6C2A5C2A4C2C4C2C322BF
:10120300A200E433FF900149E07003A3E06F601094
:10121300121070A200E4FF33900149CFF0A3EFF066
:0112230022A8
:100EE7007F06120D4A90014BEFF0900144E0FEEFB0
:100EF700C39E400BD20A121347D285A20992CC9007
:100F07000144E0FF90014BE0C39F501B201509C22D
:100F17000A121347C285D2CC30150C300609C20A13
:070F2700121347C285D2CC72
:010F2E0022A0
:101282003D3D3D3D3D3D3D3D20636F6465207374B2
:0F129200617274203D3D3D3D3D3D3D3D0D0A00E7
:100BC90043BA801212631214B41214381214761232
:100BD90014CB121489D288D2A8D2AFC2C2C2A3D26E
:100BE900CC1211C0C2851214ED7BFF7A12798212E0
:100BF90001097FE87E0312122430160A121499EFB4
:100C090024FF921680F3C2A01214C0121404120F0A
:100C19002FD20A121398300205D20A121311C201F7
:100C2900C2CC12096A1210F9121203120EE7120F3E
:100C39006B3016EEC201C2CCD2A6D2A5D2A4D2C4C0
:060C4900D2C3D2A080AC72
:100AC300020BC9E493A3F8E493A34003F68001F275
:100AD30008DFF48029E493A3F85407240CC8C33334
:100AE300C4540F4420C8834004F456800146F6DF03
:100AF300E4800B0102040810204080900403E47E8C
:100B0300019360BCA3FF543F30E509541FFEE493F7
:100B1300A360010ECF54C025E060A840B8E493A3BE
:100B2300FAE493A3F8E493A3C8C582C8CAC583CAE9
:100B3300F0A3C8C582C8CAC583CADFE9DEE780BEA1
:010586000074
:10058700BB010689828A83E0225002E722BBFE0272
:09059700E32289828A83E49322A5
:1005A000BC000BBE0029EF8DF084FFADF022E4CC3F
:1005B000F875F008EF2FFFEE33FEEC33FCEE9DEC08
:1005C000984005FCEE9DFE0FD5F0E9E4CEFD22ED4E
:1005D000F8F5F0EE8420D21CFEADF075F008EF2F98
:1005E000FFED33FD4007985006D5F0F222C398FD89
:0505F0000FD5F0EA2226
:1005F500A3F8E0C5F025F0F0E582158270021583B9
:06060500E0C838F0E82215
:10060B00BB0110E58229F582E5833AF583E0F5F02D
:10061B00A3E0225009E92582F886F008E622BBFE0A
:10062B000AE92582F8E2F5F008E222E5832AF58350
:08063B00E993F5F0A3E9932215
:10009E00E50824F5F582E43400F583E005082290A6
:1000AE0000F23011039000F5E475F00112068202A1
:1000BE000587200AE97F2ED20A8018EF540F24906C
:1000CE00D43440D4FF300E0BEF24BFB41A005003CB
:1000DE002461FFE50960021509050CE50C700205A7
:1000EE000B30110E9000F2E475F001120682EF0251
:1000FE0006700214DD7403D2118003E4C211F508F8
:10010E009000F2120699E4F509F50BF50CE509607D
:10011E00077F201200E180F5750AFFC20BC20AC2EA
:10012E000CC20DC20FC210C2121200ADFF700D3004
:10013E0011057F001200F2AF0CAE0B22B4255FC288
:10014E00D5C20E1200ADFF24D0B40A00501A75F0BD
:10015E000A780930D50508B6FF0106C6A426F62092
:10016E00D5047002D20D80D924CFB41A00EF5004FA
:10017E00C2E5D20E0202F3D20B80C6D20A80C0D2E2
:10018E000C80BCD2D580BAD20F80B47F201200E191
:10019E00200C077401B5090040F112009EFF1200F9
:1001AE00E102011BD212D210809512009EFB1200AA
:1001BE009EFA12009EF94A4B700679C47A037BFFB1
:1001CE00200C2EE509602A7E008E827583001206B1
:1001DE004360060EEE650A70F0C2D5EBC0E0EAC0D1
:1001EE00E0E9C0E0EE12033AD0E0F9D0E0FAD0E058
:1001FE00FB120587FF60AAEBC0E0EAC0E0E9C0E0B1
:10020E001200E1D0E02401F9D0E03400FAD0E0FB96
:10021E00E50A0460DCD50AD980877BFF7A0379363C
:10022E00D20C809C791080027908C210C21280080C
:10023E00D2D5790A8004790AC2D5E50A047002F58E
:10024E000AE4FAFDFEFF12009EFC7B08200B13123F
:10025E00009EFD7B10300A0A12009EFE12009EFFC9
:10026E007B20EC3382D592D55013C3E4300A069F1F
:10027E00FFE49EFEE4200B039DFDE49CFCE4CBF822
:10028E00C20BEC700CCFCECDCCE824F8F870F38016
:10029E0017C3EF33FFEE33FEED33FDEC33FCEB33E0
:1002AE00FB994002FB0FD8E9EB300B05F8D0E0C408
:1002BE0048B20BC0E00AEC4D4E4F78207B0070C266
:1002CE00EAB50A0040BCC0E012033CD0F0D0E020FA
:1002DE000B04C4C0E0C4B20BC0F01200CAD0F0D5FB
:1002EE00F0EB02011B1206A201B85302325801892B
:1002FE004C01854202364F023E44023E49019E4366
:08030E000244550228460228B2
:100316004502284703E450018D2D01912E01B42B8F
:1003260001952301B22003CD2A014D48000001ACFE
:100336003F3F3F00790AA2D5200D14300F09B910AE
:10034600020404B9080104A2D520100250010420B9
:100356000C68920CB509005034C0E07F20300D19AE
:100366007F30A20C7210720F500F120393C20CC290
:1003760010C20FC2127F30800F300F03E9C0E012A7
:1003860000E1300F03D0E0F9D0E0B509CC300F170B
:100396007F30B9100C1200E17F58300E077F78804D
:1003A60003B908031200E1300C057F2D0200E17F3E
:1003B600202012F87F2B2010F322920C80CF286E7B
:1003C600756C6C2900D20B12009E300BF8C20B78AC
:1003D6000930D50108F602014D2D50434958120047
:1003E6009E2403B405004001E49003DF931200D27B
:0D03F600743A1200D2D20D750904020232D1
:10064300BB010CE58229F582E5833AF583E022506C
:1006530006E92582F8E622BBFE06E92582F8E222B6
:0D066300E58229F582E5833AF583E49322D0
:10067000BB010689828A83F0225002F722BBFE0169
:02068000F32263
:10068200F8E0FBA3A3E0F925F0F0E5821582700201
:070692001583E0FA38F022A5
:09069900EBF0A3EAF0A3E9F02262
:1006A200D083D082F8E4937012740193700DA3A3E7
:1006B20093F8740193F5828883E4737402936860FB
:0606C200EFA3A3A380DFFB
:00000001FF
