:03000000020ABF32
:0C0ABF00787FE4F6D8FD758122020B065A
:0C14BC00759D27E4F5BDF5BE75BCA022AF
:1011A200E4FDFCEF1444A842BCE5BC30E4FB53BCB4
:1011B200EFAFBEAD07AFBDEF75F004A4FFE5F0FCE5
:0511C200ED4FAE04FF3B
:0111C7002205
:10122C00D3EF9400EE9400401600000075080B7587
:0F123C0009BED509FDD508FAEF1F70E41E80E149
:01124B002280
:10146A00D3EF9400EE9400400A000000EF1F70F0E2
:04147A001E80ED22C1
:0D000E00E4F5C7F5C5F5C675C380F5C4223D
:1012A90075C78375C5018FC4EEF5C375C65A75C672
:0D12B900A57F0A7E0012122CAFC202000EAB
:10124C0075C78375C5028FC4EEF5C3AF058FC27524
:0F125C00C65A75C6A57F0A7E0012122C02000E1C
:1012E30075C78375C5038FC4EEF5C375C65A75C636
:0B12F300A57F0A7E0012122C02000EE4
:1011EA00E49000F4F0A3F0FFFE1212E39000F4E0A2
:1011FA00FEA3E0FF900141E0FD12124CC201C2CCF5
:01120A0022C1
:100CD800900139E090013CF0A215E433A3F09001B3
:100CE80043E090013EF0900142E090013FF0900116
:100CF80044E0900140F0900141E075F002A47F00CB
:100D0800FE9000F6F0A3EFF01212E3E49000F5F085
:100D18009000F5E0FDC39405502BA3E0FEA3E0FF8F
:100D2800743C2DF582E43401F583E0FD12124C90F9
:100D380000F7E004F070069000F6E004F09000F58B
:090D4800E004F080CBC201C2CC32
:010D5100227F
:100F3700E4FFFE1212A9900141EFF0120E36A20251
:100F4700920A121319D20A1213A0A215920A1213A7
:100F570034900142E0FF1206C8900139E0FF120801
:0C0F6700A7900143E0FF12002602107862
:100E3600EF75F002A49000F5F0A3E4F09000F4F052
:100E46009000F5E0FEA3E0FF1212A99000F4E02462
:100E56003CF582E43401F583EFF09000F6E004F00F
:100E660070069000F5E004F09000F4E004F0E0C3B2
:100E7600940540CC90013CE0900139F090013DE0B2
:100E860024FF9215A3E0900143F090013FE090010A
:0A0E960042F0900140E0900144F0AA
:010EA000222F
:10126B00759420E4F593759280F59175967FF595BD
:0F127B00F5B2F5B175B41CF5B375CA10F5C922FB
:1004030060F20000011A0123012C0135013E01476E
:100413000151015A0164016E01770181018B01943D
:10042300019E01A801B201BC01C601CF01D901E3BC
:1004330001ED01F60200020A0213021D0226022F39
:1004430002380242024B0254025C0265026E0276DB
:10045300027F0287028F0297029F02A702AF02B6B2
:1004630002BE02C502CC02D302DA02E102E702EEC7
:1004730002F402FB03010307030D03120318031D18
:1004830003230328032D03320337033C03410345AE
:10049300034A034E03520356035A035E0362036681
:1004A300036A036D037103740378037B037E038183
:1004B30003840387038A038D038F039203950397B2
:1004C3000399039C039E03A003A303A503A703A906
:1004D30003AB03AD03AF03B103B203B403B603B875
:1004E30003B903BB03BC03BE03BF03C103C203C4FD
:0604F30003C503C603C7A8
:0E0C57009000F9EBF0A3EAF0A3E9F0A3EDF0B2
:100C6500E4900100F09000FFF09000FCE014FF908C
:100C750000FFE0FEC39F50559000F9E0FBA3E0FAAA
:100C8500A3E0F975F002EEA4F58285F08312060B58
:100C9500FF9000FDE0FCA3E0FDC39FEC95F040252F
:100CA500A3E02401FFE433FEEF25E0FFEE33FE8FE2
:100CB500828E8312060BFFC3ED9FEC95F0500690D4
:100CC50000FFE0A3F09000FFE004F0809C9001009D
:020CD500E0FF3E
:010CD70022FA
:050D52009000F4EFF039
:100D57009000F6740AF0E4A3F0A3F09000F5F09089
:100D670000F6E0FF9000F5E0C39F501C9000F4E010
:100D7700FF1211A29000F8E02FF09000F7E03EF08C
:100D87009000F5E004F080D79000F7E0FEA3E0FFC5
:100D97009000F6E0FD7C001205A0A3EEF0A3EFF0B3
:100DA7007B017A0079009000F7E0FFA3E09000FD57
:0C0DB700CFF0A3EFF07D79120C577E0006
:010DC300220D
:1011C80075F10890FFF2740BF090FFF07410F0A323
:1011D800E4F090FF30F0A3F0A3F0A3740AF0A3E4C6
:0211E800F022F3
:1012FE009000F4EEF0A3EFF01200069000F4E0FF81
:0B130E00A3E090FF32CFF0A3EFF0222D
:0400060075F58822E2
:0614F500E4F5F5D2A3228C
:100EA10030034AEFB407005044900EB1F82828737C
:100EB100020EC6020EC9020ECF020ED5020EDB02D1
:100EC1000EE1020EE70214F57FD07E07801C7F60E1
:100ED1007E0980167FF07E0A80107F807E0C800A5A
:0E0EE1007F107E0E80047FA07E0F1212FE2274
:1004F900C108C109C105C181C187C104C106C18241
:10050900C183C1004101390142013AE4204101326C
:1005190000410133004101340041013500410136F8
:09052900004101370041013800D6
:10147E00438E805389F0758CCD758AD4C28DD28CF3
:03148E00D2A922BE
:0A14D300538EBF53890F4389102286
:1014910053D1FDE4F5D575D4DC43D10843AF202207
:03000300021048A0
:10104800C0E0C083C082C0D075D000C006D2A2D292
:10105800A1D29790013AE0FEA3E0F58BEEF58DD290
:1010680005D28ED2ABD006D0D0D082D083D0E03299
:03000B0002000AE6
:01000A0032C3
:03001B00020B4B8A
:100B4B00C0E0C0F0C083C082C0D030056430026109
:100B5B00900139E014B40700504D900B7375F003FE
:100B6B00A4C58325F0C58373020B88020B90020B7F
:100B7B0094020B98020BA0020BA4020BACC297D2EF
:100B8B00A1D2A28022D2978006D297800EC297C2A2
:100B9B00A1D2A28012D297800AC297D2A1C2A28000
:100BAB0006C297C2A1C2A2C205758BF7758DFF80D5
:100BBB000AD2A2D2A1D297C28EC2ABD0D0D082D051
:060BCB0083D0F0D0E032FF
:03009B00020A1A3C
:080A1A00C0E0C083C082C0D01F
:100A2200900137E004F0E0D3940F4004B208E4F000
:100A3200900138E004F0E0D394324004B209E4F0CB
:100A4200900134E004F0E0D39405400AE4F0E5803C
:100A5200540F900145F0301410900135E004F0E09D
:100A6200D394964004C214E4F0301310900136E09F
:100A720004F0E0D394964004C213E4F020011290F3
:100A82000132E004F0E0D3940A4006E4F0D201D24D
:100A9200CC300712900133E004F0E0D3940A400610
:100AA200D204C207E4F0208704D206D200308704C1
:040AB200C206C200B6
:090AB600D0D0D082D083D0E03210
:1012C600300204D2AB8002C2ABEF75F040A42420FA
:0D12D600FEE5F034E490013AF0A3CEF022E2
:10144000759850438E01438E0475D7E875D6FF43D7
:051450008E10D2AC2259
:030023000214AF15
:0D14AF00309904C299C217309802C29832D9
:0814DD002017FDD2178F9922A0
:10101500900146EBF0A3EAF0A3E9F0900146E0FB6E
:10102500A3E0FAA3E0F91205876017900146A3E44F
:1010350075F0011205F5A9F0FA120587FF1214DD06
:0310450080D9222D
:0814E5008F993099FDC2992294
:1005320041012100410122004101230041012E001D
:1005420041012F00410130004101310047011AC32E
:10055200C6C7CACBCECF4A0124F505D39727B6F634
:0305620015F7B7D3
:10140C00D2B6D2C1D2B7E4FF1210D5D2B67F4412F5
:0A141C0010D5D2B61210A70214ED8D
:1010A700E49000F4F09000F4E0FFC39407501E743E
:1010B7001A2FF582E43401F583E0FF1210D5E4FF1F
:0D10C7001210D5D2B69000F4E004F080D8ED
:0110D40022F9
:0814ED007F931210D5D2B62244
:0714260090011EE0FFE4FD50
:10142D009000F6EDF01210D59000F6E0FF1210D5F9
:03143D00D2B62202
:0510D5009000F7EFF0B0
:1010DA007F327E0012146AC2B6E4FFC2C19000F7E2
:1010EA00E0FE1392B7D2C1EEC313F00FEFB408EBD0
:0710FA007F327E0002146A40
:0606C8009000F5EFF0F9CF
:1006CE00E0FF75F06484FDEF75F00A8475F00A841E
:1006DE00AFF0E975F00A84AEF090012FE4F09001CE
:1006EE002EE4F0900123E4F0900122E4F090012F2B
:1006FE00E0FC74242DF582E43401F583E0FBC45450
:10070E000FFAEC4A90012FF090012EE04BF0900181
:10071E0023E0FD74242FF582E43401F583E0FFED30
:10072E004F900123F0900122E0FF74242EF582E415
:10073E003401F583E0FEEF4E900122F0E9C3940AF6
:10074E00501A9000F5E0C394004011121426900147
:10075E001D12142990011CE0FFE480479000F5E083
:10076E00FFC39464501AEFC3940A401412142690D7
:10077E00011D12142990011CE0FF900123E080233B
:10078E0090011EE0FF90012FE0FD12142D90011D2F
:10079E00E0FF90012EE0FD12142D90011CE0FF9061
:1007AE000123E0FD12142D90011BE0FF900122E0C9
:0407BE00FD12142DE7
:0107C2002214
:10002600AD07900131E05430F0EFB407005057901F
:10003600003CF828287302005102005802006102B1
:10004600006A02007302007C020085900131E0F034
:100056008034900131E04440F0802B900131E0443F
:10006600C0F08022900131E044C8F080199001313F
:10007600E044CCF08010900131E044CEF08007904F
:100086000131E044CFF0900120E0FF900131E0FD26
:0300960002142D24
:1008A700AD07900130E05480F090012FE4F0ED1493
:1008B700B4070040030209509008CD75F003A4C5A2
:1008C7008325F0C583730208E20208F202090202D7
:1008D7000912020922020932020942900130E0445A
:1008E70004F090012FE04440F0805E900130E04436
:1008F70002F090012FE04420F0804E900130E04458
:1009070001F090012FE04410F0803E900130E04468
:1009170006F090012FE04460F0802E900130E04413
:1009270003F090012FE04430F0801E900130E04446
:1009370005F090012FE04450F0800E900130E04424
:1009470007F090012FE04470F090011FE0FF900145
:1009570030E0FD12142D90011EE0FF90012FE0FD05
:0309670002142D4A
:10131900900130E054F7F0300A04E04408F09001FD
:0B1329001FE0FF900130E0FD02142DDA
:10133400900121E054EFF0300A04E04410F09001F1
:0B1344001AE0FF900121E0FD02142DD3
:10134F00900121E054DFF0300A04E04420F09001D6
:0B135F001AE0FF900121E0FD02142DB8
:10136A00900121E054BFF0300A04E04440F09001BB
:0B137A001AE0FF900121E0FD02142D9D
:10138500900121E0547FF0300A04E04480F09001A0
:0B1395001AE0FF900121E0FD02142D82
:1013A000900122E054F7F0300A04E04408F0900184
:0B13B0001BE0FF900122E0FD02142D65
:1013BB00900131E054DFF0300A04E04420F090015A
:0B13CB0020E0FF900131E0FD02142D36
:1013D600900130E054EFF0300A04E04410F0900140
:0B13E6001FE0FF900130E0FD02142D1D
:1013F100900131E054EFF0300A04E04410F0900124
:0B14010020E0FF900131E0FD02142DFF
:10056500C196C115410143004101420041014100CD
:0C0575004101445041014500C114C11374
:10096A00200403020A19900145E024FE601B24FEBC
:10097A00604A14607A24FC607B24FC607C240C604E
:10098A0003020A0D120FAD80739000F27464F090A6
:10099A000145E0B402159000F2E0D39400400CE067
:1009AA0014F07F0A7E0012122C80E49000F2E070AC
:1009BA00031207C320130312112B80409000F37413
:1009CA0064F0900145E0B404159000F3E0D394007C
:1009DA00400CE014F07F0A7E0012122C80E4900092
:1009EA00F3E07003121455201403120DC4800D1283
:1009FA000FE18008121154800312117B7F327E00AE
:0F0A0A0012122C300205D20A121319D207C2049D
:010A190022BA
:10115400900143E0FFC201C2CC0FD3EF64809486B8
:1011640040027F06900143EFF0120EA1900143E08C
:07117400FF120026020CD857
:10117B00900143E0FFC201C2CC1FC3EF6480948097
:10118B005002E4FF900143EFF0120EA1900143E0F7
:07119B00FF120026020CD830
:100FAD00900142E0C201C2CC2405FFD3648094E4D9
:100FBD0040027F64900142EFF01212C6900142E0B0
:100FCD00FF1206C8900139E0FF1208A7D20A1213CA
:040FDD00A0020CD88A
:100FE100900142E0C201C2CC24FBFFC36480948023
:100FF1005002E4FF900142EFF01212C6900142E06C
:10100100FF1206C8900139E0FF1208A7D20A121395
:04101100A0020CD855
:10112B00C201C2CC900139E0B407057401F080060E
:10113B00900139E004F0900139E0FF1208A730026A
:09114B0005D20A121319020CD896
:1007C300E49000F4F0900144E09000F4F0C201C220
:1007D300CC7FF47E0102087A900145E06402700345
:1007E30002088030090D900144E0FF1206C8D20AC6
:1007F30012136AA209B3502D90011EE0FFE4FD120B
:10080300142D90011DE0FFE4FD12142D90011CE056
:10081300FFE4FD12142D90011BE0FFE4FD12142DE3
:10082300D20A12136A900145E0B40123C201C2CC7B
:100833009000F4E02405F0E0D394C8400374C8F0BA
:100843009000F4E0900144F07F647E0012122C903B
:100853000145E064057081C201C2CC9000F4E0243C
:10086300FBF0E0C3941450037414F09000F4E09090
:100873000144F07F647E0012122C0207DBD2139036
:100883000142E0FF1206C8900139E0FF1208A7C237
:100893000A12136AD20A1213A0300205D20A1213E3
:0408A30019020CD852
:100DC400C201C2CC900141E004F0E0B40603740116
:100DD400F01210A7C20A1213A0D20A1213859001AE
:100DE40041E0FF1206C8900141E0FF120E367FF485
:100DF4007E0112122C1210A7C20A121385A215B377
:100E0400920A121319A215920A121334900142E0A5
:100E1400FF1206C8900139E0FF1208A7D20A121384
:100E2400A0900143E0FF120026121078120EEF0288
:020E340011EAC1
:10145500C201C2CCD214B215A215920A12133412CB
:051465001078020CD814
:10110100D20A1213BB300317900143E0D39400407D
:101111000EA208920A1213D6A208B3920A8007D22D
:0A1121000A1213D6C20A1213F122BB
:0E14A100300408900145E07002FF227F012216
:100F73003004369000F27464F0900145E0701590EF
:100F830000F2E0D39400400CE014F07F0A7E0012DC
:100F9300122C80E59000F2E0700F1210A7C202C27B
:090FA3000A1213191214F5D216FA
:010FAC002222
:050581004201490000E9
:10107800301513300602800EC202C20A121319C2BA
:10108800031214F58009D202D20A121319D203905E
:0F1098000142E0FF1212C6900143E0FF020EA1D9
:0B14C800C2A6C2A5C2A4C2C4C2C322B7
:10120B00A200E433FF900149E07003A3E06F60108C
:10121B00121078A200E4FF33900149CFF0A3EFF056
:01122B0022A0
:100EEF007F06120D5290014BEFF0900144E0FEEFA0
:100EFF00C39E400BD20A12134FD285A20992CC90F7
:100F0F000144E0FF90014BE0C39F501B201509C225
:100F1F000A12134FC285D2CC30150C300609C20A03
:070F2F0012134FC285D2CC62
:010F36002298
:10128A003D3D3D3D3D3D3D3D20636F6465207374AA
:0F129A00617274203D3D3D3D3D3D3D3D0D0A00DF
:100BD10043BA8012126B1214BC12144012147E120A
:100BE10014D3121491D288D2A8D2AFC2C2C2A3D256
:100BF100CC1211C8C2851214F57BFF7A12798A12C0
:100C010001097FE87E0312122C30160A1214A1EF9B
:100C110024FF921680F3C2A01214C812140C120FF2
:100C210037D20A1213A0300205D20A121319C201D7
:100C3100C2CC12096A12110112120B120EEF120F1D
:100C4100733016EEC201C2CCD2A6D2A5D2A4D2C4B0
:060C5100D2C3D2A080AC6A
:100ACB00020BD1E493A3F8E493A34003F68001F265
:100ADB0008DFF48029E493A3F85407240CC8C3332C
:100AEB00C4540F4420C8834004F456800146F6DFFB
:100AFB00E4800B0102040810204080900403E47E84
:100B0B00019360BCA3FF543F30E509541FFEE493EF
:100B1B00A360010ECF54C025E060A840B8E493A3B6
:100B2B00FAE493A3F8E493A3C8C582C8CAC583CAE1
:100B3B00F0A3C8C582C8CAC583CADFE9DEE780BE99
:010586000074
:10058700BB010689828A83E0225002E722BBFE0272
:09059700E32289828A83E49322A5
:1005A000BC000BBE0029EF8DF084FFADF022E4CC3F
:1005B000F875F008EF2FFFEE33FEEC33FCEE9DEC08
:1005C000984005FCEE9DFE0FD5F0E9E4CEFD22ED4E
:1005D000F8F5F0EE8420D21CFEADF075F008EF2F98
:1005E000FFED33FD4007985006D5F0F222C398FD89
:0505F0000FD5F0EA2226
:1005F500A3F8E0C5F025F0F0E582158270021583B9
:06060500E0C838F0E82215
:10060B00BB0110E58229F582E5833AF583E0F5F02D
:10061B00A3E0225009E92582F886F008E622BBFE0A
:10062B000AE92582F8E2F5F008E222E5832AF58350
:08063B00E993F5F0A3E9932215
:10009E00E50824F5F582E43400F583E005082290A6
:1000AE0000F23011039000F5E475F00112068202A1
:1000BE000587200AE97F2ED20A8018EF540F24906C
:1000CE00D43440D4FF300E0BEF24BFB41A005003CB
:1000DE002461FFE50960021509050CE50C700205A7
:1000EE000B30110E9000F2E475F001120682EF0251
:1000FE0006700214E57403D2118003E4C211F508F0
:10010E009000F2120699E4F509F50BF50CE509607D
:10011E00077F201200E180F5750AFFC20BC20AC2EA
:10012E000CC20DC20FC210C2121200ADFF700D3004
:10013E0011057F001200F2AF0CAE0B22B4255FC288
:10014E00D5C20E1200ADFF24D0B40A00501A75F0BD
:10015E000A780930D50508B6FF0106C6A426F62092
:10016E00D5047002D20D80D924CFB41A00EF5004FA
:10017E00C2E5D20E0202F3D20B80C6D20A80C0D2E2
:10018E000C80BCD2D580BAD20F80B47F201200E191
:10019E00200C077401B5090040F112009EFF1200F9
:1001AE00E102011BD212D210809512009EFB1200AA
:1001BE009EFA12009EF94A4B700679C47A037BFFB1
:1001CE00200C2EE509602A7E008E827583001206B1
:1001DE004360060EEE650A70F0C2D5EBC0E0EAC0D1
:1001EE00E0E9C0E0EE12033AD0E0F9D0E0FAD0E058
:1001FE00FB120587FF60AAEBC0E0EAC0E0E9C0E0B1
:10020E001200E1D0E02401F9D0E03400FAD0E0FB96
:10021E00E50A0460DCD50AD980877BFF7A0379363C
:10022E00D20C809C791080027908C210C21280080C
:10023E00D2D5790A8004790AC2D5E50A047002F58E
:10024E000AE4FAFDFEFF12009EFC7B08200B13123F
:10025E00009EFD7B10300A0A12009EFE12009EFFC9
:10026E007B20EC3382D592D55013C3E4300A069F1F
:10027E00FFE49EFEE4200B039DFDE49CFCE4CBF822
:10028E00C20BEC700CCFCECDCCE824F8F870F38016
:10029E0017C3EF33FFEE33FEED33FDEC33FCEB33E0
:1002AE00FB994002FB0FD8E9EB300B05F8D0E0C408
:1002BE0048B20BC0E00AEC4D4E4F78207B0070C266
:1002CE00EAB50A0040BCC0E012033CD0F0D0E020FA
:1002DE000B04C4C0E0C4B20BC0F01200CAD0F0D5FB
:1002EE00F0EB02011B1206A201B85302325801892B
:1002FE004C01854202364F023E44023E49019E4366
:08030E000244550228460228B2
:100316004502284703E450018D2D01912E01B42B8F
:1003260001952301B22003CD2A014D48000001ACFE
:100336003F3F3F00790AA2D5200D14300F09B910AE
:10034600020404B9080104A2D520100250010420B9
:100356000C68920CB509005034C0E07F20300D19AE
:100366007F30A20C7210720F500F120393C20CC290
:1003760010C20FC2127F30800F300F03E9C0E012A7
:1003860000E1300F03D0E0F9D0E0B509CC300F170B
:100396007F30B9100C1200E17F58300E077F78804D
:1003A60003B908031200E1300C057F2D0200E17F3E
:1003B600202012F87F2B2010F322920C80CF286E7B
:1003C600756C6C2900D20B12009E300BF8C20B78AC
:1003D6000930D50108F602014D2D50434958120047
:1003E6009E2403B405004001E49003DF931200D27B
:0D03F600743A1200D2D20D750904020232D1
:10064300BB010CE58229F582E5833AF583E022506C
:1006530006E92582F8E622BBFE06E92582F8E222B6
:0D066300E58229F582E5833AF583E49322D0
:10067000BB010689828A83F0225002F722BBFE0169
:02068000F32263
:10068200F8E0FBA3A3E0F925F0F0E5821582700201
:070692001583E0FA38F022A5
:09069900EBF0A3EAF0A3E9F02262
:1006A200D083D082F8E4937012740193700DA3A3E7
:1006B20093F8740193F5828883E4737402936860FB
:0606C200EFA3A3A380DFFB
:00000001FF
