:03000000020AB63B
:0C0AB600787FE4F6D8FD758122020AFD6D
:0C14B300759D27E4F5BDF5BE75BCA022B8
:10119900E4FDFCEF1444A842BCE5BC30E4FB53BCBD
:1011A900EFAFBEAD07AFBDEF75F004A4FFE5F0FCEE
:0511B900ED4FAE04FF44
:0111BE00220E
:10122300D3EF9400EE9400401600000075080B7590
:0F12330009BED509FDD508FAEF1F70E41E80E152
:011242002289
:10146100D3EF9400EE9400400A000000EF1F70F0EB
:041471001E80ED22CA
:0D000E00E4F5C7F5C5F5C675C380F5C4223D
:1012A00075C78375C5018FC4EEF5C375C65A75C67B
:0D12B000A57F0A7E00121223AFC202000EBD
:1012430075C78375C5028FC4EEF5C3AF058FC2752D
:0F125300C65A75C6A57F0A7E0012122302000E2E
:1012DA0075C78375C5038FC4EEF5C375C65A75C63F
:0B12EA00A57F0A7E0012122302000EF6
:1011E100E49000F4F0A3F0FFFE1212DA9000F4E0B4
:1011F100FEA3E0FF900141E0FD121243C201C2CC07
:0112010022CA
:100CCF00900139E090013CF0A215E433A3F09001BC
:100CDF0043E090013EF0900142E090013FF090011F
:100CEF0044E0900140F0900141E075F002A47F00D4
:100CFF00FE9000F6F0A3EFF01212DAE49000F5F098
:100D0F009000F5E0FDC39405502BA3E0FEA3E0FF98
:100D1F00743C2DF582E43401F583E0FD121243900B
:100D2F0000F7E004F070069000F6E004F09000F594
:090D3F00E004F080CBC201C2CC3B
:010D48002288
:100F2E00E4FFFE1212A0900141EFF0120E2DA2026C
:100F3E00920A121310D20A121397A215920A1213C2
:100F4E002B900142E0FF1206C8900139E0FF120813
:0C0F5E00A6900143E0FF12002602106F75
:100E2D00EF75F002A49000F5F0A3E4F09000F4F05B
:100E3D009000F5E0FEA3E0FF1212A09000F4E02474
:100E4D003CF582E43401F583EFF09000F6E004F018
:100E5D0070069000F5E004F09000F4E004F0E0C3BB
:100E6D00940540CC90013CE0900139F090013DE0BB
:100E7D0024FF9215A3E0900143F090013FE0900113
:0A0E8D0042F0900140E0900144F0B3
:010E97002238
:10126200759420E4F593759280F59175967FF595C6
:0F127200F5B2F5B175B41CF5B375CA10F5C92204
:1004030060F20000011A0123012C0135013E01476E
:100413000151015A0164016E01770181018B01943D
:10042300019E01A801B201BC01C601CF01D901E3BC
:1004330001ED01F60200020A0213021D0226022F39
:1004430002380242024B0254025C0265026E0276DB
:10045300027F0287028F0297029F02A702AF02B6B2
:1004630002BE02C502CC02D302DA02E102E702EEC7
:1004730002F402FB03010307030D03120318031D18
:1004830003230328032D03320337033C03410345AE
:10049300034A034E03520356035A035E0362036681
:1004A300036A036D037103740378037B037E038183
:1004B30003840387038A038D038F039203950397B2
:1004C3000399039C039E03A003A303A503A703A906
:1004D30003AB03AD03AF03B103B203B403B603B875
:1004E30003B903BB03BC03BE03BF03C103C203C4FD
:0604F30003C503C603C7A8
:0E0C4E009000F9EBF0A3EAF0A3E9F0A3EDF0BB
:100C5C00E4900100F09000FFF09000FCE014FF9095
:100C6C0000FFE0FEC39F50559000F9E0FBA3E0FAB3
:100C7C00A3E0F975F002EEA4F58285F08312060B61
:100C8C00FF9000FDE0FCA3E0FDC39FEC95F0402538
:100C9C00A3E02401FFE433FEEF25E0FFEE33FE8FEB
:100CAC00828E8312060BFFC3ED9FEC95F0500690DD
:100CBC0000FFE0A3F09000FFE004F0809C900100A6
:020CCC00E0FF47
:010CCE002203
:050D49009000F4EFF042
:100D4E009000F6740AF0E4A3F0A3F09000F5F09092
:100D5E0000F6E0FF9000F5E0C39F501C9000F4E019
:100D6E00FF1211999000F8E02FF09000F7E03EF09E
:100D7E009000F5E004F080D79000F7E0FEA3E0FFCE
:100D8E009000F6E0FD7C001205A0A3EEF0A3EFF0BC
:100D9E007B017A0079009000F7E0FFA3E09000FD60
:0C0DAE00CFF0A3EFF07D79120C4E7E0018
:010DBA002216
:1011BF0075F10890FFF2740BF090FFF07410F0A32C
:1011CF00E4F090FF30F0A3F0A3F0A3740AF0A3E4CF
:0211DF00F022FC
:1012F5009000F4EEF0A3EFF01200069000F4E0FF8A
:0B130500A3E090FF32CFF0A3EFF02236
:0400060075F58822E2
:0614EC00E4F5F5D2A32295
:100E980030034AEFB407005044900EA8F82828738E
:100EA800020EBD020EC0020EC6020ECC020ED20207
:100EB8000ED8020EDE0214EC7FD07E07801C7F6005
:100EC8007E0980167FF07E0A80107F807E0C800A63
:0E0ED8007F107E0E80047FA07E0F1212F52286
:1004F900C108C109C105C181C187C104C106C18241
:10050900C183C1004101390142013AE4204101326C
:1005190000410133004101340041013500410136F8
:09052900004101370041013800D6
:10147500438E805389F0758CCD758AD4C28DD28CFC
:03148500D2A922C7
:0A14CA00538EBF53890F438910228F
:1014880053D1FDE4F5D575D4DC43D10843AF202210
:0300030002103FA9
:10103F00C0E0C083C082C0D075D000C006D2A2D29B
:10104F00A1D29790013AE0FEA3E0F58BEEF58DD299
:10105F0005D28ED2ABD006D0D0D082D083D0E032A2
:03000B0002000AE6
:01000A0032C3
:03001B00020B4293
:100B4200C0E0C0F0C083C082C0D030056430026112
:100B5200900139E014B40700504D900B6A75F00310
:100B6200A4C58325F0C58373020B7F020B87020B9A
:100B72008B020B8F020B97020B9B020BA3C297D225
:100B8200A1D2A28022D2978006D297800EC297C2AB
:100B9200A1D2A28012D297800AC297D2A1C2A28009
:100BA20006C297C2A1C2A2C205758BF7758DFF80DE
:100BB2000AD2A2D2A1D297C28EC2ABD0D0D082D05A
:060BC20083D0F0D0E03208
:03009B00020A1145
:080A1100C0E0C083C082C0D028
:100A1900900137E004F0E0D3940F4004B208E4F009
:100A2900900138E004F0E0D394324004B209E4F0D4
:100A3900900134E004F0E0D39405400AE4F0E58045
:100A4900540F900145F0301410900135E004F0E0A6
:100A5900D394964004C214E4F0301310900136E0A8
:100A690004F0E0D394964004C213E4F020011290FC
:100A79000132E004F0E0D3940A4006E4F0D201D256
:100A8900CC300712900133E004F0E0D3940A400619
:100A9900D204C207E4F0208704D206D200308704CA
:040AA900C206C200BF
:090AAD00D0D0D082D083D0E03219
:1012BD00300204D2AB8002C2ABEF75F040A4242003
:0D12CD00FEE5F034E490013AF0A3CEF022EB
:10143700759850438E01438E0475D7E875D6FF43E0
:051447008E10D2AC2262
:030023000214A61E
:0D14A600309904C299C217309802C29832E2
:0814D4002017FDD2178F9922A9
:10100C00900146EBF0A3EAF0A3E9F0900146E0FB77
:10101C00A3E0FAA3E0F91205876017900146A3E458
:10102C0075F0011205F5A9F0FA120587FF1214D418
:03103C0080D92236
:0814DC008F993099FDC299229D
:1005320041012100410122004101230041012E001D
:1005420041012F00410130004101310047011AC32E
:10055200C6C7CACBCECF4A0124F505D39727B6F634
:0305620015F7B7D3
:10140300D2B6D2C1D2B7E4FF1210CCD2B67F441207
:0A14130010CCD2B612109E0214E4B1
:10109E00E49000F4F09000F4E0FFC39407501E7447
:1010AE001A2FF582E43401F583E0FF1210CCE4FF31
:0D10BE001210CCD2B69000F4E004F080D8FF
:0110CB002202
:0814E4007F931210CCD2B62256
:07141D0090011EE0FFE4FD59
:101424009000F6EDF01210CC9000F6E0FF1210CC14
:03143400D2B6220B
:0510CC009000F7EFF0B9
:1010D1007F327E00121461C2B6E4FFC2C19000F7F4
:1010E100E0FE1392B7D2C1EEC313F00FEFB408EBD9
:0710F1007F327E0002146152
:0606C8009000F5EFF0F9CF
:1006CE00E0FF75F06484FDEF75F00A8475F00A841E
:1006DE00AFF0E975F00A84AEF090012FE4F09001CE
:1006EE002EE4F0900123E4F0900122E4F090012F2B
:1006FE00E0FC74242DF582E43401F583E0FBC45450
:10070E000FFAEC4A90012FF090012EE04BF0900181
:10071E0023E0FD74242FF582E43401F583E0FFED30
:10072E004F900123F0900122E0FF74242EF582E415
:10073E003401F583E0FEEF4E900122F0E9C3940AF6
:10074E00501A9000F5E0C39400401112141D900150
:10075E001D12142090011CE0FFE480479000F5E08C
:10076E00FFC39464501AEFC3940A401412141D90E0
:10077E00011D12142090011CE0FF900123E0802344
:10078E0090011EE0FF90012FE0FD12142490011D38
:10079E00E0FF90012EE0FD12142490011CE0FF906A
:1007AE000123E0FD12142490011BE0FF900122E0D2
:0407BE00FD121424F0
:0107C2002214
:10002600AD07900131E05430F0EFB407005057901F
:10003600003CF828287302005102005802006102B1
:10004600006A02007302007C020085900131E0F034
:100056008034900131E04440F0802B900131E0443F
:10006600C0F08022900131E044C8F080199001313F
:10007600E044CCF08010900131E044CEF08007904F
:100086000131E044CFF0900120E0FF900131E0FD26
:030096000214242D
:1008A600AD07900130E05480F090012FE4F0ED1494
:1008B600B40700400302094F9008CC75F003A4C5A5
:1008C6008325F0C583730208E10208F102090102DB
:1008D6000911020921020931020941900130E0445F
:1008E60004F090012FE04440F0805E900130E04437
:1008F60002F090012FE04420F0804E900130E04459
:1009060001F090012FE04410F0803E900130E04469
:1009160006F090012FE04460F0802E900130E04414
:1009260003F090012FE04430F0801E900130E04447
:1009360005F090012FE04450F0800E900130E04425
:1009460007F090012FE04470F090011FE0FF900146
:1009560030E0FD12142490011EE0FF90012FE0FD0F
:0309660002142454
:10131000900130E054F7F0300A04E04408F0900106
:0B1320001FE0FF900130E0FD021424EC
:10132B00900121E054EFF0300A04E04410F09001FA
:0B133B001AE0FF900121E0FD021424E5
:10134600900121E054DFF0300A04E04420F09001DF
:0B1356001AE0FF900121E0FD021424CA
:10136100900121E054BFF0300A04E04440F09001C4
:0B1371001AE0FF900121E0FD021424AF
:10137C00900121E0547FF0300A04E04480F09001A9
:0B138C001AE0FF900121E0FD02142494
:10139700900122E054F7F0300A04E04408F090018D
:0B13A7001BE0FF900122E0FD02142477
:1013B200900131E054DFF0300A04E04420F0900163
:0B13C20020E0FF900131E0FD02142448
:1013CD00900130E054EFF0300A04E04410F0900149
:0B13DD001FE0FF900130E0FD0214242F
:1013E800900131E054EFF0300A04E04410F090012D
:0B13F80020E0FF900131E0FD02142412
:10056500C196C115410143004101420041014100CD
:0C0575004101445041014500C114C11374
:10096900200403020A10900145E024FE601B24FEC6
:10097900604A14607A24FC607B24FC607C240C604F
:1009890003020A0C120FA480739000F27464F090B1
:100999000145E0B402159000F2E0D39400400CE068
:1009A90014F07F0A7E0012122380E49000F2E070B6
:1009B900031207C320130312112280409000F3741D
:1009C90064F0900145E0B404159000F3E0D394007D
:1009D900400CE014F07F0A7E0012122380E490009C
:1009E900F3E0700312144C201403120DBB800D1296
:1009F9000FD8800812114B80031211727F327E00CA
:070A0900121223D207C20400
:010A100022C3
:10114B00900143E0FFC201C2CC0FD3EF64809486C1
:10115B0040027F06900143EFF0120E98900143E09E
:07116B00FF120026020CCF69
:10117200900143E0FFC201C2CC1FC3EF64809480A0
:101182005002E4FF900143EFF0120E98900143E009
:07119200FF120026020CCF42
:100FA400900142E0C201C2CC2405FFD3648094E4E2
:100FB40040027F64900142EFF01212BD900142E0C2
:100FC400FF1206C8900139E0FF1208A6D20A1213D4
:040FD40097020CCFA5
:100FD800900142E0C201C2CC24FBFFC3648094802C
:100FE8005002E4FF900142EFF01212BD900142E07E
:100FF800FF1206C8900139E0FF1208A6D20A1213A0
:0410080097020CCF70
:10112200C201C2CC900139E0B407057401F0800617
:10113200900139E004F0900139E0FF1208A6300274
:0911420005D20A121310020CCFB1
:1007C300E49000F4F0900144E09000F4F0C201C220
:1007D300CC7FF47E01020879900145E06402700346
:1007E30002087F30090D900144E0FF1206C8D20AC7
:1007F300121361A209B3502D90011EE0FFE4FD1214
:10080300142490011DE0FFE4FD12142490011CE068
:10081300FFE4FD12142490011BE0FFE4FD121424F5
:10082300D20A121361900145E0B40123C201C2CC84
:100833009000F4E02405F0E0D394C8400374C8F0BA
:100843009000F4E0900144F07F647E001212239044
:100853000145E064057081C201C2CC9000F4E0243C
:10086300FBF0E0C394005002E4F09000F4E0900148
:1008730044F07F647E001212230207DBD21390013F
:1008830042E0FF1206C8900139E0FF1208A6C20A2F
:10089300121361D20A121397300205D20A121310EF
:0308A300020CCF75
:100DBB00C201C2CC900141E004F0E0B4060374011F
:100DCB00F012109EC20A121397D20A12137C9001D2
:100DDB0041E0FF1206C8900141E0FF120E2D7FF497
:100DEB007E0112122312109EC20A12137CA215B39B
:100DFB00920A121310A215920A12132B900142E0C1
:100E0B00FF1206C8900139E0FF1208A6D20A12138E
:100E1B0097900143E0FF12002612106F120EE602AC
:020E2B0011E1D3
:10144C00C201C2CCD214B215A215920A12132B12DD
:05145C00106F020CCF2F
:1010F800D20A1213B2300317900143E0D394004090
:101108000EA208920A1213CDA208B3920A8007D23F
:0A1118000A1213CDC20A1213E822D6
:0E149800300408900145E07002FF227F01221F
:100F6A003004369000F27464F0900145E0701590F8
:100F7A0000F2E0D39400400CE014F07F0A7E0012E5
:100F8A00122380E59000F2E0700F12109EC202C296
:090F9A000A1213101214ECD21615
:010FA300222B
:050581004201490000E9
:10106F00301513300602800EC202C20A121310C2CC
:10107F00031214EC8009D202D20A121310D2039079
:0F108F000142E0FF1212BD900143E0FF020E98F4
:0B14BF00C2A6C2A5C2A4C2C4C2C322C0
:10120200A200E433FF900149E07003A3E06F601095
:1012120012106FA200E4FF33900149CFF0A3EFF068
:0112220022A9
:100EE6007F06120D4990014BEFF0900144E0FEEFB2
:100EF600C39E400BD20A121346D285A20992CC9009
:100F06000144E0FF90014BE0C39F501B201509C22E
:100F16000A121346C285D2CC30150C300609C20A15
:070F2600121346C285D2CC74
:010F2D0022A1
:101281003D3D3D3D3D3D3D3D20636F6465207374B3
:0F129100617274203D3D3D3D3D3D3D3D0D0A00E8
:100BC80043BA801212621214B31214371214751237
:100BD80014CA121488D288D2A8D2AFC2C2C2A3D271
:100BE800CC1211BFC2851214EC7BFF7A12798112E4
:100BF80001097FE87E0312122330160A121498EFB7
:100C080024FF921680F3C2A01214BF121403120F0D
:100C18002ED20A121397300205D20A121310C201FB
:100C2800C2CC1209691210F8121202120EE6120F43
:100C38006A3016EEC201C2CCD2A6D2A5D2A4D2C4C2
:060C4800D2C3D2A080AC73
:100AC200020BC8E493A3F8E493A34003F68001F277
:100AD20008DFF48029E493A3F85407240CC8C33335
:100AE200C4540F4420C8834004F456800146F6DF04
:100AF200E4800B0102040810204080900403E47E8D
:100B0200019360BCA3FF543F30E509541FFEE493F8
:100B1200A360010ECF54C025E060A840B8E493A3BF
:100B2200FAE493A3F8E493A3C8C582C8CAC583CAEA
:100B3200F0A3C8C582C8CAC583CADFE9DEE780BEA2
:010586000074
:10058700BB010689828A83E0225002E722BBFE0272
:09059700E32289828A83E49322A5
:1005A000BC000BBE0029EF8DF084FFADF022E4CC3F
:1005B000F875F008EF2FFFEE33FEEC33FCEE9DEC08
:1005C000984005FCEE9DFE0FD5F0E9E4CEFD22ED4E
:1005D000F8F5F0EE8420D21CFEADF075F008EF2F98
:1005E000FFED33FD4007985006D5F0F222C398FD89
:0505F0000FD5F0EA2226
:1005F500A3F8E0C5F025F0F0E582158270021583B9
:06060500E0C838F0E82215
:10060B00BB0110E58229F582E5833AF583E0F5F02D
:10061B00A3E0225009E92582F886F008E622BBFE0A
:10062B000AE92582F8E2F5F008E222E5832AF58350
:08063B00E993F5F0A3E9932215
:10009E00E50824F5F582E43400F583E005082290A6
:1000AE0000F23011039000F5E475F00112068202A1
:1000BE000587200AE97F2ED20A8018EF540F24906C
:1000CE00D43440D4FF300E0BEF24BFB41A005003CB
:1000DE002461FFE50960021509050CE50C700205A7
:1000EE000B30110E9000F2E475F001120682EF0251
:1000FE0006700214DC7403D2118003E4C211F508F9
:10010E009000F2120699E4F509F50BF50CE509607D
:10011E00077F201200E180F5750AFFC20BC20AC2EA
:10012E000CC20DC20FC210C2121200ADFF700D3004
:10013E0011057F001200F2AF0CAE0B22B4255FC288
:10014E00D5C20E1200ADFF24D0B40A00501A75F0BD
:10015E000A780930D50508B6FF0106C6A426F62092
:10016E00D5047002D20D80D924CFB41A00EF5004FA
:10017E00C2E5D20E0202F3D20B80C6D20A80C0D2E2
:10018E000C80BCD2D580BAD20F80B47F201200E191
:10019E00200C077401B5090040F112009EFF1200F9
:1001AE00E102011BD212D210809512009EFB1200AA
:1001BE009EFA12009EF94A4B700679C47A037BFFB1
:1001CE00200C2EE509602A7E008E827583001206B1
:1001DE004360060EEE650A70F0C2D5EBC0E0EAC0D1
:1001EE00E0E9C0E0EE12033AD0E0F9D0E0FAD0E058
:1001FE00FB120587FF60AAEBC0E0EAC0E0E9C0E0B1
:10020E001200E1D0E02401F9D0E03400FAD0E0FB96
:10021E00E50A0460DCD50AD980877BFF7A0379363C
:10022E00D20C809C791080027908C210C21280080C
:10023E00D2D5790A8004790AC2D5E50A047002F58E
:10024E000AE4FAFDFEFF12009EFC7B08200B13123F
:10025E00009EFD7B10300A0A12009EFE12009EFFC9
:10026E007B20EC3382D592D55013C3E4300A069F1F
:10027E00FFE49EFEE4200B039DFDE49CFCE4CBF822
:10028E00C20BEC700CCFCECDCCE824F8F870F38016
:10029E0017C3EF33FFEE33FEED33FDEC33FCEB33E0
:1002AE00FB994002FB0FD8E9EB300B05F8D0E0C408
:1002BE0048B20BC0E00AEC4D4E4F78207B0070C266
:1002CE00EAB50A0040BCC0E012033CD0F0D0E020FA
:1002DE000B04C4C0E0C4B20BC0F01200CAD0F0D5FB
:1002EE00F0EB02011B1206A201B85302325801892B
:1002FE004C01854202364F023E44023E49019E4366
:08030E000244550228460228B2
:100316004502284703E450018D2D01912E01B42B8F
:1003260001952301B22003CD2A014D48000001ACFE
:100336003F3F3F00790AA2D5200D14300F09B910AE
:10034600020404B9080104A2D520100250010420B9
:100356000C68920CB509005034C0E07F20300D19AE
:100366007F30A20C7210720F500F120393C20CC290
:1003760010C20FC2127F30800F300F03E9C0E012A7
:1003860000E1300F03D0E0F9D0E0B509CC300F170B
:100396007F30B9100C1200E17F58300E077F78804D
:1003A60003B908031200E1300C057F2D0200E17F3E
:1003B600202012F87F2B2010F322920C80CF286E7B
:1003C600756C6C2900D20B12009E300BF8C20B78AC
:1003D6000930D50108F602014D2D50434958120047
:1003E6009E2403B405004001E49003DF931200D27B
:0D03F600743A1200D2D20D750904020232D1
:10064300BB010CE58229F582E5833AF583E022506C
:1006530006E92582F8E622BBFE06E92582F8E222B6
:0D066300E58229F582E5833AF583E49322D0
:10067000BB010689828A83F0225002F722BBFE0169
:02068000F32263
:10068200F8E0FBA3A3E0F925F0F0E5821582700201
:070692001583E0FA38F022A5
:09069900EBF0A3EAF0A3E9F02262
:1006A200D083D082F8E4937012740193700DA3A3E7
:1006B20093F8740193F5828883E4737402936860FB
:0606C200EFA3A3A380DFFB
:00000001FF
