:030000000208B241
:0C08B200787FE4F6D8FD7581230208F978
:0C11FE00759D27E4F5BDF5BE75BCA02270
:100E9500E4FDFCEF44A842BCE5BC30E4FB53BCEFE9
:100EA500AFBEAD07AFBDEF75F004A4FFE5F0FCEDF7
:040EB5004FAE04FF39
:010EB9002216
:100F4300D3EF9400EE9400401600000075080B7573
:0F0F530009BED509FDD508FAEF1F70E41E80E135
:010F6200226C
:10119300D3EF9400EE9400400A000000EF1F70F0BC
:0411A3001E80ED229B
:0D000E00E4F5C7F5C5F5C675C380F5C4223D
:100F820075C78375C5018FC4EEF5C375C65A75C69C
:0D0F9200A57F0A7E00120F43AFC202000EC1
:100F630075C78375C5028FC4EEF5C3AF058FC27510
:0F0F7300C65A75C6A57F0A7E00120F4302000EF4
:100F9F0075C78375C5038FC4EEF5C375C65A75C67D
:0B0FAF00A57F0A7E00120F4302000E17
:100F0100E49000F5F0A3F0FFFE120F9F9000F5E0D2
:100F1100FEA3E0FF90014DE0FD120F63C209C2CCB8
:010F210022AD
:10002600900142E0900148F090014CE0900149F0C7
:1000360090014FE090014AF090014EE090014BF0A4
:1000460090014DE075F002A47F00FE9000F6F0A34B
:10005600EFF0120F9FE49000F5F09000F5E0FDC37D
:100066009404502BA3E0FEA3E0FF74482DF582E430
:100076003401F583E0FD120F639000F7E004F070A1
:10008600069000F6E004F09000F5E004F080CBC2A4
:0300960009C2CCD0
:010099002244
:09121400E4FFFE120F82020D4FEF
:100D4F00EF75F002A49000F6F0A3E4F09000F5F038
:100D5F009000F6E0FEA3E0FF120F829000F5E02472
:100D6F0048F582E43401F583EFF09000F5E004F0EC
:060D7F00E0C3940440DA19
:010D8500224B
:1011A700E4F592F591759609F595F5B2F5B175CA1D
:0411B70010F5C92244
:1004030060F20000011A0123012C0135013E01476E
:100413000151015A0164016E01770181018B01943D
:10042300019E01A801B201BC01C601CF01D901E3BC
:1004330001ED01F60200020A0213021D0226022F39
:1004430002380242024B0254025C0265026E0276DB
:10045300027F0287028F0297029F02A702AF02B6B2
:1004630002BE02C502CC02D302DA02E102E702EEC7
:1004730002F402FB03010307030D03120318031D18
:1004830003230328032D03320337033C03410345AE
:10049300034A034E03520356035A035E0362036681
:1004A300036A036D037103740378037B037E038183
:1004B30003840387038A038D038F039203950397B2
:1004C3000399039C039E03A003A303A503A703A906
:1004D30003AB03AD03AF03B103B203B403B603B875
:1004E30003B903BB03BC03BE03BF03C103C203C4FD
:0604F30003C503C603C7A8
:0E09C700900135EBF0A3EAF0A3E9F0A3EDF008
:1009D500E490013CF090013BF0900138E014FF9069
:1009E500013BE0FEC39F5055900135E0FBA3E0FAC3
:1009F500A3E0F975F002EEA4F58285F0831205E116
:100A0500FF900139E0FCA3E0FDC39FEC95F0402584
:100A1500A3E02401FFE433FEEF25E0FFEE33FE8F74
:100A2500828E831205E1FFC3ED9FEC95F050069091
:100A3500013BE0A3F090013BE004F0809C90013C79
:020A4500E0FFD0
:010A4700228C
:050B3700900143EFF006
:100B3C00900145740AF0E4A3F0A3F0900144F09006
:100B4C000145E0FF900144E0C39F501C900143E03D
:100B5C00FF120E95900147E02FF0900146E03EF019
:100B6C00900144E004F080D7900146E0FEA3E0FF42
:100B7C00900145E0FD7C00120576A3EEF0A3EFF0AA
:100B8C007B017A007900900146E0FFA3E0900139E7
:0C0B9C00CFF0A3EFF07D791209C77E00B6
:010BA800222A
:100EDF0075F10890FFF2740BF090FFF07410F0A30F
:100EEF00E4F090FF30F0A3F0A3F0A3740AF0A3E4B2
:020EFF00F022DF
:09121D0090FF32EEF0A3EFF02285
:0400060075F58822E2
:04001E00E4F5F522EE
:100CC900EFB407005044900CD6F8282873020CEBB7
:100CD900020CEE020CF4020CFA020D00020D0602DF
:100CE9000D0C02001E7FD07E07801C7F607E09806C
:100CF900167FF07E0A80107F807E0C800A7F107E2E
:0B0D09000E80047FA07E0F12121D223E
:1004F900C110C10EC189C18FC10DC18AC18BC18C07
:100509004101420141013D0041013E0041013F00DD
:1011BB00438E805389F0758CCD758AD4C28DD28CB9
:0311CB00D2A92284
:0A120A00538EBF53890F4389102251
:1011E10053D1FDE4F5D575D4DC43D10843AF2022BA
:030003000211CE19
:1011CE00D20CD20BD20A758BF0758DFFD20ED28E49
:0311DE00D2AB325F
:03000B0002000AE6
:01000A0032C3
:03001B0002093E99
:0A093E00C0E0C0F0C083C082C0D04A
:1009480090013DE004F0E0D3940F4004B210E4F0CD
:10095800300E57900142E014B407005043900973D9
:1009680075F003A4C58325F0C583730209880209BD
:100978008C02099202099602099C0209A20209A6A0
:10098800C20A801CC20AC20B8016C20A8006C20AAA
:10099800C20C800CC20BC20C8006C20B8002C20CB7
:1009A800C20E758BF7758DFF800AD20CD20BD20A56
:0409B800C28EC2AB7E
:0B09BC00D0D0D082D083D0F0D0E03249
:03009B00020D143F
:080D1400C0E0C083C082C0D022
:100D1C0020091290013EE004F0E0D3940A4006E46E
:100D2C00F0D209D2CC300F1290013FE004F0E0D3A6
:0A0D3C00940A4006D20DC20FE4F045
:090D4600D0D0D082D083D0E0327D
:10113400EF75F040A42420FFE5F034E4FE90014074
:09114400F0A3EFF0F58BEEF58D40
:01114D00227F
:10117E00759850438E01438E0475D7E875D6FF439C
:05118E008E10D2AC221E
:030023000211F1D6
:0D11F100309904C299C211309802C29832A0
:081226002011FDD2118F992265
:100DBB00900150EBF0A3EAF0A3E9F0900150E0FBB7
:100DCB00A3E0FAA3E0F912055D6017900150A3E4CC
:100DDB0075F0011205CBA9F0FA12055DFF12122670
:030DEB0080D9228A
:08122E008F993099FDC299224D
:10051900410124004101250041012600410131002A
:1005290041013200410133004101340047011DC33B
:10053900C6C7CACBCECF4A0127F505D39727B6F64A
:0305490015F7B7EC
:10114E00D2B6D2C1D2B7E4FF120E1CD2B67F441271
:0A115E000E1CD2B6120DEE0212367E
:100DEE00E49000F5F09000F5E0FFC39407501E74F8
:100DFE001D2FF582E43401F583E0FF120E1CE4FF93
:0D0E0E00120E1CD2B69000F5E004F080D862
:010E1B0022B4
:081236007F93120E1CD2B622B8
:03116800FFE0FDA8
:10116B009000F5EDF0120E1C9000F5E0FF120E1C36
:03117B00D2B622C7
:050E1C009000F6EFF06C
:100E21007F327E00121193C2B6E4FFC2C19000F678
:100E3100E0FE1392B7D2C1EEC313F00FEFB408EB8B
:070E41007F327E00021193D5
:10076300EF75F06484FDEF75F00A8475F00A84ABCD
:10077300F0EF75F00A84ACF0900132E05470F9F0B8
:10078300900131E4F0900126E4F0900125E0540853
:10079300F074272DF582E43401F583E0FFC4540F90
:1007A30049F9900132F0900131E04FF0900126E0D9
:1007B300FFAE0374272EF582E43401F583E0FEEFE8
:1007C3004E900126F0900125E0FFAE0474272EF52C
:1007D30082E43401F583E0FEEF4E900125F09001B1
:1007E30021E0FFAD0112116B900120E09001311265
:1007F300116890011FE090012612116890011EE01C
:09080300FF900125E0FD02116BDC
:100AC400AD07900134E05430F0EFB4070050579074
:100AD4000ADAF8282873020AEF020AF6020AFF0269
:100AE4000B08020B11020B1A020B23900134E0F0E5
:100AF4008034900134E04440F0802B900134E04491
:100B0400C0F08022900134E044C8F0801990013490
:100B1400E044CCF08010900134E044CEF0800790A3
:100B24000134E044CFF0900123E0FF900134E0FD74
:030B340002116B40
:10069E00AD07900133E05408F0900132E0540FF0B2
:1006AE00ED14B4070040030207499006C675F00327
:1006BE00A4C58325F0C583730206DB0206EB020692
:1006CE00FB02070B02071B02072B02073B900133AD
:1006DE00E04404F0900132E04440F0805E9001333B
:1006EE00E04402F0900132E04420F0804E9001335D
:1006FE00E04401F0900132E04410F0803E9001336E
:10070E00E04406F0900132E04460F0802E90013318
:10071E00E04403F0900132E04430F0801E9001334B
:10072E00E04405F0900132E04450F0800E90013329
:10073E00E04407F0900132E04470F0900122E0FFB7
:10074E00900133E0FD12116B900121E0FF90013218
:05075E00E0FD02116B3B
:100FBA00900133E054F7F0300004E04408F0900167
:0B0FCA0022E0FF900133E0FD02116BFC
:100FD500900124E054EFF0301204E04410F0900149
:0B0FE5001DE0FF900124E0FD02116BF5
:100FF000900124E054DFF0301304E04420F090012D
:0B1000001DE0FF900124E0FD02116BD9
:10100B00900133E0547FF0301404E04480F0900101
:0B101B0022E0FF900133E0FD02116BAA
:10102600900133E054BFF0301504E04440F09001E5
:0B10360022E0FF900133E0FD02116B8F
:10104100900133E054DFF0301604E04420F09001C9
:0B10510022E0FF900133E0FD02116B74
:10105C00900124E054BFF0301704E04440F09001BC
:0B106C001DE0FF900124E0FD02116B6D
:10107700900124E0547FF0300004E04480F09001B8
:0B1087001DE0FF900124E0FD02116B52
:10109200900125E054F7F0300004E04408F090019C
:0B10A2001EE0FF900125E0FD02116B35
:1010AD00900124E054F7F0301804E04408F090016A
:0B10BD001DE0FF900124E0FD02116B1C
:1010C800900124E054FBF0301904E04404F090014E
:0B10D8001DE0FF900124E0FD02116B01
:1010E300900134E054DFF0301A04E04420F0900122
:0B10F30023E0FF900134E0FD02116BD0
:1010FE00900133E054EFF0301B04E04410F0900107
:0B110E0022E0FF900133E0FD02116BB6
:10111900900134E054EFF0301C04E04410F09001E9
:0B11290023E0FF900134E0FD02116B99
:100C12005448452076616C7565206F66206D6F645F
:100C2200655F696E666F5B305D20697320256420A5
:100C32000D0A005448452076616C7565206F662068
:100C42006D6F64655F696E666F5B325D20697320EC
:100C52002564200D0A005448452076616C75652094
:100C62006F66206D6F64655F696E666F5B335D20D2
:090C72006973202564200D0A00BD
:10054C0041014F0041014E0041014D0041014C0061
:100C7B00E580540FFF300D4514601B14601D24FEDE
:100C8B00601E14602024FC602124FC6022240D7063
:100C9B002812123E8023120BA98017120F228012EA
:100CAB0012080C800D120E488008120E6F80031272
:0D0CBB000EBA7F327E00120F43D20FC20D21
:010CC8002209
:100E6F00C209C2CC90014FE004F0E0D394064003D6
:100E7F007406F090014FE0FF120CC990014FE0FF94
:060E8F00120AC402002655
:100EBA00C209C2CC90014FE014F0E0C39400500282
:100ECA00E4F090014FE0FF120CC990014FE0FF12CD
:050EDA000AC40200261D
:100BA90090014EE0C209C2CC2405FFD3648094E4CD
:100BB90040027F6490014EEFF012113490014EE033
:100BC900FF1207631200267BFF7A0C791290014805
:100BD900E0FF9000F8E4F0A3EFF01201097BFF7A3F
:100BE9000C793590014AE0FF9000F8E4F0A3EFF0AA
:100BF9001201097BFF7A0C795890014BE0FF9000B4
:090C0900F8E4F0A3EFF002010988
:100E480090014EE0C209C2CC24FBFFC364809480A9
:100E58005002E4FF90014EEFF012113490014EE081
:070E6800FF120763020026E0
:100F2200C209C2CC900142E0B407057401F0800608
:100F3200900142E004F0900142E0FF12069E02009E
:010F42002688
:10080C00C209C2CC90014DE0B405057401F080061C
:10081C0090014DE004F0120DEED200121077900111
:10082C004DE0FF120763C20012109290014DE0FFE1
:10083C00120D4F7FE87E03120F43C200121077D2C5
:10084C0000120FBA7BFF7A0C7912900148E0FF90EE
:10085C0000F8E4F0A3EFF01201097BFF7A0C793574
:10086C0090014AE0FF9000F8E4F0A3EFF0120109C8
:10087C007BFF7A0C795890014BE0FF9000F8E4F084
:10088C00A3EFF0120109900148E0FF12069E9001BF
:10089C004BE0FF120763D20012109290014AE0FF66
:0608AC00120AC4020F0154
:03123E00020DEEB0
:100D86003D3D3D3D3D3D3D3D636F64652073746172
:100D960072743D3D3D3D3D3D3D3D0D0A0074686527
:100DA6002076616C7565206F66206164647220250B
:050DB60064200D0A009D
:100A48009000F27402F0A3E4F043BA801211A712E6
:100A580011FE12117E1211BB12120A1211E1D2AF4D
:100A6800C2A0C2A3120EDF12000612114E121214F7
:100A78007FD07E0712121D7BFF7A0D79861201093D
:100A8800E49000F4F07BFF7A0D79A39000F2E0FF88
:100A9800A3E09000F8CFF0A3EFF01201099000F363
:100AA800E004F070069000F2E004F09000F4E00436
:0C0AB800F0E0C3940A40CE120C7B80FBDF
:1008BE00020A48E493A3F8E493A34003F68001F2FE
:1008CE0008DFF48029E493A3F85407240CC8C3333B
:1008DE00C4540F4420C8834004F456800146F6DF0A
:1008EE00E4800B0102040810204080900403E47E93
:1008FE00019360BCA3FF543F30E509541FFEE493FF
:10090E00A360010ECF54C025E060A840B8E493A3C5
:10091E00FAE493A3F8E493A3C8C582C8CAC583CAF0
:10092E00F0A3C8C582C8CAC583CADFE9DEE780BEA8
:01055C00009E
:10055D00BB010689828A83E0225002E722BBFE029C
:09056D00E32289828A83E49322CF
:10057600BC000BBE0029EF8DF084FFADF022E4CC69
:10058600F875F008EF2FFFEE33FEEC33FCEE9DEC32
:10059600984005FCEE9DFE0FD5F0E9E4CEFD22ED78
:1005A600F8F5F0EE8420D21CFEADF075F008EF2FC2
:1005B600FFED33FD4007985006D5F0F222C398FDB3
:0505C6000FD5F0EA2250
:1005CB00A3F8E0C5F025F0F0E582158270021583E3
:0605DB00E0C838F0E82240
:1005E100BB0110E58229F582E5833AF583E0F5F058
:1005F100A3E0225009E92582F886F008E622BBFE35
:100601000AE92582F8E2F5F008E222E5832AF5837A
:08061100E993F5F0A3E993223F
:10009E00E50824F8F582E43400F583E005082290A3
:1000AE0000F53007039000F8E475F00112065802CF
:1000BE00055D2000E97F2ED2008018EF540F2490AA
:1000CE00D43440D4FF30040BEF24BFB41A005003D5
:1000DE002461FFE50960021509050CE50C700205A7
:1000EE000B30070E9000F5E475F001120658EF0282
:1000FE00064602122E7403D2078003E4C207F508E7
:10010E009000F512066FE4F509F50BF50CE50960A4
:10011E00077F201200E180F5750AFFC201C200C2FE
:10012E0002C203C205C206C2081200ADFF700D3036
:10013E0007057F001200F2AF0CAE0B22B4255FC292
:10014E00D5C2041200ADFF24D0B40A00501A75F0C7
:10015E000A780930D50508B6FF0106C6A426F62092
:10016E00D5047002D20380D924CFB41A00EF500404
:10017E00C2E5D2040202F3D20180C6D20080C0D200
:10018E000280BCD2D580BAD20580B47F201200E1A5
:10019E002002077401B5090040F112009EFF120003
:1001AE00E102011BD208D206809512009EFB1200BE
:1001BE009EFA12009EF94A4B700679C47A037BFFB1
:1001CE0020022EE509602A7E008E827583001206BB
:1001DE001960060EEE650A70F0C2D5EBC0E0EAC0FB
:1001EE00E0E9C0E0EE12033AD0E0F9D0E0FAD0E058
:1001FE00FB12055DFF60AAEBC0E0EAC0E0E9C0E0DB
:10020E001200E1D0E02401F9D0E03400FAD0E0FB96
:10021E00E50A0460DCD50AD980877BFF7A0379363C
:10022E00D202809C791080027908C206C20880082A
:10023E00D2D5790A8004790AC2D5E50A047002F58E
:10024E000AE4FAFDFEFF12009EFC7B082001131249
:10025E00009EFD7B1030000A12009EFE12009EFFD3
:10026E007B20EC3382D592D55013C3E43000069F29
:10027E00FFE49EFEE42001039DFDE49CFCE4CBF82C
:10028E00C201EC700CCFCECDCCE824F8F870F38020
:10029E0017C3EF33FFEE33FEED33FDEC33FCEB33E0
:1002AE00FB994002FB0FD8E9EB300105F8D0E0C412
:1002BE0048B201C0E00AEC4D4E4F78207B0070C270
:1002CE00EAB50A0040BCC0E012033CD0F0D0E020FA
:1002DE000104C4C0E0C4B201C0F01200CAD0F0D50F
:1002EE00F0EB02011B12067801B853023258018955
:1002FE004C01854202364F023E44023E49019E4366
:08030E000244550228460228B2
:100316004502284703E450018D2D01912E01B42B8F
:1003260001952301B22003CD2A014D48000001ACFE
:100336003F3F3F00790AA2D5200314300509B910C2
:10034600020404B9080104A2D520060250010420C3
:1003560002689202B509005034C0E07F20300319CC
:100366007F30A20272067205500F120393C202C2B8
:1003760006C205C2087F30800F300503E9C0E012CF
:1003860000E1300503D0E0F9D0E0B509CC3005171F
:100396007F30B9100C1200E17F583004077F788057
:1003A60003B908031200E13002057F2D0200E17F48
:1003B600202008F87F2B2006F322920280CF286E99
:1003C600756C6C2900D20112009E3001F8C20178CA
:1003D6000930D50108F602014D2D50434958120047
:1003E6009E2403B405004001E49003DF931200D27B
:0D03F600743A1200D2D203750904020232DB
:10061900BB010CE58229F582E5833AF583E0225096
:1006290006E92582F8E622BBFE06E92582F8E222E0
:0D063900E58229F582E5833AF583E49322FA
:10064600BB010689828A83F0225002F722BBFE0193
:02065600F3228D
:10065800F8E0FBA3A3E0F925F0F0E582158270022B
:070668001583E0FA38F022CF
:09066F00EBF0A3EAF0A3E9F0228C
:10067800D083D082F8E4937012740193700DA3A311
:1006880093F8740193F5828883E473740293686025
:06069800EFA3A3A380DF25
:00000001FF
