:030000000206A253
:0C06A200787FE4F6D8FD7581210206E99E
:0C0AD200759D27E4F5BDF5BE75BCA022A3
:1009E200E4FDFCEF44A842BCE5BC30E4FB53BCEFA1
:1009F200AFBEAD07AFBDEF75F004A4FFE5F0FCEDAF
:040A02004FAE04FFF0
:010A060022CD
:100A0700D3EF9400EE94004016000000751D0B759F
:0F0A17001EBED51EFDD51DFAEF1F70E41E80E137
:010A260022AD
:0D000E00E4F5C7F5C5F5C675C380F5C4223D
:100A460075C78375C5018FC4EEF5C375C65A75C6DD
:0D0A5600A57F0A7E00120A07AFC202000E43
:100A270075C78375C5028FC4EEF5C3AF058FC27551
:0F0A3700C65A75C6A57F0A7E00120A0702000E76
:100A630075C78375C5038FC4EEF5C375C65A75C6BE
:0B0A7300A57F0A7E00120A0702000E99
:0F0AB600E4F592F591F5B2F5B175CA10F5C922C4
:1005920060F20000011A0123012C0135013E0147DE
:1005A2000151015A0164016E01770181018B0194AD
:1005B200019E01A801B201BC01C601CF01D901E32C
:1005C20001ED01F60200020A0213021D0226022FA9
:1005D20002380242024B0254025C0265026E02764B
:1005E200027F0287028F0297029F02A702AF02B622
:1005F20002BE02C502CC02D302DA02E102E702EE37
:1006020002F402FB03010307030D03120318031D87
:1006120003230328032D03320337033C034103451D
:10062200034A034E03520356035A035E03620366F0
:10063200036A036D037103740378037B037E0381F2
:1006420003840387038A038D038F03920395039721
:100652000399039C039E03A003A303A503A703A975
:1006620003AB03AD03AF03B103B203B403B603B8E4
:1006720003B903BB03BC03BE03BF03C103C203C46C
:0606820003C503C603C717
:0E072E00900126EBF0A3EAF0A3E9F0A3EDF0B2
:10073C00E490012DF090012CF0900129E014FF9031
:10074C00012CE0FEC39F5055900126E0FBA3E0FA7C
:10075C00A3E0F975F002EEA4F58285F0831204870C
:10076C00FF90012AE0FCA3E0FDC39FEC95F040252F
:10077C00A3E02401FFE433FEEF25E0FFEE33FE8F10
:10078C00828E83120487FFC3ED9FEC95F050069088
:10079C00012CE0A3F090012CE004F0809C90012D42
:0207AC00E0FF6C
:0107AE002228
:0500260090012EEFF037
:10002B00900130740AF0E4A3F0A3F090012FF0904C
:10003B000130E0FF90012FE0C39F501C90012EE098
:10004B00FF1209E2900132E02FF0900131E03EF017
:10005B0090012FE004F080D7900131E0FEA3E0FF88
:10006B00900130E0FD7C0012041CA3EEF0A3EFF036
:10007B007B017A007900900131E0FFA3E090012A27
:0C008B00CFF0A3EFF07D7912072E7E006D
:010097002246
:1006880044011A0000000044011E0000000044015B
:0506980022000000003B
:100A9300438E805389F0758CCD758AD4C28DD28CE8
:030AA300D2A922B3
:0C0ADE00538EBF53890F438910D2AB2206
:100AA60053D1FDE4F5D575D4DC43D10843AF2022FC
:03000B0002089B4D
:10089B00C0E0C0F0C083C082C0D075D01090011AE8
:1008AB00E0FCA3E0FDA3E0FEA3E02401FFE43EFE99
:1008BB00E43DFDE43CFC90011A1204D0E47F107E71
:1008CB0027FDFC90011AE0F8A3E0F9A3E0FAA3E0FE
:1008DB00FBD31204BF400A90011A1204DC00000083
:0C08EB0000D0D0D082D083D0F0D0E0321A
:03001B000208F7E1
:1008F700C0E0C0F0C083C082C0D075D00890011E90
:10090700E0FCA3E0FDA3E0FEA3E02401FFE43EFE3C
:10091700E43DFDE43CFC90011E1204D0E47F107E10
:1009270027FDFC90011EE0F8A3E0F9A3E0FAA3E09D
:10093700FBD31204BF400A90011E1204DC00000022
:0C09470000D0D0D082D083D0F0D0E032BD
:03009B000207AFAA
:1007AF00C0E0C0F0C083C082C0D075D000C000C010
:1007BF0001C002C003C004C005C006C007900122DB
:1007CF00E0FCA3E0FDA3E0FEA3E02401FFE43EFE76
:1007DF00E43DFDE43CFC9001221204D0E47F107E46
:1007EF0027FDFC900122E0F8A3E0F9A3E0FAA3E0D3
:1007FF00FBD31204BF400A9001221204DC00000058
:10080F0000D007D006D005D004D003D002D001D03D
:0C081F0000D0D0D082D083D0F0D0E032E6
:100A7E00759850438E01438E0475D7E875D6FF43A3
:050A8E008E10D2AC2225
:03002300020AC509
:0D0AC500309904C299C209309802C29832DB
:080003002009FDD2098F9922AA
:1009AF00900133EBF0A3EAF0A3E9F0900133E0FB01
:1009BF00A3E0FAA3E0F91204036017900133A3E454
:1009CF0075F001120471A9F0FA120403FF1200036B
:0309DF0080D9229A
:080AEA008F993099FDC2992299
:100953003D3D3D3D3D3D3D3D636F646520737461A9
:1009630072743D3D3D3D3D3D3D3D0D0A00636E745A
:100973003127732076616C206973203A2025640D3A
:100983000A00636E743227732076616C20697320CA
:100993003A2025640D0A00636E7433277320766151
:0C09A3006C206973203A2025640D0A00C6
:04069D0041013600E1
:10082B0043BA80120AB6120AD2120A7E120A931225
:10083B000ADE120AA6D2AF7BFF7A0979531201099D
:10084B007BFF7A09797090011AA3A3E0FFA3E090D4
:10085B0000F5CFF0A3EFF01201097BFF7A09798540
:10086B0090011EA3A3E0FFA3E09000F5CFF0A3EF50
:10087B00F01201097BFF7A09799A900122A3A3E078
:10088B00FFA3E09000F5CFF0A3EFF012010980B0C9
:1006AE0002082BE493A3F8E493A34003F68001F22F
:1006BE0008DFF48029E493A3F85407240CC8C3334D
:1006CE00C4540F4420C8834004F456800146F6DF1C
:1006DE00E4800B0102040810204080900592E47E15
:1006EE00019360BCA3FF543F30E509541FFEE49311
:1006FE00A360010ECF54C025E060A840B8E493A3D8
:10070E00FAE493A3F8E493A3C8C582C8CAC583CA02
:10071E00F0A3C8C582C8CAC583CADFE9DEE780BEBA
:0106A1000058
:10040300BB010689828A83E0225002E722BBFE02F7
:09041300E32289828A83E493222A
:10041C00BC000BBE0029EF8DF084FFADF022E4CCC4
:10042C00F875F008EF2FFFEE33FEEC33FCEE9DEC8D
:10043C00984005FCEE9DFE0FD5F0E9E4CEFD22EDD3
:10044C00F8F5F0EE8420D21CFEADF075F008EF2F1D
:10045C00FFED33FD4007985006D5F0F222C398FD0E
:05046C000FD5F0EA22AB
:10047100A3F8E0C5F025F0F0E5821582700215833E
:06048100E0C838F0E8229B
:10048700BB0110E58229F582E5833AF583E0F5F0B3
:10049700A3E0225009E92582F886F008E622BBFE90
:1004A7000AE92582F8E2F5F008E222E5832AF583D6
:0804B700E993F5F0A3E993229B
:1004BF00EB9FF5F0EA9E42F0E99D42F0E89C45F093
:0104CF00220A
:0C04D000ECF0A3EDF0A3EEF0A3EFF0229F
:1004DC00A8828583F0D083D0821204F31204F31225
:1004EC0004F31204F3E473E493A3C583C5F0C5834A
:1004FC00C8C582C8F0A3C583C5F0C583C8C582C86A
:01050C0022CC
:10009E00E51824F5F582E43400F583E00518229086
:1000AE0000F23007039000F5E475F00112054C02E2
:1000BE0004032000E97F2ED2008018EF540F249005
:1000CE00D43440D4FF30040BEF24BFB41A005003D5
:1000DE002461FFE51960021519051CE51C70020567
:1000EE001B30070E9000F2E475F00112054CEF0282
:1000FE00053A020AEA7403D2078003E4C207F51830
:10010E009000F2120563E4F519F51BF51CE5196074
:10011E00077F201200E180F5751AFFC201C200C2EE
:10012E0002C203C205C206C2081200ADFF700D3036
:10013E0007057F001200F2AF1CAE1B22B4255FC272
:10014E00D5C2041200ADFF24D0B40A00501A75F0C7
:10015E000A781930D50508B6FF0106C6A426F62082
:10016E00D5047002D20380D924CFB41A00EF500404
:10017E00C2E5D2040202F3D20180C6D20080C0D200
:10018E000280BCD2D580BAD20580B47F201200E1A5
:10019E002002077401B5190040F112009EFF1200F3
:1001AE00E102011BD208D206809512009EFB1200BE
:1001BE009EFA12009EF94A4B700679C47A037BFFB1
:1001CE0020022EE519602A7E008E827583001205AC
:1001DE000D60060EEE651A70F0C2D5EBC0E0EAC0F7
:1001EE00E0E9C0E0EE12033AD0E0F9D0E0FAD0E058
:1001FE00FB120403FF60AAEBC0E0EAC0E0E9C0E036
:10020E001200E1D0E02401F9D0E03400FAD0E0FB96
:10021E00E51A0460DCD51AD980877BFF7A0379361C
:10022E00D202809C791080027908C206C20880082A
:10023E00D2D5790A8004790AC2D5E51A047002F57E
:10024E001AE4FAFDFEFF12009EFC7B082001131239
:10025E00009EFD7B1030000A12009EFE12009EFFD3
:10026E007B20EC3382D592D55013C3E43000069F29
:10027E00FFE49EFEE42001039DFDE49CFCE4CBF82C
:10028E00C201EC700CCFCECDCCE824F8F870F38020
:10029E0017C3EF33FFEE33FEED33FDEC33FCEB33E0
:1002AE00FB994002FB0FD8E9EB300105F8D0E0C412
:1002BE0048B201C0E00AEC4D4E4F78207B0070C270
:1002CE00EAB51A0040BCC0E012033CD0F0D0E020EA
:1002DE000104C4C0E0C4B201C0F01200CAD0F0D50F
:1002EE00F0EB02011B12056C01B853023258018962
:1002FE004C01854202364F023E44023E49019E4366
:08030E000244550228460228B2
:100316004502284703E450018D2D01912E01B42B8F
:1003260001952301B22003CD2A014D48000001ACFE
:100336003F3F3F00790AA2D5200314300509B910C2
:10034600020404B9080104A2D520060250010420C3
:1003560002689202B519005034C0E07F20300319BC
:100366007F30A20272067205500F120393C202C2B8
:1003760006C205C2087F30800F300503E9C0E012CF
:1003860000E1300503D0E0F9D0E0B519CC3005170F
:100396007F30B9100C1200E17F583004077F788057
:1003A60003B908031200E13002057F2D0200E17F48
:1003B600202008F87F2B2006F322920280CF286E99
:1003C600756C6C2900D20112009E3001F8C20178CA
:1003D6001930D50108F602014D2D50434958120037
:1003E6009E2403B405004001E49003DF931200D27B
:0D03F600743A1200D2D203751904020232CB
:10050D00BB010CE58229F582E5833AF583E02250A3
:10051D0006E92582F8E622BBFE06E92582F8E222ED
:0D052D00E58229F582E5833AF583E4932207
:10053A00BB010689828A83F0225002F722BBFE01A0
:02054A00F3229A
:10054C00F8E0FBA3A3E0F925F0F0E5821582700238
:07055C001583E0FA38F022DC
:09056300EBF0A3EAF0A3E9F02299
:10056C00D083D082F8E4937012740193700DA3A31E
:10057C0093F8740193F5828883E473740293686032
:06058C00EFA3A3A380DF32
:00000001FF
