:03000000020A5A97
:0C0A5A00787FE4F6D8FD758122020AA125
:0C145400759D27E4F5BDF5BE75BCA02217
:1010E600E4FDFCEF1444A842BCE5BC30E4FB53BC71
:1010F600EFAFBEAD07AFBDEF75F004A4FFE5F0FCA2
:05110600ED4FAE04FFF7
:01110B0022C1
:1011B600D3EF9400EE9400401600000075080B75FE
:0F11C60009BED509FDD508FAEF1F70E41E80E1C0
:0111D50022F7
:10140200D3EF9400EE9400400A000000EF1F70F04A
:041412001E80ED2229
:0D000E00E4F5C7F5C5F5C675C380F5C4223D
:1011F50075C78375C5018FC4EEF5C375C65A75C627
:0D120500A57F0A7E001211B6AFC202000ED6
:1011D60075C78375C5028FC4EEF5C3AF058FC2759B
:0F11E600C65A75C6A57F0A7E001211B602000E0A
:10124C0075C78375C5038FC4EEF5C375C65A75C6CD
:0B125C00A57F0A7E001211B602000EF2
:10115300E49000F4F0A3F0FFFE12124C9000F4E0D0
:10116300FEA3E0FF900141E0FD1211D6C201C2CC03
:011173002259
:100BED00900139E090013CF0A215E433A3F090019F
:100BFD0043E090013EF0900142E090013FF0900102
:100C0D0044E0900140F0900141E075F002A47F00B6
:100C1D00FE9000F6F0A3EFF012124CE49000F5F008
:100C2D009000F5E0FDC39405502BA3E0FEA3E0FF7B
:100C3D00743C2DF582E43401F583E0FD1211D6905C
:100C4D0000F7E004F070069000F6E004F09000F577
:090C5D00E004F080CBC201C2CC1E
:010C6600226B
:100ED900E4FFFE1211F5900141EFF0120DBAA202E2
:100EE900920A121282D20A121309A215920A121236
:100EF9009D900142E0FF1209B7900139E0FF120706
:0C0F0900A5900143E0FF12002602110C2D
:100DBA00EF75F002A49000F5F0A3E4F09000F4F0CF
:100DCA009000F5E0FEA3E0FF1211F59000F4E02494
:100DDA003CF582E43401F583EFF09000F6E004F08C
:100DEA0070069000F5E004F09000F4E004F0E0C32F
:100DFA00940540CC90013CE0900139F090013DE02F
:100E0A0024FF9215A3E0900143F090013FE0900186
:0A0E1A0042F0900140E0900144F026
:010E240022AB
:10137500759280E4F59175967FF595F5B2F5B175A1
:0A138500B41CF5B375CA10F5C922B7
:1004030060F20000011A0123012C0135013E01476E
:100413000151015A0164016E01770181018B01943D
:10042300019E01A801B201BC01C601CF01D901E3BC
:1004330001ED01F60200020A0213021D0226022F39
:1004430002380242024B0254025C0265026E0276DB
:10045300027F0287028F0297029F02A702AF02B6B2
:1004630002BE02C502CC02D302DA02E102E702EEC7
:1004730002F402FB03010307030D03120318031D18
:1004830003230328032D03320337033C03410345AE
:10049300034A034E03520356035A035E0362036681
:1004A300036A036D037103740378037B037E038183
:1004B30003840387038A038D038F039203950397B2
:1004C3000399039C039E03A003A303A503A703A906
:1004D30003AB03AD03AF03B103B203B403B603B875
:1004E30003B903BB03BC03BE03BF03C103C203C4FD
:0604F30003C503C603C7A8
:0E0B6C009000F7EBF0A3EAF0A3E9F0A3EDF0A0
:100B7A00E49000FEF09000FDF09000FAE014FF907F
:100B8A0000FDE0FEC39F50559000F7E0FBA3E0FA9A
:100B9A00A3E0F975F002EEA4F58285F08312060B44
:100BAA00FF9000FBE0FCA3E0FDC39FEC95F040251D
:100BBA00A3E02401FFE433FEEF25E0FFEE33FE8FCE
:100BCA00828E8312060BFFC3ED9FEC95F0500690C0
:100BDA0000FDE0A3F09000FDE004F0809C9000FE90
:020BEA00E0FF2A
:010BEC0022E6
:050C67009000F2EFF027
:100C6C009000F4740AF0E4A3F0A3F09000F3F09079
:100C7C0000F4E0FF9000F3E0C39F501C9000F2E002
:100C8C00FF1210E69000F6E02FF09000F5E03EF039
:100C9C009000F3E004F080D79000F5E0FEA3E0FFB5
:100CAC009000F4E0FD7C001205A0A3EEF0A3EFF0A1
:100CBC007B017A0079009000F5E0FFA3E09000FB47
:0C0CCC00CFF0A3EFF07D79120B6C7E00DE
:010CD80022F9
:1011310075F10890FFF2740BF090FFF07410F0A3BA
:10114100E4F090FF30F0A3F0A3F0A3740AF0A3E45D
:02115100F0228A
:101267009000F4EEF0A3EFF01200069000F4E0FF18
:0B127700A3E090FF32CFF0A3EFF022C5
:0400060075F58822E2
:04001E00E4F5F522EE
:100E8B0030034AEFB407005044900E9BF8282873A8
:100E9B00020EB0020EB3020EB9020EBF020EC50255
:100EAB000ECB020ED102001E7FD07E07801C7F402E
:100EBB007E0680167FB07E0480107F207E03800A22
:0E0ECB007FF47E0180047F0A7E0012126722EF
:1004F900C108C109C105C181C187C104C106C18241
:10050900C183C1004101390142013AE4204101326C
:1005190000410133004101340041013500410136F8
:09052900004101370041013800D6
:10141600438E805389F0758CCD758AD4C28DD28C5B
:03142600D2A92226
:0A146B00538EBF53890F43891022EE
:1014290053D1FDE4F5D575D4DC43D10843AF20226F
:03000300020FE405
:100FE400C0E0C083C082C0D075D000C006D2A2D2F7
:100FF400A1D29790013AE0FEA3E0F58BEEF58DD2F5
:1010040005D28ED2ABD006D0D0D082D083D0E032FD
:03000B0002000AE6
:01000A0032C3
:03001B00020AE6F0
:100AE600C0E0C0F0C083C082C0D03005643002616F
:100AF600900139E014B40700504D900B0E75F003C9
:100B0600A4C58325F0C58373020B23020B2B020BAE
:100B16002F020B33020B3B020B3F020B47C297D24D
:100B2600A1D2A28022D2978006D297800EC297C207
:100B3600A1D2A28012D297800AC297D2A1C2A28065
:100B460006C297C2A1C2A2C205758BF7758DFF803A
:100B56000AD2A2D2A1D297C28EC2ABD0D0D082D0B6
:060B660083D0F0D0E03264
:03009B0002091245
:08091200C0E0C083C082C0D028
:10091A00900137E004F0E0D3940F4004B208E4F009
:10092A00900138E004F0E0D394324004B209E4F0D4
:10093A00900134E004F0E0D39405400AE4F0E58045
:10094A00540F900145F0301410900135E004F0E0A6
:10095A00D394964004C214E4F0301310900136E0A8
:10096A0004F0E0D394964004C213E4F020011290FC
:10097A000132E004F0E0D3940A4006E4F0D201D256
:10098A00CC300712900133E004F0E0D3940A400619
:10099A00D204C207E4F0208704D206D200308704CA
:0409AA00C206C200BF
:0909AE00D0D0D082D083D0E03219
:10121200300204D2AB8002C2ABEF75F040A42420AE
:0D122200FEE5F034E490013AF0A3CEF02296
:1013D800759850438E01438E0475D7E875D6FF4340
:0513E8008E10D2AC22C2
:030023000214477D
:0D144700309904C299C217309802C2983241
:081475002017FDD2178F992208
:100FB100900146EBF0A3EAF0A3E9F0900146E0FBD3
:100FC100A3E0FAA3E0F91205876017900146A3E4B4
:100FD10075F0011205F5A9F0FA120587FF121475D3
:030FE10080D92292
:08147D008F993099FDC29922FC
:1005320041012100410122004101230041012E001D
:1005420041012F00410130004101310047011AC32E
:10055200C6C7CACBCECF4A0124F505D39727B6F634
:0305620015F7B7D3
:10138F00D2B6D2C1D2B7E4FF121042D2B67F441206
:0A139F001042D2B612101402148599
:10101400E49000F4F09000F4E0FFC39407501E74D1
:101024001A2FF582E43401F583E0FF121042E4FF45
:0D103400121042D2B69000F4E004F080D813
:01104100228C
:081485007F93121042D2B6223F
:0313C200FFE0FD4C
:1013C5009000F5EDF01210429000F5E0FF1210428A
:0313D500D2B6226B
:051042009000F6EFF044
:101047007F327E00121402C2B6E4FFC2C19000F6DE
:10105700E0FE1392B7D2C1EEC313F00FEFB408EB63
:071067007F327E000214023B
:1009B700EF75F06484FDEF75F00A8475F00A84AB77
:1009C700F0EF75F00A84ACF090012FE4F090012E5F
:1009D700E4F0900123E4F0900122E4F074242DF573
:1009E70082E43401F583E0FFC4540FF990012FF03E
:1009F70090012EE04FF0900123E0FFAE0374242E08
:100A0700F582E43401F583E0FEEF4E900123F09088
:100A17000122E0FFAE0474242EF582E43401F5834D
:100A2700E0FEEF4E900122F090011EE0FFAD0112B3
:100A370013C590011DE090012E1213C290011CE016
:100A47009001231213C290011BE0FF900122E0FDE9
:030A57000213C5C2
:10002600AD07900131E05430F0EFB407005057901F
:10003600003CF828287302005102005802006102B1
:10004600006A02007302007C020085900131E0F034
:100056008034900131E04440F0802B900131E0443F
:10006600C0F08022900131E044C8F080199001313F
:10007600E044CCF08010900131E044CEF08007904F
:100086000131E044CFF0900120E0FF900131E0FD26
:030096000213C58D
:1007A500AD07900130E05480F090012FE0540FF038
:1007B500ED14B4070040030208509007CD75F0030F
:1007C500A4C58325F0C583730207E20207F2020878
:1007D5000202081202082202083202084290013081
:1007E500E04404F090012FE04440F0805E90013039
:1007F500E04402F090012FE04420F0804E9001305B
:10080500E04401F090012FE04410F0803E9001306B
:10081500E04406F090012FE04460F0802E90013016
:10082500E04403F090012FE04430F0801E90013049
:10083500E04405F090012FE04450F0800E90013027
:10084500E04407F090012FE04470F090011FE0FFB5
:10085500900130E0FD1213C590011EE0FF90012FBD
:05086500E0FD0213C5D7
:10128200900130E054F7F0300A04E04408F0900195
:0B1292001FE0FF900130E0FD0213C5DB
:10129D00900121E054EFF0300A04E04410F0900189
:0B12AD001AE0FF900121E0FD0213C5D4
:1012B800900121E054DFF0300A04E04420F090016E
:0B12C8001AE0FF900121E0FD0213C5B9
:1012D300900121E054BFF0300A04E04440F0900153
:0B12E3001AE0FF900121E0FD0213C59E
:1012EE00900121E0547FF0300A04E04480F0900138
:0B12FE001AE0FF900121E0FD0213C583
:10130900900122E054F7F0300A04E04408F090011B
:0B1319001BE0FF900122E0FD0213C565
:10132400900131E054DFF0300A04E04420F09001F1
:0B13340020E0FF900131E0FD0213C536
:10133F00900130E054EFF0300A04E04410F09001D7
:0B134F001FE0FF900130E0FD0213C51D
:10135A00900131E054EFF0300A04E04410F09001BB
:0B136A0020E0FF900131E0FD0213C500
:10056500C196C115410143004101420041014100CD
:0C0575004101445041014500C114C11374
:10086A00200403020911900145E024FE601B24FEC6
:10087A00604A14607A24FC607B24FC607C240C604F
:10088A000302090D120F1580739000F27464F09040
:10089A000145E0B402159000F2E0D39400400CE068
:1008AA0014F07F0A7E001211B680E49000F2E07024
:1008BA00031206C820130312117480409000F374C7
:1008CA0064F0900145E0B404159000F3E0D394007D
:1008DA00400CE014F07F0A7E001211B680E490000A
:1008EA00F3E070031213ED201403120D4B800D1266
:1008FA000F49800812109880031210BF7F327E00C1
:07090A001211B6D207C2046E
:0109110022C3
:10109800900143E0FFC201C2CC0FD3EF6480948675
:1010A80040027F06900143EFF0120E8B900143E05F
:0710B800FF120026020BED00
:1010BF00900143E0FFC201C2CC1FC3EF6480948054
:1010CF005002E4FF900143EFF0120E8B900143E0CA
:0710DF00FF120026020BEDD9
:100F1500900142E0C201C2CC2405FFD3648094E471
:100F250040027F64900142EFF0121212900142E0FC
:100F3500FF1209B7900139E0FF1207A5D20A121373
:040F450009020BEDA5
:100F4900900142E0C201C2CC24FBFFC364809480BB
:100F59005002E4FF900142EFF0121212900142E0B8
:100F6900FF1209B7900139E0FF1207A5D20A12133F
:040F790009020BED71
:10117400C201C2CC900139E0B407057401F08006C5
:10118400900139E004F0900139E0FF1207A5020B49
:01119400ED6D
:1006C800E49000F4F0900144E09000F4F0C201C21C
:1006D800CC7FF47E01020785900145E06402700337
:1006E80002078B30090D900144E0FF1209B7D20AC6
:1006F8001212D3A209B3502D90011EE0FFE4FD129F
:1007080013C590011DE0FFE4FD1213C590011CE024
:10071800FFE4FD1213C590011BE0FFE4FD1213C5B1
:10072800D20A1212D3900145E0B40125C201C2CC0D
:100738009000F4E02405F0E0D3648094E44003746E
:1007480064F09000F4E0900144F07F647E001211A0
:10075800B6900145E0640560030206E0C201C2CC20
:100768009000F4E024FBF0E0C3648094805002E43D
:10077800F09000F4E0900144F07F647E001211B61E
:100788000206E0D213900142E0FF1209B790013946
:0D079800E0FF1207A5D20A121309020BEDB3
:100D4B00C201C2CC900141E004F0E0B4060374018F
:100D5B00F0121014C20A121309D20A1212EE9001E9
:100D6B0041E0FF1209B7900141E0FF120DBA7FF489
:100D7B007E011211B6121014C20A1212EEA215B392
:100D8B00920A121282A215920A12129D900142E04F
:100D9B00FF1209B7900139E0FF1207A5D20A12130F
:0F0DAB0009900143E0FF12002612110C021153B0
:1013ED00C201C2CCD214B215A215920A12129D12CC
:0513FD00110C020BEDD4
:10106E00D20A121324300317900143E0D3940040A8
:10107E000EA208920A12133FA208B3920A8007D258
:0A108E000A12133FC20A12135A227D
:0E143900300408900145E07002FF227F01227E
:100F7D003004309000F27464F0900145E0701590EB
:100F8D0000F2E0D39400400CE014F07F0A7E0012D2
:100F9D0011B680E59000F2E07009D216121014C25D
:030FAD0002C2037A
:010FB000221E
:1013A9005468652076616C7565206F662074656D7B
:0913B900703A202564200D0A00A1
:050581004201490000E9
:10110C0030150E3006028009C202C20312001E8086
:10111C0004D202D203900142E0FF1212129001435A
:05112C00E0FF020E8B44
:0B146000C2A6C2A5C2A4C2C4C2C3221F
:10119500A200E433FF900149E07003A3E06F601003
:1011A50012110CA200E4FF33900149CFF0A3EFF038
:0111B5002217
:100E25007F06120C6790014BEFF03009137BFF7AB8
:100E35001379A9E0FF9000F5E4F0A3EFF0120109A2
:100E4500900144E0FF90014BE0C39F4007D20A1296
:100E550012B8C202900144E0FF90014BE0C39F50DD
:100E650017201507C20A1212B8D20230150A300629
:100E750007C20A1212B8D20230150A300607C20A92
:050E85001212B8D202B8
:010E8A002245
:10122F003D3D3D3D3D3D3D3D636F646520737461C4
:0D123F0072743D3D3D3D3D3D3D3D0D0A00BD
:100CD90043BA801213751214541213D8121416122F
:100CE900146B121429D288D2A8D2AFC2C2C2A312DD
:100CF90011317BFF7A12792F1201097FE87E0312E5
:100D090011B630160A121439EF24FF921680F3C275
:100D1900A012146012138F120ED9C201C2CC12088C
:100D29006A12106E121195120E25120F7D3016EEF1
:100D3900C201C2CCD2A6D2A5D2A4D2C4D2C3D2A057
:020D490080B96F
:100A6600020CD9E493A3F8E493A34003F68001F2C1
:100A760008DFF48029E493A3F85407240CC8C33391
:100A8600C4540F4420C8834004F456800146F6DF60
:100A9600E4800B0102040810204080900403E47EE9
:100AA600019360BCA3FF543F30E509541FFEE49355
:100AB600A360010ECF54C025E060A840B8E493A31C
:100AC600FAE493A3F8E493A3C8C582C8CAC583CA47
:100AD600F0A3C8C582C8CAC583CADFE9DEE780BEFF
:010586000074
:10058700BB010689828A83E0225002E722BBFE0272
:09059700E32289828A83E49322A5
:1005A000BC000BBE0029EF8DF084FFADF022E4CC3F
:1005B000F875F008EF2FFFEE33FEEC33FCEE9DEC08
:1005C000984005FCEE9DFE0FD5F0E9E4CEFD22ED4E
:1005D000F8F5F0EE8420D21CFEADF075F008EF2F98
:1005E000FFED33FD4007985006D5F0F222C398FD89
:0505F0000FD5F0EA2226
:1005F500A3F8E0C5F025F0F0E582158270021583B9
:06060500E0C838F0E82215
:10060B00BB0110E58229F582E5833AF583E0F5F02D
:10061B00A3E0225009E92582F886F008E622BBFE0A
:10062B000AE92582F8E2F5F008E222E5832AF58350
:08063B00E993F5F0A3E9932215
:10009E00E50824F5F582E43400F583E005082290A6
:1000AE0000F23011039000F5E475F00112068202A1
:1000BE000587200AE97F2ED20A8018EF540F24906C
:1000CE00D43440D4FF300E0BEF24BFB41A005003CB
:1000DE002461FFE50960021509050CE50C700205A7
:1000EE000B30110E9000F2E475F001120682EF0251
:1000FE00067002147D7403D2118003E4C211F50858
:10010E009000F2120699E4F509F50BF50CE509607D
:10011E00077F201200E180F5750AFFC20BC20AC2EA
:10012E000CC20DC20FC210C2121200ADFF700D3004
:10013E0011057F001200F2AF0CAE0B22B4255FC288
:10014E00D5C20E1200ADFF24D0B40A00501A75F0BD
:10015E000A780930D50508B6FF0106C6A426F62092
:10016E00D5047002D20D80D924CFB41A00EF5004FA
:10017E00C2E5D20E0202F3D20B80C6D20A80C0D2E2
:10018E000C80BCD2D580BAD20F80B47F201200E191
:10019E00200C077401B5090040F112009EFF1200F9
:1001AE00E102011BD212D210809512009EFB1200AA
:1001BE009EFA12009EF94A4B700679C47A037BFFB1
:1001CE00200C2EE509602A7E008E827583001206B1
:1001DE004360060EEE650A70F0C2D5EBC0E0EAC0D1
:1001EE00E0E9C0E0EE12033AD0E0F9D0E0FAD0E058
:1001FE00FB120587FF60AAEBC0E0EAC0E0E9C0E0B1
:10020E001200E1D0E02401F9D0E03400FAD0E0FB96
:10021E00E50A0460DCD50AD980877BFF7A0379363C
:10022E00D20C809C791080027908C210C21280080C
:10023E00D2D5790A8004790AC2D5E50A047002F58E
:10024E000AE4FAFDFEFF12009EFC7B08200B13123F
:10025E00009EFD7B10300A0A12009EFE12009EFFC9
:10026E007B20EC3382D592D55013C3E4300A069F1F
:10027E00FFE49EFEE4200B039DFDE49CFCE4CBF822
:10028E00C20BEC700CCFCECDCCE824F8F870F38016
:10029E0017C3EF33FFEE33FEED33FDEC33FCEB33E0
:1002AE00FB994002FB0FD8E9EB300B05F8D0E0C408
:1002BE0048B20BC0E00AEC4D4E4F78207B0070C266
:1002CE00EAB50A0040BCC0E012033CD0F0D0E020FA
:1002DE000B04C4C0E0C4B20BC0F01200CAD0F0D5FB
:1002EE00F0EB02011B1206A201B85302325801892B
:1002FE004C01854202364F023E44023E49019E4366
:08030E000244550228460228B2
:100316004502284703E450018D2D01912E01B42B8F
:1003260001952301B22003CD2A014D48000001ACFE
:100336003F3F3F00790AA2D5200D14300F09B910AE
:10034600020404B9080104A2D520100250010420B9
:100356000C68920CB509005034C0E07F20300D19AE
:100366007F30A20C7210720F500F120393C20CC290
:1003760010C20FC2127F30800F300F03E9C0E012A7
:1003860000E1300F03D0E0F9D0E0B509CC300F170B
:100396007F30B9100C1200E17F58300E077F78804D
:1003A60003B908031200E1300C057F2D0200E17F3E
:1003B600202012F87F2B2010F322920C80CF286E7B
:1003C600756C6C2900D20B12009E300BF8C20B78AC
:1003D6000930D50108F602014D2D50434958120047
:1003E6009E2403B405004001E49003DF931200D27B
:0D03F600743A1200D2D20D750904020232D1
:10064300BB010CE58229F582E5833AF583E022506C
:1006530006E92582F8E622BBFE06E92582F8E222B6
:0D066300E58229F582E5833AF583E49322D0
:10067000BB010689828A83F0225002F722BBFE0169
:02068000F32263
:10068200F8E0FBA3A3E0F925F0F0E5821582700201
:070692001583E0FA38F022A5
:09069900EBF0A3EAF0A3E9F02262
:1006A200D083D082F8E4937012740193700DA3A3E7
:1006B20093F8740193F5828883E4737402936860FB
:0606C200EFA3A3A380DFFB
:00000001FF
